{
  "_format": "hh-sol-artifact-1",
  "contractName": "ToTheMoon",
  "sourceName": "contracts/access-control-2/ToTheMoon.sol",
  "abi": [
    {
      "inputs": [
        {
          "internalType": "uint256",
          "name": "_initialSupply",
          "type": "uint256"
        }
      ],
      "stateMutability": "nonpayable",
      "type": "constructor"
    },
    {
      "anonymous": false,
      "inputs": [
        {
          "indexed": true,
          "internalType": "address",
          "name": "owner",
          "type": "address"
        },
        {
          "indexed": true,
          "internalType": "address",
          "name": "spender",
          "type": "address"
        },
        {
          "indexed": false,
          "internalType": "uint256",
          "name": "value",
          "type": "uint256"
        }
      ],
      "name": "Approval",
      "type": "event"
    },
    {
      "anonymous": false,
      "inputs": [
        {
          "indexed": false,
          "internalType": "address",
          "name": "account",
          "type": "address"
        }
      ],
      "name": "Paused",
      "type": "event"
    },
    {
      "anonymous": false,
      "inputs": [
        {
          "indexed": true,
          "internalType": "address",
          "name": "from",
          "type": "address"
        },
        {
          "indexed": true,
          "internalType": "address",
          "name": "to",
          "type": "address"
        },
        {
          "indexed": false,
          "internalType": "uint256",
          "name": "value",
          "type": "uint256"
        }
      ],
      "name": "Transfer",
      "type": "event"
    },
    {
      "anonymous": false,
      "inputs": [
        {
          "indexed": false,
          "internalType": "address",
          "name": "account",
          "type": "address"
        }
      ],
      "name": "Unpaused",
      "type": "event"
    },
    {
      "inputs": [
        {
          "internalType": "address",
          "name": "owner",
          "type": "address"
        },
        {
          "internalType": "address",
          "name": "spender",
          "type": "address"
        }
      ],
      "name": "allowance",
      "outputs": [
        {
          "internalType": "uint256",
          "name": "",
          "type": "uint256"
        }
      ],
      "stateMutability": "view",
      "type": "function"
    },
    {
      "inputs": [
        {
          "internalType": "address",
          "name": "spender",
          "type": "address"
        },
        {
          "internalType": "uint256",
          "name": "amount",
          "type": "uint256"
        }
      ],
      "name": "approve",
      "outputs": [
        {
          "internalType": "bool",
          "name": "",
          "type": "bool"
        }
      ],
      "stateMutability": "nonpayable",
      "type": "function"
    },
    {
      "inputs": [
        {
          "internalType": "address",
          "name": "account",
          "type": "address"
        }
      ],
      "name": "balanceOf",
      "outputs": [
        {
          "internalType": "uint256",
          "name": "",
          "type": "uint256"
        }
      ],
      "stateMutability": "view",
      "type": "function"
    },
    {
      "inputs": [],
      "name": "decimals",
      "outputs": [
        {
          "internalType": "uint8",
          "name": "",
          "type": "uint8"
        }
      ],
      "stateMutability": "view",
      "type": "function"
    },
    {
      "inputs": [
        {
          "internalType": "address",
          "name": "spender",
          "type": "address"
        },
        {
          "internalType": "uint256",
          "name": "subtractedValue",
          "type": "uint256"
        }
      ],
      "name": "decreaseAllowance",
      "outputs": [
        {
          "internalType": "bool",
          "name": "",
          "type": "bool"
        }
      ],
      "stateMutability": "nonpayable",
      "type": "function"
    },
    {
      "inputs": [
        {
          "internalType": "address",
          "name": "spender",
          "type": "address"
        },
        {
          "internalType": "uint256",
          "name": "addedValue",
          "type": "uint256"
        }
      ],
      "name": "increaseAllowance",
      "outputs": [
        {
          "internalType": "bool",
          "name": "",
          "type": "bool"
        }
      ],
      "stateMutability": "nonpayable",
      "type": "function"
    },
    {
      "inputs": [
        {
          "internalType": "address",
          "name": "_to",
          "type": "address"
        },
        {
          "internalType": "uint256",
          "name": "_amount",
          "type": "uint256"
        }
      ],
      "name": "mint",
      "outputs": [],
      "stateMutability": "nonpayable",
      "type": "function"
    },
    {
      "inputs": [],
      "name": "name",
      "outputs": [
        {
          "internalType": "string",
          "name": "",
          "type": "string"
        }
      ],
      "stateMutability": "view",
      "type": "function"
    },
    {
      "inputs": [],
      "name": "owner",
      "outputs": [
        {
          "internalType": "address",
          "name": "",
          "type": "address"
        }
      ],
      "stateMutability": "view",
      "type": "function"
    },
    {
      "inputs": [
        {
          "internalType": "bool",
          "name": "state",
          "type": "bool"
        }
      ],
      "name": "pause",
      "outputs": [],
      "stateMutability": "nonpayable",
      "type": "function"
    },
    {
      "inputs": [],
      "name": "paused",
      "outputs": [
        {
          "internalType": "bool",
          "name": "",
          "type": "bool"
        }
      ],
      "stateMutability": "view",
      "type": "function"
    },
    {
      "inputs": [],
      "name": "symbol",
      "outputs": [
        {
          "internalType": "string",
          "name": "",
          "type": "string"
        }
      ],
      "stateMutability": "view",
      "type": "function"
    },
    {
      "inputs": [],
      "name": "totalSupply",
      "outputs": [
        {
          "internalType": "uint256",
          "name": "",
          "type": "uint256"
        }
      ],
      "stateMutability": "view",
      "type": "function"
    },
    {
      "inputs": [
        {
          "internalType": "address",
          "name": "to",
          "type": "address"
        },
        {
          "internalType": "uint256",
          "name": "amount",
          "type": "uint256"
        }
      ],
      "name": "transfer",
      "outputs": [
        {
          "internalType": "bool",
          "name": "",
          "type": "bool"
        }
      ],
      "stateMutability": "nonpayable",
      "type": "function"
    },
    {
      "inputs": [
        {
          "internalType": "address",
          "name": "from",
          "type": "address"
        },
        {
          "internalType": "address",
          "name": "to",
          "type": "address"
        },
        {
          "internalType": "uint256",
          "name": "amount",
          "type": "uint256"
        }
      ],
      "name": "transferFrom",
      "outputs": [
        {
          "internalType": "bool",
          "name": "",
          "type": "bool"
        }
      ],
      "stateMutability": "nonpayable",
      "type": "function"
    }
  ],
  "bytecode": "0x60806040523480156200001157600080fd5b5060405162001fd738038062001fd783398181016040528101906200003791906200045c565b6040518060400160405280600b81526020017f546f20546865204d6f6f6e0000000000000000000000000000000000000000008152506040518060400160405280600381526020017f54544d00000000000000000000000000000000000000000000000000000000008152508160039080519060200190620000bb9291906200036c565b508060049080519060200190620000d49291906200036c565b5050506000600560006101000a81548160ff02191690831515021790555033600560016101000a81548173ffffffffffffffffffffffffffffffffffffffff021916908373ffffffffffffffffffffffffffffffffffffffff16021790555062000167600560019054906101000a900473ffffffffffffffffffffffffffffffffffffffff16826200016e60201b60201c565b50620006c7565b600073ffffffffffffffffffffffffffffffffffffffff168273ffffffffffffffffffffffffffffffffffffffff1603620001e0576040517f08c379a0000000000000000000000000000000000000000000000000000000008152600401620001d790620004ef565b60405180910390fd5b620001f460008383620002db60201b60201c565b806002600082825462000208919062000540565b92505081905550806000808473ffffffffffffffffffffffffffffffffffffffff1673ffffffffffffffffffffffffffffffffffffffff168152602001908152602001600020600082825401925050819055508173ffffffffffffffffffffffffffffffffffffffff16600073ffffffffffffffffffffffffffffffffffffffff167fddf252ad1be2c89b69c2b068fc378daa952ba7f163c4a11628f55a4df523b3ef83604051620002bb9190620005ae565b60405180910390a3620002d7600083836200034b60201b60201c565b5050565b620002f38383836200035060201b620006e51760201c565b620003036200035560201b60201c565b1562000346576040517f08c379a00000000000000000000000000000000000000000000000000000000081526004016200033d9062000641565b60405180910390fd5b505050565b505050565b505050565b6000600560009054906101000a900460ff16905090565b8280546200037a9062000692565b90600052602060002090601f0160209004810192826200039e5760008555620003ea565b82601f10620003b957805160ff1916838001178555620003ea565b82800160010185558215620003ea579182015b82811115620003e9578251825591602001919060010190620003cc565b5b509050620003f99190620003fd565b5090565b5b8082111562000418576000816000905550600101620003fe565b5090565b600080fd5b6000819050919050565b620004368162000421565b81146200044257600080fd5b50565b60008151905062000456816200042b565b92915050565b6000602082840312156200047557620004746200041c565b5b6000620004858482850162000445565b91505092915050565b600082825260208201905092915050565b7f45524332303a206d696e7420746f20746865207a65726f206164647265737300600082015250565b6000620004d7601f836200048e565b9150620004e4826200049f565b602082019050919050565b600060208201905081810360008301526200050a81620004c8565b9050919050565b7f4e487b7100000000000000000000000000000000000000000000000000000000600052601160045260246000fd5b60006200054d8262000421565b91506200055a8362000421565b9250827fffffffffffffffffffffffffffffffffffffffffffffffffffffffffffffffff0382111562000592576200059162000511565b5b828201905092915050565b620005a88162000421565b82525050565b6000602082019050620005c560008301846200059d565b92915050565b7f45524332305061757361626c653a20746f6b656e207472616e7366657220776860008201527f696c652070617573656400000000000000000000000000000000000000000000602082015250565b600062000629602a836200048e565b91506200063682620005cb565b604082019050919050565b600060208201905081810360008301526200065c816200061a565b9050919050565b7f4e487b7100000000000000000000000000000000000000000000000000000000600052602260045260246000fd5b60006002820490506001821680620006ab57607f821691505b602082108103620006c157620006c062000663565b5b50919050565b61190080620006d76000396000f3fe608060405234801561001057600080fd5b50600436106100f55760003560e01c806340c10f191161009757806395d89b411161006657806395d89b4114610288578063a457c2d7146102a6578063a9059cbb146102d6578063dd62ed3e14610306576100f5565b806340c10f19146102005780635c975abb1461021c57806370a082311461023a5780638da5cb5b1461026a576100f5565b806318160ddd116100d357806318160ddd1461016457806323b872dd14610182578063313ce567146101b257806339509351146101d0576100f5565b806302329a29146100fa57806306fdde0314610116578063095ea7b314610134575b600080fd5b610114600480360381019061010f9190610f06565b610336565b005b61011e610363565b60405161012b9190610fcc565b60405180910390f35b61014e60048036038101906101499190611082565b6103f5565b60405161015b91906110d1565b60405180910390f35b61016c610418565b60405161017991906110fb565b60405180910390f35b61019c60048036038101906101979190611116565b610422565b6040516101a991906110d1565b60405180910390f35b6101ba610451565b6040516101c79190611185565b60405180910390f35b6101ea60048036038101906101e59190611082565b61045a565b6040516101f791906110d1565b60405180910390f35b61021a60048036038101906102159190611082565b610491565b005b6102246104ad565b60405161023191906110d1565b60405180910390f35b610254600480360381019061024f91906111a0565b6104c4565b60405161026191906110fb565b60405180910390f35b61027261050c565b60405161027f91906111dc565b60405180910390f35b610290610532565b60405161029d9190610fcc565b60405180910390f35b6102c060048036038101906102bb9190611082565b6105c4565b6040516102cd91906110d1565b60405180910390f35b6102f060048036038101906102eb9190611082565b61063b565b6040516102fd91906110d1565b60405180910390f35b610320600480360381019061031b91906111f7565b61065e565b60405161032d91906110fb565b60405180910390f35b600560019054906101000a9050508015610357576103526106ea565b610360565b61035f61074d565b5b50565b60606003805461037290611266565b80601f016020809104026020016040519081016040528092919081815260200182805461039e90611266565b80156103eb5780601f106103c0576101008083540402835291602001916103eb565b820191906000526020600020905b8154815290600101906020018083116103ce57829003601f168201915b5050505050905090565b6000806104006107b0565b905061040d8185856107b8565b600191505092915050565b6000600254905090565b60008061042d6107b0565b905061043a858285610981565b610445858585610a0d565b60019150509392505050565b60006012905090565b6000806104656107b0565b9050610486818585610477858961065e565b61048191906112c6565b6107b8565b600191505092915050565b600560019054906101000a9050506104a98282610c83565b5050565b6000600560009054906101000a900460ff16905090565b60008060008373ffffffffffffffffffffffffffffffffffffffff1673ffffffffffffffffffffffffffffffffffffffff168152602001908152602001600020549050919050565b600560019054906101000a900473ffffffffffffffffffffffffffffffffffffffff1681565b60606004805461054190611266565b80601f016020809104026020016040519081016040528092919081815260200182805461056d90611266565b80156105ba5780601f1061058f576101008083540402835291602001916105ba565b820191906000526020600020905b81548152906001019060200180831161059d57829003601f168201915b5050505050905090565b6000806105cf6107b0565b905060006105dd828661065e565b905083811015610622576040517f08c379a00000000000000000000000000000000000000000000000000000000081526004016106199061138e565b60405180910390fd5b61062f82868684036107b8565b60019250505092915050565b6000806106466107b0565b9050610653818585610a0d565b600191505092915050565b6000600160008473ffffffffffffffffffffffffffffffffffffffff1673ffffffffffffffffffffffffffffffffffffffff16815260200190815260200160002060008373ffffffffffffffffffffffffffffffffffffffff1673ffffffffffffffffffffffffffffffffffffffff16815260200190815260200160002054905092915050565b505050565b6106f2610dd9565b6001600560006101000a81548160ff0219169083151502179055507f62e78cea01bee320cd4e420270b5ea74000d11b0c9f74754ebdbfc544b05a2586107366107b0565b60405161074391906111dc565b60405180910390a1565b610755610e23565b6000600560006101000a81548160ff0219169083151502179055507f5db9ee0a495bf2e6ff9c91a7834c1ba4fdd244a5e8aa4e537bd38aeae4b073aa6107996107b0565b6040516107a691906111dc565b60405180910390a1565b600033905090565b600073ffffffffffffffffffffffffffffffffffffffff168373ffffffffffffffffffffffffffffffffffffffff1603610827576040517f08c379a000000000000000000000000000000000000000000000000000000000815260040161081e90611420565b60405180910390fd5b600073ffffffffffffffffffffffffffffffffffffffff168273ffffffffffffffffffffffffffffffffffffffff1603610896576040517f08c379a000000000000000000000000000000000000000000000000000000000815260040161088d906114b2565b60405180910390fd5b80600160008573ffffffffffffffffffffffffffffffffffffffff1673ffffffffffffffffffffffffffffffffffffffff16815260200190815260200160002060008473ffffffffffffffffffffffffffffffffffffffff1673ffffffffffffffffffffffffffffffffffffffff168152602001908152602001600020819055508173ffffffffffffffffffffffffffffffffffffffff168373ffffffffffffffffffffffffffffffffffffffff167f8c5be1e5ebec7d5bd14f71427d1e84f3dd0314c0f7b2291e5b200ac8c7c3b9258360405161097491906110fb565b60405180910390a3505050565b600061098d848461065e565b90507fffffffffffffffffffffffffffffffffffffffffffffffffffffffffffffffff8114610a0757818110156109f9576040517f08c379a00000000000000000000000000000000000000000000000000000000081526004016109f09061151e565b60405180910390fd5b610a0684848484036107b8565b5b50505050565b600073ffffffffffffffffffffffffffffffffffffffff168373ffffffffffffffffffffffffffffffffffffffff1603610a7c576040517f08c379a0000000000000000000000000000000000000000000000000000000008152600401610a73906115b0565b60405180910390fd5b600073ffffffffffffffffffffffffffffffffffffffff168273ffffffffffffffffffffffffffffffffffffffff1603610aeb576040517f08c379a0000000000000000000000000000000000000000000000000000000008152600401610ae290611642565b60405180910390fd5b610af6838383610e6c565b60008060008573ffffffffffffffffffffffffffffffffffffffff1673ffffffffffffffffffffffffffffffffffffffff16815260200190815260200160002054905081811015610b7c576040517f08c379a0000000000000000000000000000000000000000000000000000000008152600401610b73906116d4565b60405180910390fd5b8181036000808673ffffffffffffffffffffffffffffffffffffffff1673ffffffffffffffffffffffffffffffffffffffff16815260200190815260200160002081905550816000808573ffffffffffffffffffffffffffffffffffffffff1673ffffffffffffffffffffffffffffffffffffffff168152602001908152602001600020600082825401925050819055508273ffffffffffffffffffffffffffffffffffffffff168473ffffffffffffffffffffffffffffffffffffffff167fddf252ad1be2c89b69c2b068fc378daa952ba7f163c4a11628f55a4df523b3ef84604051610c6a91906110fb565b60405180910390a3610c7d848484610ec4565b50505050565b600073ffffffffffffffffffffffffffffffffffffffff168273ffffffffffffffffffffffffffffffffffffffff1603610cf2576040517f08c379a0000000000000000000000000000000000000000000000000000000008152600401610ce990611740565b60405180910390fd5b610cfe60008383610e6c565b8060026000828254610d1091906112c6565b92505081905550806000808473ffffffffffffffffffffffffffffffffffffffff1673ffffffffffffffffffffffffffffffffffffffff168152602001908152602001600020600082825401925050819055508173ffffffffffffffffffffffffffffffffffffffff16600073ffffffffffffffffffffffffffffffffffffffff167fddf252ad1be2c89b69c2b068fc378daa952ba7f163c4a11628f55a4df523b3ef83604051610dc191906110fb565b60405180910390a3610dd560008383610ec4565b5050565b610de16104ad565b15610e21576040517f08c379a0000000000000000000000000000000000000000000000000000000008152600401610e18906117ac565b60405180910390fd5b565b610e2b6104ad565b610e6a576040517f08c379a0000000000000000000000000000000000000000000000000000000008152600401610e6190611818565b60405180910390fd5b565b610e778383836106e5565b610e7f6104ad565b15610ebf576040517f08c379a0000000000000000000000000000000000000000000000000000000008152600401610eb6906118aa565b60405180910390fd5b505050565b505050565b600080fd5b60008115159050919050565b610ee381610ece565b8114610eee57600080fd5b50565b600081359050610f0081610eda565b92915050565b600060208284031215610f1c57610f1b610ec9565b5b6000610f2a84828501610ef1565b91505092915050565b600081519050919050565b600082825260208201905092915050565b60005b83811015610f6d578082015181840152602081019050610f52565b83811115610f7c576000848401525b50505050565b6000601f19601f8301169050919050565b6000610f9e82610f33565b610fa88185610f3e565b9350610fb8818560208601610f4f565b610fc181610f82565b840191505092915050565b60006020820190508181036000830152610fe68184610f93565b905092915050565b600073ffffffffffffffffffffffffffffffffffffffff82169050919050565b600061101982610fee565b9050919050565b6110298161100e565b811461103457600080fd5b50565b60008135905061104681611020565b92915050565b6000819050919050565b61105f8161104c565b811461106a57600080fd5b50565b60008135905061107c81611056565b92915050565b6000806040838503121561109957611098610ec9565b5b60006110a785828601611037565b92505060206110b88582860161106d565b9150509250929050565b6110cb81610ece565b82525050565b60006020820190506110e660008301846110c2565b92915050565b6110f58161104c565b82525050565b600060208201905061111060008301846110ec565b92915050565b60008060006060848603121561112f5761112e610ec9565b5b600061113d86828701611037565b935050602061114e86828701611037565b925050604061115f8682870161106d565b9150509250925092565b600060ff82169050919050565b61117f81611169565b82525050565b600060208201905061119a6000830184611176565b92915050565b6000602082840312156111b6576111b5610ec9565b5b60006111c484828501611037565b91505092915050565b6111d68161100e565b82525050565b60006020820190506111f160008301846111cd565b92915050565b6000806040838503121561120e5761120d610ec9565b5b600061121c85828601611037565b925050602061122d85828601611037565b9150509250929050565b7f4e487b7100000000000000000000000000000000000000000000000000000000600052602260045260246000fd5b6000600282049050600182168061127e57607f821691505b60208210810361129157611290611237565b5b50919050565b7f4e487b7100000000000000000000000000000000000000000000000000000000600052601160045260246000fd5b60006112d18261104c565b91506112dc8361104c565b9250827fffffffffffffffffffffffffffffffffffffffffffffffffffffffffffffffff0382111561131157611310611297565b5b828201905092915050565b7f45524332303a2064656372656173656420616c6c6f77616e63652062656c6f7760008201527f207a65726f000000000000000000000000000000000000000000000000000000602082015250565b6000611378602583610f3e565b91506113838261131c565b604082019050919050565b600060208201905081810360008301526113a78161136b565b9050919050565b7f45524332303a20617070726f76652066726f6d20746865207a65726f2061646460008201527f7265737300000000000000000000000000000000000000000000000000000000602082015250565b600061140a602483610f3e565b9150611415826113ae565b604082019050919050565b60006020820190508181036000830152611439816113fd565b9050919050565b7f45524332303a20617070726f766520746f20746865207a65726f20616464726560008201527f7373000000000000000000000000000000000000000000000000000000000000602082015250565b600061149c602283610f3e565b91506114a782611440565b604082019050919050565b600060208201905081810360008301526114cb8161148f565b9050919050565b7f45524332303a20696e73756666696369656e7420616c6c6f77616e6365000000600082015250565b6000611508601d83610f3e565b9150611513826114d2565b602082019050919050565b60006020820190508181036000830152611537816114fb565b9050919050565b7f45524332303a207472616e736665722066726f6d20746865207a65726f20616460008201527f6472657373000000000000000000000000000000000000000000000000000000602082015250565b600061159a602583610f3e565b91506115a58261153e565b604082019050919050565b600060208201905081810360008301526115c98161158d565b9050919050565b7f45524332303a207472616e7366657220746f20746865207a65726f206164647260008201527f6573730000000000000000000000000000000000000000000000000000000000602082015250565b600061162c602383610f3e565b9150611637826115d0565b604082019050919050565b6000602082019050818103600083015261165b8161161f565b9050919050565b7f45524332303a207472616e7366657220616d6f756e742065786365656473206260008201527f616c616e63650000000000000000000000000000000000000000000000000000602082015250565b60006116be602683610f3e565b91506116c982611662565b604082019050919050565b600060208201905081810360008301526116ed816116b1565b9050919050565b7f45524332303a206d696e7420746f20746865207a65726f206164647265737300600082015250565b600061172a601f83610f3e565b9150611735826116f4565b602082019050919050565b600060208201905081810360008301526117598161171d565b9050919050565b7f5061757361626c653a2070617573656400000000000000000000000000000000600082015250565b6000611796601083610f3e565b91506117a182611760565b602082019050919050565b600060208201905081810360008301526117c581611789565b9050919050565b7f5061757361626c653a206e6f7420706175736564000000000000000000000000600082015250565b6000611802601483610f3e565b915061180d826117cc565b602082019050919050565b60006020820190508181036000830152611831816117f5565b9050919050565b7f45524332305061757361626c653a20746f6b656e207472616e7366657220776860008201527f696c652070617573656400000000000000000000000000000000000000000000602082015250565b6000611894602a83610f3e565b915061189f82611838565b604082019050919050565b600060208201905081810360008301526118c381611887565b905091905056fea26469706673582212205c474d80aab3e6f90ddf47f2acb2f3399c2074471e06cd3c4c1ba7704454941b64736f6c634300080d0033",
  "linkReferences": {},
  "deployedLinkReferences": {}
}