{
  "_format": "hh-sol-artifact-1",
  "contractName": "CryptoEmpireToken",
  "sourceName": "contracts/reentrancy-4/CryptoEmpireToken.sol",
  "abi": [
    {
      "inputs": [],
      "stateMutability": "nonpayable",
      "type": "constructor"
    },
    {
      "anonymous": false,
      "inputs": [
        {
          "indexed": true,
          "internalType": "address",
          "name": "account",
          "type": "address"
        },
        {
          "indexed": true,
          "internalType": "address",
          "name": "operator",
          "type": "address"
        },
        {
          "indexed": false,
          "internalType": "bool",
          "name": "approved",
          "type": "bool"
        }
      ],
      "name": "ApprovalForAll",
      "type": "event"
    },
    {
      "anonymous": false,
      "inputs": [
        {
          "indexed": true,
          "internalType": "address",
          "name": "previousOwner",
          "type": "address"
        },
        {
          "indexed": true,
          "internalType": "address",
          "name": "newOwner",
          "type": "address"
        }
      ],
      "name": "OwnershipTransferred",
      "type": "event"
    },
    {
      "anonymous": false,
      "inputs": [
        {
          "indexed": true,
          "internalType": "address",
          "name": "operator",
          "type": "address"
        },
        {
          "indexed": true,
          "internalType": "address",
          "name": "from",
          "type": "address"
        },
        {
          "indexed": true,
          "internalType": "address",
          "name": "to",
          "type": "address"
        },
        {
          "indexed": false,
          "internalType": "uint256[]",
          "name": "ids",
          "type": "uint256[]"
        },
        {
          "indexed": false,
          "internalType": "uint256[]",
          "name": "values",
          "type": "uint256[]"
        }
      ],
      "name": "TransferBatch",
      "type": "event"
    },
    {
      "anonymous": false,
      "inputs": [
        {
          "indexed": true,
          "internalType": "address",
          "name": "operator",
          "type": "address"
        },
        {
          "indexed": true,
          "internalType": "address",
          "name": "from",
          "type": "address"
        },
        {
          "indexed": true,
          "internalType": "address",
          "name": "to",
          "type": "address"
        },
        {
          "indexed": false,
          "internalType": "uint256",
          "name": "id",
          "type": "uint256"
        },
        {
          "indexed": false,
          "internalType": "uint256",
          "name": "value",
          "type": "uint256"
        }
      ],
      "name": "TransferSingle",
      "type": "event"
    },
    {
      "anonymous": false,
      "inputs": [
        {
          "indexed": false,
          "internalType": "string",
          "name": "value",
          "type": "string"
        },
        {
          "indexed": true,
          "internalType": "uint256",
          "name": "id",
          "type": "uint256"
        }
      ],
      "name": "URI",
      "type": "event"
    },
    {
      "inputs": [
        {
          "internalType": "address",
          "name": "account",
          "type": "address"
        },
        {
          "internalType": "uint256",
          "name": "id",
          "type": "uint256"
        }
      ],
      "name": "balanceOf",
      "outputs": [
        {
          "internalType": "uint256",
          "name": "",
          "type": "uint256"
        }
      ],
      "stateMutability": "view",
      "type": "function"
    },
    {
      "inputs": [
        {
          "internalType": "address[]",
          "name": "accounts",
          "type": "address[]"
        },
        {
          "internalType": "uint256[]",
          "name": "ids",
          "type": "uint256[]"
        }
      ],
      "name": "balanceOfBatch",
      "outputs": [
        {
          "internalType": "uint256[]",
          "name": "",
          "type": "uint256[]"
        }
      ],
      "stateMutability": "view",
      "type": "function"
    },
    {
      "inputs": [
        {
          "internalType": "address",
          "name": "account",
          "type": "address"
        },
        {
          "internalType": "address",
          "name": "operator",
          "type": "address"
        }
      ],
      "name": "isApprovedForAll",
      "outputs": [
        {
          "internalType": "bool",
          "name": "",
          "type": "bool"
        }
      ],
      "stateMutability": "view",
      "type": "function"
    },
    {
      "inputs": [
        {
          "internalType": "address",
          "name": "_account",
          "type": "address"
        },
        {
          "internalType": "uint256",
          "name": "_amount",
          "type": "uint256"
        },
        {
          "internalType": "enum CryptoEmpireToken.NftId",
          "name": "_id",
          "type": "uint8"
        }
      ],
      "name": "mint",
      "outputs": [],
      "stateMutability": "nonpayable",
      "type": "function"
    },
    {
      "inputs": [],
      "name": "owner",
      "outputs": [
        {
          "internalType": "address",
          "name": "",
          "type": "address"
        }
      ],
      "stateMutability": "view",
      "type": "function"
    },
    {
      "inputs": [],
      "name": "renounceOwnership",
      "outputs": [],
      "stateMutability": "nonpayable",
      "type": "function"
    },
    {
      "inputs": [
        {
          "internalType": "address",
          "name": "from",
          "type": "address"
        },
        {
          "internalType": "address",
          "name": "to",
          "type": "address"
        },
        {
          "internalType": "uint256[]",
          "name": "ids",
          "type": "uint256[]"
        },
        {
          "internalType": "uint256[]",
          "name": "amounts",
          "type": "uint256[]"
        },
        {
          "internalType": "bytes",
          "name": "data",
          "type": "bytes"
        }
      ],
      "name": "safeBatchTransferFrom",
      "outputs": [],
      "stateMutability": "nonpayable",
      "type": "function"
    },
    {
      "inputs": [
        {
          "internalType": "address",
          "name": "from",
          "type": "address"
        },
        {
          "internalType": "address",
          "name": "to",
          "type": "address"
        },
        {
          "internalType": "uint256",
          "name": "id",
          "type": "uint256"
        },
        {
          "internalType": "uint256",
          "name": "amount",
          "type": "uint256"
        },
        {
          "internalType": "bytes",
          "name": "data",
          "type": "bytes"
        }
      ],
      "name": "safeTransferFrom",
      "outputs": [],
      "stateMutability": "nonpayable",
      "type": "function"
    },
    {
      "inputs": [
        {
          "internalType": "address",
          "name": "operator",
          "type": "address"
        },
        {
          "internalType": "bool",
          "name": "approved",
          "type": "bool"
        }
      ],
      "name": "setApprovalForAll",
      "outputs": [],
      "stateMutability": "nonpayable",
      "type": "function"
    },
    {
      "inputs": [
        {
          "internalType": "string",
          "name": "_newuri",
          "type": "string"
        }
      ],
      "name": "setURI",
      "outputs": [],
      "stateMutability": "nonpayable",
      "type": "function"
    },
    {
      "inputs": [
        {
          "internalType": "bytes4",
          "name": "interfaceId",
          "type": "bytes4"
        }
      ],
      "name": "supportsInterface",
      "outputs": [
        {
          "internalType": "bool",
          "name": "",
          "type": "bool"
        }
      ],
      "stateMutability": "view",
      "type": "function"
    },
    {
      "inputs": [
        {
          "internalType": "address",
          "name": "newOwner",
          "type": "address"
        }
      ],
      "name": "transferOwnership",
      "outputs": [],
      "stateMutability": "nonpayable",
      "type": "function"
    },
    {
      "inputs": [
        {
          "internalType": "uint256",
          "name": "",
          "type": "uint256"
        }
      ],
      "name": "uri",
      "outputs": [
        {
          "internalType": "string",
          "name": "",
          "type": "string"
        }
      ],
      "stateMutability": "view",
      "type": "function"
    }
  ],
  "bytecode": "0x60806040523480156200001157600080fd5b506040518060400160405280600781526020017f736f6d657572690000000000000000000000000000000000000000000000000081525062000059816200008060201b60201c565b506200007a6200006e6200009c60201b60201c565b620000a460201b60201c565b6200027e565b8060029080519060200190620000989291906200016a565b5050565b600033905090565b6000600360009054906101000a900473ffffffffffffffffffffffffffffffffffffffff16905081600360006101000a81548173ffffffffffffffffffffffffffffffffffffffff021916908373ffffffffffffffffffffffffffffffffffffffff1602179055508173ffffffffffffffffffffffffffffffffffffffff168173ffffffffffffffffffffffffffffffffffffffff167f8be0079c531659141344cd1fd0a4f28419497f9722a3daafe3b4186f6b6457e060405160405180910390a35050565b828054620001789062000249565b90600052602060002090601f0160209004810192826200019c5760008555620001e8565b82601f10620001b757805160ff1916838001178555620001e8565b82800160010185558215620001e8579182015b82811115620001e7578251825591602001919060010190620001ca565b5b509050620001f79190620001fb565b5090565b5b8082111562000216576000816000905550600101620001fc565b5090565b7f4e487b7100000000000000000000000000000000000000000000000000000000600052602260045260246000fd5b600060028204905060018216806200026257607f821691505b6020821081036200027857620002776200021a565b5b50919050565b612e0e806200028e6000396000f3fe608060405234801561001057600080fd5b50600436106100ce5760003560e01c80636112e8ac1161008c578063a22cb46511610066578063a22cb4651461020f578063e985e9c51461022b578063f242432a1461025b578063f2fde38b14610277576100ce565b80636112e8ac146101cb578063715018a6146101e75780638da5cb5b146101f1576100ce565b8062fdd58e146100d357806301ffc9a71461010357806302fe5305146101335780630e89341c1461014f5780632eb2c2d61461017f5780634e1273f41461019b575b600080fd5b6100ed60048036038101906100e89190611933565b610293565b6040516100fa9190611982565b60405180910390f35b61011d600480360381019061011891906119f5565b61035b565b60405161012a9190611a3d565b60405180910390f35b61014d60048036038101906101489190611b9e565b61043d565b005b61016960048036038101906101649190611be7565b610451565b6040516101769190611c9c565b60405180910390f35b61019960048036038101906101949190611e27565b6104e5565b005b6101b560048036038101906101b09190611fb9565b610586565b6040516101c291906120ef565b60405180910390f35b6101e560048036038101906101e09190612136565b61069f565b005b6101ef6106d9565b005b6101f96106ed565b6040516102069190612198565b60405180910390f35b610229600480360381019061022491906121df565b610717565b005b6102456004803603810190610240919061221f565b61072d565b6040516102529190611a3d565b60405180910390f35b6102756004803603810190610270919061225f565b6107c1565b005b610291600480360381019061028c91906122f6565b610862565b005b60008073ffffffffffffffffffffffffffffffffffffffff168373ffffffffffffffffffffffffffffffffffffffff1603610303576040517f08c379a00000000000000000000000000000000000000000000000000000000081526004016102fa90612395565b60405180910390fd5b60008083815260200190815260200160002060008473ffffffffffffffffffffffffffffffffffffffff1673ffffffffffffffffffffffffffffffffffffffff16815260200190815260200160002054905092915050565b60007fd9b67a26000000000000000000000000000000000000000000000000000000007bffffffffffffffffffffffffffffffffffffffffffffffffffffffff1916827bffffffffffffffffffffffffffffffffffffffffffffffffffffffff1916148061042657507f0e89341c000000000000000000000000000000000000000000000000000000007bffffffffffffffffffffffffffffffffffffffffffffffffffffffff1916827bffffffffffffffffffffffffffffffffffffffffffffffffffffffff1916145b806104365750610435826108e5565b5b9050919050565b61044561094f565b61044e816109cd565b50565b606060028054610460906123e4565b80601f016020809104026020016040519081016040528092919081815260200182805461048c906123e4565b80156104d95780601f106104ae576101008083540402835291602001916104d9565b820191906000526020600020905b8154815290600101906020018083116104bc57829003601f168201915b50505050509050919050565b6104ed6109e7565b73ffffffffffffffffffffffffffffffffffffffff168573ffffffffffffffffffffffffffffffffffffffff16148061053357506105328561052d6109e7565b61072d565b5b610572576040517f08c379a000000000000000000000000000000000000000000000000000000000815260040161056990612487565b60405180910390fd5b61057f85858585856109ef565b5050505050565b606081518351146105cc576040517f08c379a00000000000000000000000000000000000000000000000000000000081526004016105c390612519565b60405180910390fd5b6000835167ffffffffffffffff8111156105e9576105e8611a73565b5b6040519080825280602002602001820160405280156106175781602001602082028036833780820191505090505b50905060005b84518110156106945761066485828151811061063c5761063b612539565b5b602002602001015185838151811061065757610656612539565b5b6020026020010151610293565b82828151811061067757610676612539565b5b6020026020010181815250508061068d90612597565b905061061d565b508091505092915050565b6106a761094f565b6106d4838260058111156106be576106bd6125df565b5b8460405180602001604052806000815250610d10565b505050565b6106e161094f565b6106eb6000610ec0565b565b6000600360009054906101000a900473ffffffffffffffffffffffffffffffffffffffff16905090565b6107296107226109e7565b8383610f86565b5050565b6000600160008473ffffffffffffffffffffffffffffffffffffffff1673ffffffffffffffffffffffffffffffffffffffff16815260200190815260200160002060008373ffffffffffffffffffffffffffffffffffffffff1673ffffffffffffffffffffffffffffffffffffffff16815260200190815260200160002060009054906101000a900460ff16905092915050565b6107c96109e7565b73ffffffffffffffffffffffffffffffffffffffff168573ffffffffffffffffffffffffffffffffffffffff16148061080f575061080e856108096109e7565b61072d565b5b61084e576040517f08c379a000000000000000000000000000000000000000000000000000000000815260040161084590612487565b60405180910390fd5b61085b85858585856110f2565b5050505050565b61086a61094f565b600073ffffffffffffffffffffffffffffffffffffffff168173ffffffffffffffffffffffffffffffffffffffff16036108d9576040517f08c379a00000000000000000000000000000000000000000000000000000000081526004016108d090612680565b60405180910390fd5b6108e281610ec0565b50565b60007f01ffc9a7000000000000000000000000000000000000000000000000000000007bffffffffffffffffffffffffffffffffffffffffffffffffffffffff1916827bffffffffffffffffffffffffffffffffffffffffffffffffffffffff1916149050919050565b6109576109e7565b73ffffffffffffffffffffffffffffffffffffffff166109756106ed565b73ffffffffffffffffffffffffffffffffffffffff16146109cb576040517f08c379a00000000000000000000000000000000000000000000000000000000081526004016109c2906126ec565b60405180910390fd5b565b80600290805190602001906109e39291906117e8565b5050565b600033905090565b8151835114610a33576040517f08c379a0000000000000000000000000000000000000000000000000000000008152600401610a2a9061277e565b60405180910390fd5b600073ffffffffffffffffffffffffffffffffffffffff168473ffffffffffffffffffffffffffffffffffffffff1603610aa2576040517f08c379a0000000000000000000000000000000000000000000000000000000008152600401610a9990612810565b60405180910390fd5b6000610aac6109e7565b9050610abc81878787878761138d565b60005b8451811015610c6d576000858281518110610add57610adc612539565b5b602002602001015190506000858381518110610afc57610afb612539565b5b60200260200101519050600080600084815260200190815260200160002060008b73ffffffffffffffffffffffffffffffffffffffff1673ffffffffffffffffffffffffffffffffffffffff16815260200190815260200160002054905081811015610b9d576040517f08c379a0000000000000000000000000000000000000000000000000000000008152600401610b94906128a2565b60405180910390fd5b81810360008085815260200190815260200160002060008c73ffffffffffffffffffffffffffffffffffffffff1673ffffffffffffffffffffffffffffffffffffffff168152602001908152602001600020819055508160008085815260200190815260200160002060008b73ffffffffffffffffffffffffffffffffffffffff1673ffffffffffffffffffffffffffffffffffffffff1681526020019081526020016000206000828254610c5291906128c2565b9250508190555050505080610c6690612597565b9050610abf565b508473ffffffffffffffffffffffffffffffffffffffff168673ffffffffffffffffffffffffffffffffffffffff168273ffffffffffffffffffffffffffffffffffffffff167f4a39dc06d4c0dbc64b70af90fd698a233a518aa5d07e595d983b8c0526c8f7fb8787604051610ce4929190612918565b60405180910390a4610cfa818787878787611395565b610d0881878787878761139d565b505050505050565b600073ffffffffffffffffffffffffffffffffffffffff168473ffffffffffffffffffffffffffffffffffffffff1603610d7f576040517f08c379a0000000000000000000000000000000000000000000000000000000008152600401610d76906129c1565b60405180910390fd5b6000610d896109e7565b90506000610d9685611574565b90506000610da385611574565b9050610db48360008985858961138d565b8460008088815260200190815260200160002060008973ffffffffffffffffffffffffffffffffffffffff1673ffffffffffffffffffffffffffffffffffffffff1681526020019081526020016000206000828254610e1391906128c2565b925050819055508673ffffffffffffffffffffffffffffffffffffffff16600073ffffffffffffffffffffffffffffffffffffffff168473ffffffffffffffffffffffffffffffffffffffff167fc3d58168c5ae7397731d063d5bbf3d657854427343f4c083240f7aacaa2d0f628989604051610e919291906129e1565b60405180910390a4610ea883600089858589611395565b610eb7836000898989896115ee565b50505050505050565b6000600360009054906101000a900473ffffffffffffffffffffffffffffffffffffffff16905081600360006101000a81548173ffffffffffffffffffffffffffffffffffffffff021916908373ffffffffffffffffffffffffffffffffffffffff1602179055508173ffffffffffffffffffffffffffffffffffffffff168173ffffffffffffffffffffffffffffffffffffffff167f8be0079c531659141344cd1fd0a4f28419497f9722a3daafe3b4186f6b6457e060405160405180910390a35050565b8173ffffffffffffffffffffffffffffffffffffffff168373ffffffffffffffffffffffffffffffffffffffff1603610ff4576040517f08c379a0000000000000000000000000000000000000000000000000000000008152600401610feb90612a7c565b60405180910390fd5b80600160008573ffffffffffffffffffffffffffffffffffffffff1673ffffffffffffffffffffffffffffffffffffffff16815260200190815260200160002060008473ffffffffffffffffffffffffffffffffffffffff1673ffffffffffffffffffffffffffffffffffffffff16815260200190815260200160002060006101000a81548160ff0219169083151502179055508173ffffffffffffffffffffffffffffffffffffffff168373ffffffffffffffffffffffffffffffffffffffff167f17307eab39ab6107e8899845ad3d59bd9653f200f220920489ca2b5937696c31836040516110e59190611a3d565b60405180910390a3505050565b600073ffffffffffffffffffffffffffffffffffffffff168473ffffffffffffffffffffffffffffffffffffffff1603611161576040517f08c379a000000000000000000000000000000000000000000000000000000000815260040161115890612810565b60405180910390fd5b600061116b6109e7565b9050600061117885611574565b9050600061118585611574565b905061119583898985858961138d565b600080600088815260200190815260200160002060008a73ffffffffffffffffffffffffffffffffffffffff1673ffffffffffffffffffffffffffffffffffffffff1681526020019081526020016000205490508581101561122c576040517f08c379a0000000000000000000000000000000000000000000000000000000008152600401611223906128a2565b60405180910390fd5b85810360008089815260200190815260200160002060008b73ffffffffffffffffffffffffffffffffffffffff1673ffffffffffffffffffffffffffffffffffffffff168152602001908152602001600020819055508560008089815260200190815260200160002060008a73ffffffffffffffffffffffffffffffffffffffff1673ffffffffffffffffffffffffffffffffffffffff16815260200190815260200160002060008282546112e191906128c2565b925050819055508773ffffffffffffffffffffffffffffffffffffffff168973ffffffffffffffffffffffffffffffffffffffff168573ffffffffffffffffffffffffffffffffffffffff167fc3d58168c5ae7397731d063d5bbf3d657854427343f4c083240f7aacaa2d0f628a8a60405161135e9291906129e1565b60405180910390a4611374848a8a86868a611395565b611382848a8a8a8a8a6115ee565b505050505050505050565b505050505050565b505050505050565b6113bc8473ffffffffffffffffffffffffffffffffffffffff166117c5565b1561156c578373ffffffffffffffffffffffffffffffffffffffff1663bc197c8187878686866040518663ffffffff1660e01b8152600401611402959493929190612af1565b6020604051808303816000875af192505050801561143e57506040513d601f19601f8201168201806040525081019061143b9190612b6e565b60015b6114e35761144a612ba8565b806308c379a0036114a6575061145e612bca565b8061146957506114a8565b806040517f08c379a000000000000000000000000000000000000000000000000000000000815260040161149d9190611c9c565b60405180910390fd5b505b6040517f08c379a00000000000000000000000000000000000000000000000000000000081526004016114da90612ccc565b60405180910390fd5b63bc197c8160e01b7bffffffffffffffffffffffffffffffffffffffffffffffffffffffff1916817bffffffffffffffffffffffffffffffffffffffffffffffffffffffff19161461156a576040517f08c379a000000000000000000000000000000000000000000000000000000000815260040161156190612d5e565b60405180910390fd5b505b505050505050565b60606000600167ffffffffffffffff81111561159357611592611a73565b5b6040519080825280602002602001820160405280156115c15781602001602082028036833780820191505090505b50905082816000815181106115d9576115d8612539565b5b60200260200101818152505080915050919050565b61160d8473ffffffffffffffffffffffffffffffffffffffff166117c5565b156117bd578373ffffffffffffffffffffffffffffffffffffffff1663f23a6e6187878686866040518663ffffffff1660e01b8152600401611653959493929190612d7e565b6020604051808303816000875af192505050801561168f57506040513d601f19601f8201168201806040525081019061168c9190612b6e565b60015b6117345761169b612ba8565b806308c379a0036116f757506116af612bca565b806116ba57506116f9565b806040517f08c379a00000000000000000000000000000000000000000000000000000000081526004016116ee9190611c9c565b60405180910390fd5b505b6040517f08c379a000000000000000000000000000000000000000000000000000000000815260040161172b90612ccc565b60405180910390fd5b63f23a6e6160e01b7bffffffffffffffffffffffffffffffffffffffffffffffffffffffff1916817bffffffffffffffffffffffffffffffffffffffffffffffffffffffff1916146117bb576040517f08c379a00000000000000000000000000000000000000000000000000000000081526004016117b290612d5e565b60405180910390fd5b505b505050505050565b6000808273ffffffffffffffffffffffffffffffffffffffff163b119050919050565b8280546117f4906123e4565b90600052602060002090601f016020900481019282611816576000855561185d565b82601f1061182f57805160ff191683800117855561185d565b8280016001018555821561185d579182015b8281111561185c578251825591602001919060010190611841565b5b50905061186a919061186e565b5090565b5b8082111561188757600081600090555060010161186f565b5090565b6000604051905090565b600080fd5b600080fd5b600073ffffffffffffffffffffffffffffffffffffffff82169050919050565b60006118ca8261189f565b9050919050565b6118da816118bf565b81146118e557600080fd5b50565b6000813590506118f7816118d1565b92915050565b6000819050919050565b611910816118fd565b811461191b57600080fd5b50565b60008135905061192d81611907565b92915050565b6000806040838503121561194a57611949611895565b5b6000611958858286016118e8565b92505060206119698582860161191e565b9150509250929050565b61197c816118fd565b82525050565b60006020820190506119976000830184611973565b92915050565b60007fffffffff0000000000000000000000000000000000000000000000000000000082169050919050565b6119d28161199d565b81146119dd57600080fd5b50565b6000813590506119ef816119c9565b92915050565b600060208284031215611a0b57611a0a611895565b5b6000611a19848285016119e0565b91505092915050565b60008115159050919050565b611a3781611a22565b82525050565b6000602082019050611a526000830184611a2e565b92915050565b600080fd5b600080fd5b6000601f19601f8301169050919050565b7f4e487b7100000000000000000000000000000000000000000000000000000000600052604160045260246000fd5b611aab82611a62565b810181811067ffffffffffffffff82111715611aca57611ac9611a73565b5b80604052505050565b6000611add61188b565b9050611ae98282611aa2565b919050565b600067ffffffffffffffff821115611b0957611b08611a73565b5b611b1282611a62565b9050602081019050919050565b82818337600083830152505050565b6000611b41611b3c84611aee565b611ad3565b905082815260208101848484011115611b5d57611b5c611a5d565b5b611b68848285611b1f565b509392505050565b600082601f830112611b8557611b84611a58565b5b8135611b95848260208601611b2e565b91505092915050565b600060208284031215611bb457611bb3611895565b5b600082013567ffffffffffffffff811115611bd257611bd161189a565b5b611bde84828501611b70565b91505092915050565b600060208284031215611bfd57611bfc611895565b5b6000611c0b8482850161191e565b91505092915050565b600081519050919050565b600082825260208201905092915050565b60005b83811015611c4e578082015181840152602081019050611c33565b83811115611c5d576000848401525b50505050565b6000611c6e82611c14565b611c788185611c1f565b9350611c88818560208601611c30565b611c9181611a62565b840191505092915050565b60006020820190508181036000830152611cb68184611c63565b905092915050565b600067ffffffffffffffff821115611cd957611cd8611a73565b5b602082029050602081019050919050565b600080fd5b6000611d02611cfd84611cbe565b611ad3565b90508083825260208201905060208402830185811115611d2557611d24611cea565b5b835b81811015611d4e5780611d3a888261191e565b845260208401935050602081019050611d27565b5050509392505050565b600082601f830112611d6d57611d6c611a58565b5b8135611d7d848260208601611cef565b91505092915050565b600067ffffffffffffffff821115611da157611da0611a73565b5b611daa82611a62565b9050602081019050919050565b6000611dca611dc584611d86565b611ad3565b905082815260208101848484011115611de657611de5611a5d565b5b611df1848285611b1f565b509392505050565b600082601f830112611e0e57611e0d611a58565b5b8135611e1e848260208601611db7565b91505092915050565b600080600080600060a08688031215611e4357611e42611895565b5b6000611e51888289016118e8565b9550506020611e62888289016118e8565b945050604086013567ffffffffffffffff811115611e8357611e8261189a565b5b611e8f88828901611d58565b935050606086013567ffffffffffffffff811115611eb057611eaf61189a565b5b611ebc88828901611d58565b925050608086013567ffffffffffffffff811115611edd57611edc61189a565b5b611ee988828901611df9565b9150509295509295909350565b600067ffffffffffffffff821115611f1157611f10611a73565b5b602082029050602081019050919050565b6000611f35611f3084611ef6565b611ad3565b90508083825260208201905060208402830185811115611f5857611f57611cea565b5b835b81811015611f815780611f6d88826118e8565b845260208401935050602081019050611f5a565b5050509392505050565b600082601f830112611fa057611f9f611a58565b5b8135611fb0848260208601611f22565b91505092915050565b60008060408385031215611fd057611fcf611895565b5b600083013567ffffffffffffffff811115611fee57611fed61189a565b5b611ffa85828601611f8b565b925050602083013567ffffffffffffffff81111561201b5761201a61189a565b5b61202785828601611d58565b9150509250929050565b600081519050919050565b600082825260208201905092915050565b6000819050602082019050919050565b612066816118fd565b82525050565b6000612078838361205d565b60208301905092915050565b6000602082019050919050565b600061209c82612031565b6120a6818561203c565b93506120b18361204d565b8060005b838110156120e25781516120c9888261206c565b97506120d483612084565b9250506001810190506120b5565b5085935050505092915050565b600060208201905081810360008301526121098184612091565b905092915050565b6006811061211e57600080fd5b50565b60008135905061213081612111565b92915050565b60008060006060848603121561214f5761214e611895565b5b600061215d868287016118e8565b935050602061216e8682870161191e565b925050604061217f86828701612121565b9150509250925092565b612192816118bf565b82525050565b60006020820190506121ad6000830184612189565b92915050565b6121bc81611a22565b81146121c757600080fd5b50565b6000813590506121d9816121b3565b92915050565b600080604083850312156121f6576121f5611895565b5b6000612204858286016118e8565b9250506020612215858286016121ca565b9150509250929050565b6000806040838503121561223657612235611895565b5b6000612244858286016118e8565b9250506020612255858286016118e8565b9150509250929050565b600080600080600060a0868803121561227b5761227a611895565b5b6000612289888289016118e8565b955050602061229a888289016118e8565b94505060406122ab8882890161191e565b93505060606122bc8882890161191e565b925050608086013567ffffffffffffffff8111156122dd576122dc61189a565b5b6122e988828901611df9565b9150509295509295909350565b60006020828403121561230c5761230b611895565b5b600061231a848285016118e8565b91505092915050565b7f455243313135353a2061646472657373207a65726f206973206e6f742061207660008201527f616c6964206f776e657200000000000000000000000000000000000000000000602082015250565b600061237f602a83611c1f565b915061238a82612323565b604082019050919050565b600060208201905081810360008301526123ae81612372565b9050919050565b7f4e487b7100000000000000000000000000000000000000000000000000000000600052602260045260246000fd5b600060028204905060018216806123fc57607f821691505b60208210810361240f5761240e6123b5565b5b50919050565b7f455243313135353a2063616c6c6572206973206e6f7420746f6b656e206f776e60008201527f6572206f7220617070726f766564000000000000000000000000000000000000602082015250565b6000612471602e83611c1f565b915061247c82612415565b604082019050919050565b600060208201905081810360008301526124a081612464565b9050919050565b7f455243313135353a206163636f756e747320616e6420696473206c656e67746860008201527f206d69736d617463680000000000000000000000000000000000000000000000602082015250565b6000612503602983611c1f565b915061250e826124a7565b604082019050919050565b60006020820190508181036000830152612532816124f6565b9050919050565b7f4e487b7100000000000000000000000000000000000000000000000000000000600052603260045260246000fd5b7f4e487b7100000000000000000000000000000000000000000000000000000000600052601160045260246000fd5b60006125a2826118fd565b91507fffffffffffffffffffffffffffffffffffffffffffffffffffffffffffffffff82036125d4576125d3612568565b5b600182019050919050565b7f4e487b7100000000000000000000000000000000000000000000000000000000600052602160045260246000fd5b7f4f776e61626c653a206e6577206f776e657220697320746865207a65726f206160008201527f6464726573730000000000000000000000000000000000000000000000000000602082015250565b600061266a602683611c1f565b91506126758261260e565b604082019050919050565b600060208201905081810360008301526126998161265d565b9050919050565b7f4f776e61626c653a2063616c6c6572206973206e6f7420746865206f776e6572600082015250565b60006126d6602083611c1f565b91506126e1826126a0565b602082019050919050565b60006020820190508181036000830152612705816126c9565b9050919050565b7f455243313135353a2069647320616e6420616d6f756e7473206c656e6774682060008201527f6d69736d61746368000000000000000000000000000000000000000000000000602082015250565b6000612768602883611c1f565b91506127738261270c565b604082019050919050565b600060208201905081810360008301526127978161275b565b9050919050565b7f455243313135353a207472616e7366657220746f20746865207a65726f20616460008201527f6472657373000000000000000000000000000000000000000000000000000000602082015250565b60006127fa602583611c1f565b91506128058261279e565b604082019050919050565b60006020820190508181036000830152612829816127ed565b9050919050565b7f455243313135353a20696e73756666696369656e742062616c616e636520666f60008201527f72207472616e7366657200000000000000000000000000000000000000000000602082015250565b600061288c602a83611c1f565b915061289782612830565b604082019050919050565b600060208201905081810360008301526128bb8161287f565b9050919050565b60006128cd826118fd565b91506128d8836118fd565b9250827fffffffffffffffffffffffffffffffffffffffffffffffffffffffffffffffff0382111561290d5761290c612568565b5b828201905092915050565b600060408201905081810360008301526129328185612091565b905081810360208301526129468184612091565b90509392505050565b7f455243313135353a206d696e7420746f20746865207a65726f2061646472657360008201527f7300000000000000000000000000000000000000000000000000000000000000602082015250565b60006129ab602183611c1f565b91506129b68261294f565b604082019050919050565b600060208201905081810360008301526129da8161299e565b9050919050565b60006040820190506129f66000830185611973565b612a036020830184611973565b9392505050565b7f455243313135353a2073657474696e6720617070726f76616c2073746174757360008201527f20666f722073656c660000000000000000000000000000000000000000000000602082015250565b6000612a66602983611c1f565b9150612a7182612a0a565b604082019050919050565b60006020820190508181036000830152612a9581612a59565b9050919050565b600081519050919050565b600082825260208201905092915050565b6000612ac382612a9c565b612acd8185612aa7565b9350612add818560208601611c30565b612ae681611a62565b840191505092915050565b600060a082019050612b066000830188612189565b612b136020830187612189565b8181036040830152612b258186612091565b90508181036060830152612b398185612091565b90508181036080830152612b4d8184612ab8565b90509695505050505050565b600081519050612b68816119c9565b92915050565b600060208284031215612b8457612b83611895565b5b6000612b9284828501612b59565b91505092915050565b60008160e01c9050919050565b600060033d1115612bc75760046000803e612bc4600051612b9b565b90505b90565b600060443d10612c5757612bdc61188b565b60043d036004823e80513d602482011167ffffffffffffffff82111715612c04575050612c57565b808201805167ffffffffffffffff811115612c225750505050612c57565b80602083010160043d038501811115612c3f575050505050612c57565b612c4e82602001850186611aa2565b82955050505050505b90565b7f455243313135353a207472616e7366657220746f206e6f6e2d4552433131353560008201527f526563656976657220696d706c656d656e746572000000000000000000000000602082015250565b6000612cb6603483611c1f565b9150612cc182612c5a565b604082019050919050565b60006020820190508181036000830152612ce581612ca9565b9050919050565b7f455243313135353a204552433131353552656365697665722072656a6563746560008201527f6420746f6b656e73000000000000000000000000000000000000000000000000602082015250565b6000612d48602883611c1f565b9150612d5382612cec565b604082019050919050565b60006020820190508181036000830152612d7781612d3b565b9050919050565b600060a082019050612d936000830188612189565b612da06020830187612189565b612dad6040830186611973565b612dba6060830185611973565b8181036080830152612dcc8184612ab8565b9050969550505050505056fea2646970667358221220feff2bc3f08872b88033308334162e7f821ec79a02708af0e738839983b73e0464736f6c634300080d0033",
  "linkReferences": {},
  "deployedLinkReferences": {}
}