{
  "_format": "hh-sol-artifact-1",
  "contractName": "ChainLend",
  "sourceName": "contracts/reentrancy-3/ChainLend.sol",
  "abi": [
    {
      "inputs": [
        {
          "internalType": "address",
          "name": "_depositToken",
          "type": "address"
        },
        {
          "internalType": "address",
          "name": "_borrowToken",
          "type": "address"
        }
      ],
      "stateMutability": "nonpayable",
      "type": "constructor"
    },
    {
      "inputs": [
        {
          "internalType": "uint256",
          "name": "amount",
          "type": "uint256"
        }
      ],
      "name": "borrow",
      "outputs": [],
      "stateMutability": "nonpayable",
      "type": "function"
    },
    {
      "inputs": [],
      "name": "borrowToken",
      "outputs": [
        {
          "internalType": "contract IERC20",
          "name": "",
          "type": "address"
        }
      ],
      "stateMutability": "view",
      "type": "function"
    },
    {
      "inputs": [
        {
          "internalType": "address",
          "name": "",
          "type": "address"
        }
      ],
      "name": "debt",
      "outputs": [
        {
          "internalType": "uint256",
          "name": "",
          "type": "uint256"
        }
      ],
      "stateMutability": "view",
      "type": "function"
    },
    {
      "inputs": [
        {
          "internalType": "uint256",
          "name": "amount",
          "type": "uint256"
        }
      ],
      "name": "deposit",
      "outputs": [],
      "stateMutability": "nonpayable",
      "type": "function"
    },
    {
      "inputs": [],
      "name": "depositToken",
      "outputs": [
        {
          "internalType": "contract IERC20",
          "name": "",
          "type": "address"
        }
      ],
      "stateMutability": "view",
      "type": "function"
    },
    {
      "inputs": [
        {
          "internalType": "address",
          "name": "",
          "type": "address"
        }
      ],
      "name": "deposits",
      "outputs": [
        {
          "internalType": "uint256",
          "name": "",
          "type": "uint256"
        }
      ],
      "stateMutability": "view",
      "type": "function"
    },
    {
      "inputs": [
        {
          "internalType": "uint256",
          "name": "amount",
          "type": "uint256"
        }
      ],
      "name": "repay",
      "outputs": [],
      "stateMutability": "nonpayable",
      "type": "function"
    },
    {
      "inputs": [
        {
          "internalType": "uint256",
          "name": "amount",
          "type": "uint256"
        }
      ],
      "name": "withdraw",
      "outputs": [],
      "stateMutability": "nonpayable",
      "type": "function"
    }
  ],
  "bytecode": "0x60806040523480156200001157600080fd5b50604051620012473803806200124783398181016040528101906200003791906200012a565b816000806101000a81548173ffffffffffffffffffffffffffffffffffffffff021916908373ffffffffffffffffffffffffffffffffffffffff16021790555080600160006101000a81548173ffffffffffffffffffffffffffffffffffffffff021916908373ffffffffffffffffffffffffffffffffffffffff160217905550505062000171565b600080fd5b600073ffffffffffffffffffffffffffffffffffffffff82169050919050565b6000620000f282620000c5565b9050919050565b6200010481620000e5565b81146200011057600080fd5b50565b6000815190506200012481620000f9565b92915050565b60008060408385031215620001445762000143620000c0565b5b6000620001548582860162000113565b9250506020620001678582860162000113565b9150509250929050565b6110c680620001816000396000f3fe608060405234801561001057600080fd5b50600436106100885760003560e01c8063b6b55f251161005b578063b6b55f2514610113578063c5ebeaec1461012f578063c89039c51461014b578063fc7e286d1461016957610088565b80632e1a7d4d1461008d578063371fd8e6146100a9578063456dc17a146100c55780639b6c56ec146100e3575b600080fd5b6100a760048036038101906100a291906109e2565b610199565b005b6100c360048036038101906100be91906109e2565b610395565b005b6100cd610595565b6040516100da9190610a8e565b60405180910390f35b6100fd60048036038101906100f89190610ae7565b6105bb565b60405161010a9190610b23565b60405180910390f35b61012d600480360381019061012891906109e2565b6105d3565b005b610149600480360381019061014491906109e2565b61070b565b005b61015361096b565b6040516101609190610a8e565b60405180910390f35b610183600480360381019061017e9190610ae7565b61098f565b6040516101909190610b23565b60405180910390f35b6000600260003373ffffffffffffffffffffffffffffffffffffffff1673ffffffffffffffffffffffffffffffffffffffff1681526020019081526020016000205490506000600360003373ffffffffffffffffffffffffffffffffffffffff1673ffffffffffffffffffffffffffffffffffffffff168152602001908152602001600020541115610260576040517f08c379a000000000000000000000000000000000000000000000000000000000815260040161025790610bc1565b60405180910390fd5b808211156102a3576040517f08c379a000000000000000000000000000000000000000000000000000000000815260040161029a90610c2d565b60405180910390fd5b81816102af9190610c7c565b600260003373ffffffffffffffffffffffffffffffffffffffff1673ffffffffffffffffffffffffffffffffffffffff1681526020019081526020016000208190555060008054906101000a900473ffffffffffffffffffffffffffffffffffffffff1673ffffffffffffffffffffffffffffffffffffffff1663a9059cbb33846040518363ffffffff1660e01b815260040161034d929190610cbf565b6020604051808303816000875af115801561036c573d6000803e3d6000fd5b505050506040513d601f19601f820116820180604052508101906103909190610d20565b505050565b6000600360003373ffffffffffffffffffffffffffffffffffffffff1673ffffffffffffffffffffffffffffffffffffffff1681526020019081526020016000205411610417576040517f08c379a000000000000000000000000000000000000000000000000000000000815260040161040e90610d99565b60405180910390fd5b600360003373ffffffffffffffffffffffffffffffffffffffff1673ffffffffffffffffffffffffffffffffffffffff16815260200190815260200160002054811115610499576040517f08c379a000000000000000000000000000000000000000000000000000000000815260040161049090610e2b565b60405180910390fd5b600160009054906101000a900473ffffffffffffffffffffffffffffffffffffffff1673ffffffffffffffffffffffffffffffffffffffff166323b872dd3330846040518463ffffffff1660e01b81526004016104f893929190610e4b565b6020604051808303816000875af1158015610517573d6000803e3d6000fd5b505050506040513d601f19601f8201168201806040525081019061053b9190610d20565b5080600360003373ffffffffffffffffffffffffffffffffffffffff1673ffffffffffffffffffffffffffffffffffffffff168152602001908152602001600020600082825461058b9190610c7c565b9250508190555050565b600160009054906101000a900473ffffffffffffffffffffffffffffffffffffffff1681565b60036020528060005260406000206000915090505481565b6000600260003373ffffffffffffffffffffffffffffffffffffffff1673ffffffffffffffffffffffffffffffffffffffff16815260200190815260200160002054905060008054906101000a900473ffffffffffffffffffffffffffffffffffffffff1673ffffffffffffffffffffffffffffffffffffffff166323b872dd3330856040518463ffffffff1660e01b815260040161067493929190610e4b565b6020604051808303816000875af1158015610693573d6000803e3d6000fd5b505050506040513d601f19601f820116820180604052508101906106b79190610d20565b5081816106c49190610e82565b600260003373ffffffffffffffffffffffffffffffffffffffff1673ffffffffffffffffffffffffffffffffffffffff168152602001908152602001600020819055505050565b6000600260003373ffffffffffffffffffffffffffffffffffffffff1673ffffffffffffffffffffffffffffffffffffffff1681526020019081526020016000205490506000600360003373ffffffffffffffffffffffffffffffffffffffff1673ffffffffffffffffffffffffffffffffffffffff168152602001908152602001600020549050600082116107d6576040517f08c379a00000000000000000000000000000000000000000000000000000000081526004016107cd90610f4a565b60405180910390fd5b60006305f5e100620f4240614e20856107ef9190610f6a565b6107f99190610f6a565b6108039190610ff3565b90508160646050836108159190610f6a565b61081f9190610ff3565b6108299190610c7c565b90508084111561086e576040517f08c379a000000000000000000000000000000000000000000000000000000000815260040161086590611070565b60405180910390fd5b83600360003373ffffffffffffffffffffffffffffffffffffffff1673ffffffffffffffffffffffffffffffffffffffff16815260200190815260200160002060008282546108bd9190610e82565b92505081905550600160009054906101000a900473ffffffffffffffffffffffffffffffffffffffff1673ffffffffffffffffffffffffffffffffffffffff1663a9059cbb33866040518363ffffffff1660e01b8152600401610921929190610cbf565b6020604051808303816000875af1158015610940573d6000803e3d6000fd5b505050506040513d601f19601f820116820180604052508101906109649190610d20565b5050505050565b60008054906101000a900473ffffffffffffffffffffffffffffffffffffffff1681565b60026020528060005260406000206000915090505481565b600080fd5b6000819050919050565b6109bf816109ac565b81146109ca57600080fd5b50565b6000813590506109dc816109b6565b92915050565b6000602082840312156109f8576109f76109a7565b5b6000610a06848285016109cd565b91505092915050565b600073ffffffffffffffffffffffffffffffffffffffff82169050919050565b6000819050919050565b6000610a54610a4f610a4a84610a0f565b610a2f565b610a0f565b9050919050565b6000610a6682610a39565b9050919050565b6000610a7882610a5b565b9050919050565b610a8881610a6d565b82525050565b6000602082019050610aa36000830184610a7f565b92915050565b6000610ab482610a0f565b9050919050565b610ac481610aa9565b8114610acf57600080fd5b50565b600081359050610ae181610abb565b92915050565b600060208284031215610afd57610afc6109a7565b5b6000610b0b84828501610ad2565b91505092915050565b610b1d816109ac565b82525050565b6000602082019050610b386000830184610b14565b92915050565b600082825260208201905092915050565b7f506c6561736520636c65617220796f7572206465627420746f2057697468647260008201527f617720436f6c6c61746572616c00000000000000000000000000000000000000602082015250565b6000610bab602d83610b3e565b9150610bb682610b4f565b604082019050919050565b60006020820190508181036000830152610bda81610b9e565b9050919050565b7f5769746864726177204c696d6974204578636565646564000000000000000000600082015250565b6000610c17601783610b3e565b9150610c2282610be1565b602082019050919050565b60006020820190508181036000830152610c4681610c0a565b9050919050565b7f4e487b7100000000000000000000000000000000000000000000000000000000600052601160045260246000fd5b6000610c87826109ac565b9150610c92836109ac565b925082821015610ca557610ca4610c4d565b5b828203905092915050565b610cb981610aa9565b82525050565b6000604082019050610cd46000830185610cb0565b610ce16020830184610b14565b9392505050565b60008115159050919050565b610cfd81610ce8565b8114610d0857600080fd5b50565b600081519050610d1a81610cf4565b92915050565b600060208284031215610d3657610d356109a7565b5b6000610d4484828501610d0b565b91505092915050565b7f596f7520646f6e2774206861766520616e792064656274000000000000000000600082015250565b6000610d83601783610b3e565b9150610d8e82610d4d565b602082019050919050565b60006020820190508181036000830152610db281610d76565b9050919050565b7f416d6f756e7420746f20686967682120596f7520646f6e27742068617665207460008201527f686174206d756368206465627400000000000000000000000000000000000000602082015250565b6000610e15602d83610b3e565b9150610e2082610db9565b604082019050919050565b60006020820190508181036000830152610e4481610e08565b9050919050565b6000606082019050610e606000830186610cb0565b610e6d6020830185610cb0565b610e7a6040830184610b14565b949350505050565b6000610e8d826109ac565b9150610e98836109ac565b9250827fffffffffffffffffffffffffffffffffffffffffffffffffffffffffffffffff03821115610ecd57610ecc610c4d565b5b828201905092915050565b7f596f75206e65656420746f206465706f736974206265666f726520626f72726f60008201527f77696e6700000000000000000000000000000000000000000000000000000000602082015250565b6000610f34602483610b3e565b9150610f3f82610ed8565b604082019050919050565b60006020820190508181036000830152610f6381610f27565b9050919050565b6000610f75826109ac565b9150610f80836109ac565b9250817fffffffffffffffffffffffffffffffffffffffffffffffffffffffffffffffff0483118215151615610fb957610fb8610c4d565b5b828202905092915050565b7f4e487b7100000000000000000000000000000000000000000000000000000000600052601260045260246000fd5b6000610ffe826109ac565b9150611009836109ac565b92508261101957611018610fc4565b5b828204905092915050565b7f426f72726f774c696d6974204578636565646564000000000000000000000000600082015250565b600061105a601483610b3e565b915061106582611024565b602082019050919050565b600060208201905081810360008301526110898161104d565b905091905056fea26469706673582212202410d5ca6ea64ae690c03299e2e525945a375801ec283f16411debc94a63db1964736f6c634300080d0033",
  "linkReferences": {},
  "deployedLinkReferences": {}
}