{
  "_format": "hh-sol-artifact-1",
  "contractName": "ApesAirdrop",
  "sourceName": "contracts/reentrancy-2/ApesAirdrop.sol",
  "abi": [
    {
      "inputs": [],
      "stateMutability": "nonpayable",
      "type": "constructor"
    },
    {
      "anonymous": false,
      "inputs": [
        {
          "indexed": false,
          "internalType": "address",
          "name": "eligableAddress",
          "type": "address"
        }
      ],
      "name": "AddedToWhitelist",
      "type": "event"
    },
    {
      "anonymous": false,
      "inputs": [
        {
          "indexed": true,
          "internalType": "address",
          "name": "owner",
          "type": "address"
        },
        {
          "indexed": true,
          "internalType": "address",
          "name": "approved",
          "type": "address"
        },
        {
          "indexed": true,
          "internalType": "uint256",
          "name": "tokenId",
          "type": "uint256"
        }
      ],
      "name": "Approval",
      "type": "event"
    },
    {
      "anonymous": false,
      "inputs": [
        {
          "indexed": true,
          "internalType": "address",
          "name": "owner",
          "type": "address"
        },
        {
          "indexed": true,
          "internalType": "address",
          "name": "operator",
          "type": "address"
        },
        {
          "indexed": false,
          "internalType": "bool",
          "name": "approved",
          "type": "bool"
        }
      ],
      "name": "ApprovalForAll",
      "type": "event"
    },
    {
      "anonymous": false,
      "inputs": [
        {
          "indexed": false,
          "internalType": "address",
          "name": "eligableAddress",
          "type": "address"
        },
        {
          "indexed": false,
          "internalType": "uint256",
          "name": "tokenId",
          "type": "uint256"
        }
      ],
      "name": "Minted",
      "type": "event"
    },
    {
      "anonymous": false,
      "inputs": [
        {
          "indexed": false,
          "internalType": "address",
          "name": "from",
          "type": "address"
        },
        {
          "indexed": false,
          "internalType": "address",
          "name": "to",
          "type": "address"
        }
      ],
      "name": "SpotGranted",
      "type": "event"
    },
    {
      "anonymous": false,
      "inputs": [
        {
          "indexed": true,
          "internalType": "address",
          "name": "from",
          "type": "address"
        },
        {
          "indexed": true,
          "internalType": "address",
          "name": "to",
          "type": "address"
        },
        {
          "indexed": true,
          "internalType": "uint256",
          "name": "tokenId",
          "type": "uint256"
        }
      ],
      "name": "Transfer",
      "type": "event"
    },
    {
      "inputs": [
        {
          "internalType": "address[]",
          "name": "toAdd",
          "type": "address[]"
        }
      ],
      "name": "addToWhitelist",
      "outputs": [],
      "stateMutability": "nonpayable",
      "type": "function"
    },
    {
      "inputs": [
        {
          "internalType": "address",
          "name": "to",
          "type": "address"
        },
        {
          "internalType": "uint256",
          "name": "tokenId",
          "type": "uint256"
        }
      ],
      "name": "approve",
      "outputs": [],
      "stateMutability": "nonpayable",
      "type": "function"
    },
    {
      "inputs": [
        {
          "internalType": "address",
          "name": "owner",
          "type": "address"
        }
      ],
      "name": "balanceOf",
      "outputs": [
        {
          "internalType": "uint256",
          "name": "",
          "type": "uint256"
        }
      ],
      "stateMutability": "view",
      "type": "function"
    },
    {
      "inputs": [
        {
          "internalType": "uint256",
          "name": "tokenId",
          "type": "uint256"
        }
      ],
      "name": "getApproved",
      "outputs": [
        {
          "internalType": "address",
          "name": "",
          "type": "address"
        }
      ],
      "stateMutability": "view",
      "type": "function"
    },
    {
      "inputs": [
        {
          "internalType": "address",
          "name": "to",
          "type": "address"
        }
      ],
      "name": "grantMyWhitelist",
      "outputs": [],
      "stateMutability": "nonpayable",
      "type": "function"
    },
    {
      "inputs": [
        {
          "internalType": "address",
          "name": "owner",
          "type": "address"
        },
        {
          "internalType": "address",
          "name": "operator",
          "type": "address"
        }
      ],
      "name": "isApprovedForAll",
      "outputs": [
        {
          "internalType": "bool",
          "name": "",
          "type": "bool"
        }
      ],
      "stateMutability": "view",
      "type": "function"
    },
    {
      "inputs": [
        {
          "internalType": "address",
          "name": "addr",
          "type": "address"
        }
      ],
      "name": "isWhitelisted",
      "outputs": [
        {
          "internalType": "bool",
          "name": "",
          "type": "bool"
        }
      ],
      "stateMutability": "view",
      "type": "function"
    },
    {
      "inputs": [],
      "name": "maxSupply",
      "outputs": [
        {
          "internalType": "uint16",
          "name": "",
          "type": "uint16"
        }
      ],
      "stateMutability": "view",
      "type": "function"
    },
    {
      "inputs": [],
      "name": "mint",
      "outputs": [
        {
          "internalType": "uint16",
          "name": "",
          "type": "uint16"
        }
      ],
      "stateMutability": "nonpayable",
      "type": "function"
    },
    {
      "inputs": [],
      "name": "name",
      "outputs": [
        {
          "internalType": "string",
          "name": "",
          "type": "string"
        }
      ],
      "stateMutability": "view",
      "type": "function"
    },
    {
      "inputs": [],
      "name": "owner",
      "outputs": [
        {
          "internalType": "address",
          "name": "",
          "type": "address"
        }
      ],
      "stateMutability": "view",
      "type": "function"
    },
    {
      "inputs": [
        {
          "internalType": "uint256",
          "name": "tokenId",
          "type": "uint256"
        }
      ],
      "name": "ownerOf",
      "outputs": [
        {
          "internalType": "address",
          "name": "",
          "type": "address"
        }
      ],
      "stateMutability": "view",
      "type": "function"
    },
    {
      "inputs": [
        {
          "internalType": "address",
          "name": "from",
          "type": "address"
        },
        {
          "internalType": "address",
          "name": "to",
          "type": "address"
        },
        {
          "internalType": "uint256",
          "name": "tokenId",
          "type": "uint256"
        }
      ],
      "name": "safeTransferFrom",
      "outputs": [],
      "stateMutability": "nonpayable",
      "type": "function"
    },
    {
      "inputs": [
        {
          "internalType": "address",
          "name": "from",
          "type": "address"
        },
        {
          "internalType": "address",
          "name": "to",
          "type": "address"
        },
        {
          "internalType": "uint256",
          "name": "tokenId",
          "type": "uint256"
        },
        {
          "internalType": "bytes",
          "name": "data",
          "type": "bytes"
        }
      ],
      "name": "safeTransferFrom",
      "outputs": [],
      "stateMutability": "nonpayable",
      "type": "function"
    },
    {
      "inputs": [
        {
          "internalType": "address",
          "name": "operator",
          "type": "address"
        },
        {
          "internalType": "bool",
          "name": "approved",
          "type": "bool"
        }
      ],
      "name": "setApprovalForAll",
      "outputs": [],
      "stateMutability": "nonpayable",
      "type": "function"
    },
    {
      "inputs": [
        {
          "internalType": "bytes4",
          "name": "interfaceId",
          "type": "bytes4"
        }
      ],
      "name": "supportsInterface",
      "outputs": [
        {
          "internalType": "bool",
          "name": "",
          "type": "bool"
        }
      ],
      "stateMutability": "view",
      "type": "function"
    },
    {
      "inputs": [],
      "name": "symbol",
      "outputs": [
        {
          "internalType": "string",
          "name": "",
          "type": "string"
        }
      ],
      "stateMutability": "view",
      "type": "function"
    },
    {
      "inputs": [
        {
          "internalType": "uint256",
          "name": "tokenId",
          "type": "uint256"
        }
      ],
      "name": "tokenURI",
      "outputs": [
        {
          "internalType": "string",
          "name": "",
          "type": "string"
        }
      ],
      "stateMutability": "view",
      "type": "function"
    },
    {
      "inputs": [
        {
          "internalType": "address",
          "name": "from",
          "type": "address"
        },
        {
          "internalType": "address",
          "name": "to",
          "type": "address"
        },
        {
          "internalType": "uint256",
          "name": "tokenId",
          "type": "uint256"
        }
      ],
      "name": "transferFrom",
      "outputs": [],
      "stateMutability": "nonpayable",
      "type": "function"
    }
  ],
  "bytecode": "0x60806040526032600760146101000a81548161ffff021916908361ffff1602179055503480156200002f57600080fd5b506040518060400160405280600a81526020017f4372617a792041706573000000000000000000000000000000000000000000008152506040518060400160405280600381526020017f41504500000000000000000000000000000000000000000000000000000000008152508160009080519060200190620000b492919062000144565b508060019080519060200190620000cd92919062000144565b50505033600760006101000a81548173ffffffffffffffffffffffffffffffffffffffff021916908373ffffffffffffffffffffffffffffffffffffffff1602179055506200012860066200012e60201b6200115c1760201c565b62000258565b6001816000016000828254019250508190555050565b828054620001529062000223565b90600052602060002090601f016020900481019282620001765760008555620001c2565b82601f106200019157805160ff1916838001178555620001c2565b82800160010185558215620001c2579182015b82811115620001c1578251825591602001919060010190620001a4565b5b509050620001d19190620001d5565b5090565b5b80821115620001f0576000816000905550600101620001d6565b5090565b7f4e487b7100000000000000000000000000000000000000000000000000000000600052602260045260246000fd5b600060028204905060018216806200023c57607f821691505b602082108103620002525762000251620001f4565b5b50919050565b61344d80620002686000396000f3fe608060405234801561001057600080fd5b50600436106101215760003560e01c80636352211e116100ad578063a22cb46511610071578063a22cb4651461031a578063b88d4fde14610336578063c87b56dd14610352578063d5abeb0114610382578063e985e9c5146103a057610121565b80636352211e1461026257806370a08231146102925780637f649783146102c25780638da5cb5b146102de57806395d89b41146102fc57610121565b80631249c58b116100f45780631249c58b146101c057806323b872dd146101de578063315bb975146101fa5780633af32abf1461021657806342842e0e1461024657610121565b806301ffc9a71461012657806306fdde0314610156578063081812fc14610174578063095ea7b3146101a4575b600080fd5b610140600480360381019061013b91906120da565b6103d0565b60405161014d9190612122565b60405180910390f35b61015e6104b2565b60405161016b91906121d6565b60405180910390f35b61018e6004803603810190610189919061222e565b610544565b60405161019b919061229c565b60405180910390f35b6101be60048036038101906101b991906122e3565b61058a565b005b6101c86106a1565b6040516101d59190612340565b60405180910390f35b6101f860048036038101906101f3919061235b565b610891565b005b610214600480360381019061020f91906123ae565b6108f1565b005b610230600480360381019061022b91906123ae565b610b6a565b60405161023d9190612122565b60405180910390f35b610260600480360381019061025b919061235b565b610bc0565b005b61027c6004803603810190610277919061222e565b610be0565b604051610289919061229c565b60405180910390f35b6102ac60048036038101906102a791906123ae565b610c66565b6040516102b991906123ea565b60405180910390f35b6102dc60048036038101906102d7919061254d565b610d1d565b005b6102e6610f1c565b6040516102f3919061229c565b60405180910390f35b610304610f42565b60405161031191906121d6565b60405180910390f35b610334600480360381019061032f91906125c2565b610fd4565b005b610350600480360381019061034b91906126b7565b610fea565b005b61036c6004803603810190610367919061222e565b61104c565b60405161037991906121d6565b60405180910390f35b61038a6110b4565b6040516103979190612340565b60405180910390f35b6103ba60048036038101906103b5919061273a565b6110c8565b6040516103c79190612122565b60405180910390f35b60007f80ac58cd000000000000000000000000000000000000000000000000000000007bffffffffffffffffffffffffffffffffffffffffffffffffffffffff1916827bffffffffffffffffffffffffffffffffffffffffffffffffffffffff1916148061049b57507f5b5e139f000000000000000000000000000000000000000000000000000000007bffffffffffffffffffffffffffffffffffffffffffffffffffffffff1916827bffffffffffffffffffffffffffffffffffffffffffffffffffffffff1916145b806104ab57506104aa82611172565b5b9050919050565b6060600080546104c1906127a9565b80601f01602080910402602001604051908101604052809291908181526020018280546104ed906127a9565b801561053a5780601f1061050f5761010080835404028352916020019161053a565b820191906000526020600020905b81548152906001019060200180831161051d57829003601f168201915b5050505050905090565b600061054f826111dc565b6004600083815260200190815260200160002060009054906101000a900473ffffffffffffffffffffffffffffffffffffffff169050919050565b600061059582610be0565b90508073ffffffffffffffffffffffffffffffffffffffff168373ffffffffffffffffffffffffffffffffffffffff1603610605576040517f08c379a00000000000000000000000000000000000000000000000000000000081526004016105fc9061284c565b60405180910390fd5b8073ffffffffffffffffffffffffffffffffffffffff16610624611227565b73ffffffffffffffffffffffffffffffffffffffff16148061065357506106528161064d611227565b6110c8565b5b610692576040517f08c379a0000000000000000000000000000000000000000000000000000000008152600401610689906128de565b60405180910390fd5b61069c838361122f565b505050565b60006106ac33610b6a565b6106eb576040517f08c379a00000000000000000000000000000000000000000000000000000000081526004016106e29061294a565b60405180910390fd5b600860003373ffffffffffffffffffffffffffffffffffffffff1673ffffffffffffffffffffffffffffffffffffffff16815260200190815260200160002060009054906101000a900460ff1615610778576040517f08c379a000000000000000000000000000000000000000000000000000000000815260040161076f906129b6565b60405180910390fd5b600061078460066112e8565b9050600760149054906101000a900461ffff1661ffff168161ffff1611156107e1576040517f08c379a00000000000000000000000000000000000000000000000000000000081526004016107d890612a22565b60405180910390fd5b6107eb600661115c565b6107f9338261ffff166112f6565b7f30385c845b448a36257a6a1716e6ad2e1bc2cbe333cde1e69fe849ad6511adfe338260405161082a929190612a7d565b60405180910390a16001600860003373ffffffffffffffffffffffffffffffffffffffff1673ffffffffffffffffffffffffffffffffffffffff16815260200190815260200160002060006101000a81548160ff0219169083151502179055508091505090565b6108a261089c611227565b82611314565b6108e1576040517f08c379a00000000000000000000000000000000000000000000000000000000081526004016108d890612b18565b60405180910390fd5b6108ec8383836113a9565b505050565b600073ffffffffffffffffffffffffffffffffffffffff168173ffffffffffffffffffffffffffffffffffffffff1603610960576040517f08c379a000000000000000000000000000000000000000000000000000000000815260040161095790612b84565b60405180910390fd5b61096933610b6a565b6109a8576040517f08c379a000000000000000000000000000000000000000000000000000000000815260040161099f90612bf0565b60405180910390fd5b600860003373ffffffffffffffffffffffffffffffffffffffff1673ffffffffffffffffffffffffffffffffffffffff16815260200190815260200160002060009054906101000a900460ff1615610a35576040517f08c379a0000000000000000000000000000000000000000000000000000000008152600401610a2c90612c5c565b60405180910390fd5b610a3e81610b6a565b15610a7e576040517f08c379a0000000000000000000000000000000000000000000000000000000008152600401610a7590612cc8565b60405180910390fd5b6000600960003373ffffffffffffffffffffffffffffffffffffffff1673ffffffffffffffffffffffffffffffffffffffff16815260200190815260200160002060006101000a81548160ff0219169083151502179055506001600960008373ffffffffffffffffffffffffffffffffffffffff1673ffffffffffffffffffffffffffffffffffffffff16815260200190815260200160002060006101000a81548160ff0219169083151502179055507f044fd468e3215b5fa37a71dcf0cfc4462b9b65ea86da17b7f32648164bc957283382604051610b5f929190612ce8565b60405180910390a150565b6000600960008373ffffffffffffffffffffffffffffffffffffffff1673ffffffffffffffffffffffffffffffffffffffff16815260200190815260200160002060009054906101000a900460ff169050919050565b610bdb83838360405180602001604052806000815250610fea565b505050565b600080610bec836116a2565b9050600073ffffffffffffffffffffffffffffffffffffffff168173ffffffffffffffffffffffffffffffffffffffff1603610c5d576040517f08c379a0000000000000000000000000000000000000000000000000000000008152600401610c5490612d5d565b60405180910390fd5b80915050919050565b60008073ffffffffffffffffffffffffffffffffffffffff168273ffffffffffffffffffffffffffffffffffffffff1603610cd6576040517f08c379a0000000000000000000000000000000000000000000000000000000008152600401610ccd90612def565b60405180910390fd5b600360008373ffffffffffffffffffffffffffffffffffffffff1673ffffffffffffffffffffffffffffffffffffffff168152602001908152602001600020549050919050565b600760009054906101000a900473ffffffffffffffffffffffffffffffffffffffff1673ffffffffffffffffffffffffffffffffffffffff163373ffffffffffffffffffffffffffffffffffffffff1614610dad576040517f08c379a0000000000000000000000000000000000000000000000000000000008152600401610da490612e5b565b60405180910390fd5b60005b8151811015610f1857600073ffffffffffffffffffffffffffffffffffffffff16828281518110610de457610de3612e7b565b5b602002602001015173ffffffffffffffffffffffffffffffffffffffff1603610e42576040517f08c379a0000000000000000000000000000000000000000000000000000000008152600401610e3990612b84565b60405180910390fd5b600160096000848481518110610e5b57610e5a612e7b565b5b602002602001015173ffffffffffffffffffffffffffffffffffffffff1673ffffffffffffffffffffffffffffffffffffffff16815260200190815260200160002060006101000a81548160ff0219169083151502179055507fa850ae9193f515cbae8d35e8925bd2be26627fc91bce650b8652ed254e9cab03828281518110610ee857610ee7612e7b565b5b6020026020010151604051610efd919061229c565b60405180910390a18080610f1090612ed9565b915050610db0565b5050565b600760009054906101000a900473ffffffffffffffffffffffffffffffffffffffff1681565b606060018054610f51906127a9565b80601f0160208091040260200160405190810160405280929190818152602001828054610f7d906127a9565b8015610fca5780601f10610f9f57610100808354040283529160200191610fca565b820191906000526020600020905b815481529060010190602001808311610fad57829003601f168201915b5050505050905090565b610fe6610fdf611227565b83836116df565b5050565b610ffb610ff5611227565b83611314565b61103a576040517f08c379a000000000000000000000000000000000000000000000000000000000815260040161103190612b18565b60405180910390fd5b6110468484848461184b565b50505050565b6060611057826111dc565b60006110616118a7565b9050600081511161108157604051806020016040528060008152506110ac565b8061108b846118be565b60405160200161109c929190612f5d565b6040516020818303038152906040525b915050919050565b600760149054906101000a900461ffff1681565b6000600560008473ffffffffffffffffffffffffffffffffffffffff1673ffffffffffffffffffffffffffffffffffffffff16815260200190815260200160002060008373ffffffffffffffffffffffffffffffffffffffff1673ffffffffffffffffffffffffffffffffffffffff16815260200190815260200160002060009054906101000a900460ff16905092915050565b6001816000016000828254019250508190555050565b60007f01ffc9a7000000000000000000000000000000000000000000000000000000007bffffffffffffffffffffffffffffffffffffffffffffffffffffffff1916827bffffffffffffffffffffffffffffffffffffffffffffffffffffffff1916149050919050565b6111e58161198c565b611224576040517f08c379a000000000000000000000000000000000000000000000000000000000815260040161121b90612d5d565b60405180910390fd5b50565b600033905090565b816004600083815260200190815260200160002060006101000a81548173ffffffffffffffffffffffffffffffffffffffff021916908373ffffffffffffffffffffffffffffffffffffffff160217905550808273ffffffffffffffffffffffffffffffffffffffff166112a283610be0565b73ffffffffffffffffffffffffffffffffffffffff167f8c5be1e5ebec7d5bd14f71427d1e84f3dd0314c0f7b2291e5b200ac8c7c3b92560405160405180910390a45050565b600081600001549050919050565b6113108282604051806020016040528060008152506119cd565b5050565b60008061132083610be0565b90508073ffffffffffffffffffffffffffffffffffffffff168473ffffffffffffffffffffffffffffffffffffffff161480611362575061136181856110c8565b5b806113a057508373ffffffffffffffffffffffffffffffffffffffff1661138884610544565b73ffffffffffffffffffffffffffffffffffffffff16145b91505092915050565b8273ffffffffffffffffffffffffffffffffffffffff166113c982610be0565b73ffffffffffffffffffffffffffffffffffffffff161461141f576040517f08c379a000000000000000000000000000000000000000000000000000000000815260040161141690612ff3565b60405180910390fd5b600073ffffffffffffffffffffffffffffffffffffffff168273ffffffffffffffffffffffffffffffffffffffff160361148e576040517f08c379a000000000000000000000000000000000000000000000000000000000815260040161148590613085565b60405180910390fd5b61149b8383836001611a28565b8273ffffffffffffffffffffffffffffffffffffffff166114bb82610be0565b73ffffffffffffffffffffffffffffffffffffffff1614611511576040517f08c379a000000000000000000000000000000000000000000000000000000000815260040161150890612ff3565b60405180910390fd5b6004600082815260200190815260200160002060006101000a81549073ffffffffffffffffffffffffffffffffffffffff02191690556001600360008573ffffffffffffffffffffffffffffffffffffffff1673ffffffffffffffffffffffffffffffffffffffff168152602001908152602001600020600082825403925050819055506001600360008473ffffffffffffffffffffffffffffffffffffffff1673ffffffffffffffffffffffffffffffffffffffff16815260200190815260200160002060008282540192505081905550816002600083815260200190815260200160002060006101000a81548173ffffffffffffffffffffffffffffffffffffffff021916908373ffffffffffffffffffffffffffffffffffffffff160217905550808273ffffffffffffffffffffffffffffffffffffffff168473ffffffffffffffffffffffffffffffffffffffff167fddf252ad1be2c89b69c2b068fc378daa952ba7f163c4a11628f55a4df523b3ef60405160405180910390a461169d8383836001611b4e565b505050565b60006002600083815260200190815260200160002060009054906101000a900473ffffffffffffffffffffffffffffffffffffffff169050919050565b8173ffffffffffffffffffffffffffffffffffffffff168373ffffffffffffffffffffffffffffffffffffffff160361174d576040517f08c379a0000000000000000000000000000000000000000000000000000000008152600401611744906130f1565b60405180910390fd5b80600560008573ffffffffffffffffffffffffffffffffffffffff1673ffffffffffffffffffffffffffffffffffffffff16815260200190815260200160002060008473ffffffffffffffffffffffffffffffffffffffff1673ffffffffffffffffffffffffffffffffffffffff16815260200190815260200160002060006101000a81548160ff0219169083151502179055508173ffffffffffffffffffffffffffffffffffffffff168373ffffffffffffffffffffffffffffffffffffffff167f17307eab39ab6107e8899845ad3d59bd9653f200f220920489ca2b5937696c318360405161183e9190612122565b60405180910390a3505050565b6118568484846113a9565b61186284848484611b54565b6118a1576040517f08c379a000000000000000000000000000000000000000000000000000000000815260040161189890613183565b60405180910390fd5b50505050565b606060405180602001604052806000815250905090565b6060600060016118cd84611cdb565b01905060008167ffffffffffffffff8111156118ec576118eb61240a565b5b6040519080825280601f01601f19166020018201604052801561191e5781602001600182028036833780820191505090505b509050600082602001820190505b600115611981578080600190039150507f3031323334353637383961626364656600000000000000000000000000000000600a86061a8153600a8581611975576119746131a3565b5b0494506000850361192c575b819350505050919050565b60008073ffffffffffffffffffffffffffffffffffffffff166119ae836116a2565b73ffffffffffffffffffffffffffffffffffffffff1614159050919050565b6119d78383611e2e565b6119e46000848484611b54565b611a23576040517f08c379a0000000000000000000000000000000000000000000000000000000008152600401611a1a90613183565b60405180910390fd5b505050565b6001811115611b4857600073ffffffffffffffffffffffffffffffffffffffff168473ffffffffffffffffffffffffffffffffffffffff1614611abc5780600360008673ffffffffffffffffffffffffffffffffffffffff1673ffffffffffffffffffffffffffffffffffffffff1681526020019081526020016000206000828254611ab491906131d2565b925050819055505b600073ffffffffffffffffffffffffffffffffffffffff168373ffffffffffffffffffffffffffffffffffffffff1614611b475780600360008573ffffffffffffffffffffffffffffffffffffffff1673ffffffffffffffffffffffffffffffffffffffff1681526020019081526020016000206000828254611b3f9190613206565b925050819055505b5b50505050565b50505050565b6000611b758473ffffffffffffffffffffffffffffffffffffffff1661204b565b15611cce578373ffffffffffffffffffffffffffffffffffffffff1663150b7a02611b9e611227565b8786866040518563ffffffff1660e01b8152600401611bc094939291906132b1565b6020604051808303816000875af1925050508015611bfc57506040513d601f19601f82011682018060405250810190611bf99190613312565b60015b611c7e573d8060008114611c2c576040519150601f19603f3d011682016040523d82523d6000602084013e611c31565b606091505b506000815103611c76576040517f08c379a0000000000000000000000000000000000000000000000000000000008152600401611c6d90613183565b60405180910390fd5b805181602001fd5b63150b7a0260e01b7bffffffffffffffffffffffffffffffffffffffffffffffffffffffff1916817bffffffffffffffffffffffffffffffffffffffffffffffffffffffff191614915050611cd3565b600190505b949350505050565b600080600090507a184f03e93ff9f4daa797ed6e38ed64bf6a1f0100000000000000008310611d39577a184f03e93ff9f4daa797ed6e38ed64bf6a1f0100000000000000008381611d2f57611d2e6131a3565b5b0492506040810190505b6d04ee2d6d415b85acef81000000008310611d76576d04ee2d6d415b85acef81000000008381611d6c57611d6b6131a3565b5b0492506020810190505b662386f26fc100008310611da557662386f26fc100008381611d9b57611d9a6131a3565b5b0492506010810190505b6305f5e1008310611dce576305f5e1008381611dc457611dc36131a3565b5b0492506008810190505b6127108310611df3576127108381611de957611de86131a3565b5b0492506004810190505b60648310611e165760648381611e0c57611e0b6131a3565b5b0492506002810190505b600a8310611e25576001810190505b80915050919050565b600073ffffffffffffffffffffffffffffffffffffffff168273ffffffffffffffffffffffffffffffffffffffff1603611e9d576040517f08c379a0000000000000000000000000000000000000000000000000000000008152600401611e949061338b565b60405180910390fd5b611ea68161198c565b15611ee6576040517f08c379a0000000000000000000000000000000000000000000000000000000008152600401611edd906133f7565b60405180910390fd5b611ef4600083836001611a28565b611efd8161198c565b15611f3d576040517f08c379a0000000000000000000000000000000000000000000000000000000008152600401611f34906133f7565b60405180910390fd5b6001600360008473ffffffffffffffffffffffffffffffffffffffff1673ffffffffffffffffffffffffffffffffffffffff16815260200190815260200160002060008282540192505081905550816002600083815260200190815260200160002060006101000a81548173ffffffffffffffffffffffffffffffffffffffff021916908373ffffffffffffffffffffffffffffffffffffffff160217905550808273ffffffffffffffffffffffffffffffffffffffff16600073ffffffffffffffffffffffffffffffffffffffff167fddf252ad1be2c89b69c2b068fc378daa952ba7f163c4a11628f55a4df523b3ef60405160405180910390a4612047600083836001611b4e565b5050565b6000808273ffffffffffffffffffffffffffffffffffffffff163b119050919050565b6000604051905090565b600080fd5b600080fd5b60007fffffffff0000000000000000000000000000000000000000000000000000000082169050919050565b6120b781612082565b81146120c257600080fd5b50565b6000813590506120d4816120ae565b92915050565b6000602082840312156120f0576120ef612078565b5b60006120fe848285016120c5565b91505092915050565b60008115159050919050565b61211c81612107565b82525050565b60006020820190506121376000830184612113565b92915050565b600081519050919050565b600082825260208201905092915050565b60005b8381101561217757808201518184015260208101905061215c565b83811115612186576000848401525b50505050565b6000601f19601f8301169050919050565b60006121a88261213d565b6121b28185612148565b93506121c2818560208601612159565b6121cb8161218c565b840191505092915050565b600060208201905081810360008301526121f0818461219d565b905092915050565b6000819050919050565b61220b816121f8565b811461221657600080fd5b50565b60008135905061222881612202565b92915050565b60006020828403121561224457612243612078565b5b600061225284828501612219565b91505092915050565b600073ffffffffffffffffffffffffffffffffffffffff82169050919050565b60006122868261225b565b9050919050565b6122968161227b565b82525050565b60006020820190506122b1600083018461228d565b92915050565b6122c08161227b565b81146122cb57600080fd5b50565b6000813590506122dd816122b7565b92915050565b600080604083850312156122fa576122f9612078565b5b6000612308858286016122ce565b925050602061231985828601612219565b9150509250929050565b600061ffff82169050919050565b61233a81612323565b82525050565b60006020820190506123556000830184612331565b92915050565b60008060006060848603121561237457612373612078565b5b6000612382868287016122ce565b9350506020612393868287016122ce565b92505060406123a486828701612219565b9150509250925092565b6000602082840312156123c4576123c3612078565b5b60006123d2848285016122ce565b91505092915050565b6123e4816121f8565b82525050565b60006020820190506123ff60008301846123db565b92915050565b600080fd5b7f4e487b7100000000000000000000000000000000000000000000000000000000600052604160045260246000fd5b6124428261218c565b810181811067ffffffffffffffff821117156124615761246061240a565b5b80604052505050565b600061247461206e565b90506124808282612439565b919050565b600067ffffffffffffffff8211156124a05761249f61240a565b5b602082029050602081019050919050565b600080fd5b60006124c96124c484612485565b61246a565b905080838252602082019050602084028301858111156124ec576124eb6124b1565b5b835b81811015612515578061250188826122ce565b8452602084019350506020810190506124ee565b5050509392505050565b600082601f83011261253457612533612405565b5b81356125448482602086016124b6565b91505092915050565b60006020828403121561256357612562612078565b5b600082013567ffffffffffffffff8111156125815761258061207d565b5b61258d8482850161251f565b91505092915050565b61259f81612107565b81146125aa57600080fd5b50565b6000813590506125bc81612596565b92915050565b600080604083850312156125d9576125d8612078565b5b60006125e7858286016122ce565b92505060206125f8858286016125ad565b9150509250929050565b600080fd5b600067ffffffffffffffff8211156126225761262161240a565b5b61262b8261218c565b9050602081019050919050565b82818337600083830152505050565b600061265a61265584612607565b61246a565b90508281526020810184848401111561267657612675612602565b5b612681848285612638565b509392505050565b600082601f83011261269e5761269d612405565b5b81356126ae848260208601612647565b91505092915050565b600080600080608085870312156126d1576126d0612078565b5b60006126df878288016122ce565b94505060206126f0878288016122ce565b935050604061270187828801612219565b925050606085013567ffffffffffffffff8111156127225761272161207d565b5b61272e87828801612689565b91505092959194509250565b6000806040838503121561275157612750612078565b5b600061275f858286016122ce565b9250506020612770858286016122ce565b9150509250929050565b7f4e487b7100000000000000000000000000000000000000000000000000000000600052602260045260246000fd5b600060028204905060018216806127c157607f821691505b6020821081036127d4576127d361277a565b5b50919050565b7f4552433732313a20617070726f76616c20746f2063757272656e74206f776e6560008201527f7200000000000000000000000000000000000000000000000000000000000000602082015250565b6000612836602183612148565b9150612841826127da565b604082019050919050565b6000602082019050818103600083015261286581612829565b9050919050565b7f4552433732313a20617070726f76652063616c6c6572206973206e6f7420746f60008201527f6b656e206f776e6572206f7220617070726f76656420666f7220616c6c000000602082015250565b60006128c8603d83612148565b91506128d38261286c565b604082019050919050565b600060208201905081810360008301526128f7816128bb565b9050919050565b7f6e6f7420696e2077686974656c69737400000000000000000000000000000000600082015250565b6000612934601083612148565b915061293f826128fe565b602082019050919050565b6000602082019050818103600083015261296381612927565b9050919050565b7f616c726561647920636c61696d65640000000000000000000000000000000000600082015250565b60006129a0600f83612148565b91506129ab8261296a565b602082019050919050565b600060208201905081810360008301526129cf81612993565b9050919050565b7f4d617820737570706c7920726561636865642100000000000000000000000000600082015250565b6000612a0c601383612148565b9150612a17826129d6565b602082019050919050565b60006020820190508181036000830152612a3b816129ff565b9050919050565b6000819050919050565b6000612a67612a62612a5d84612323565b612a42565b6121f8565b9050919050565b612a7781612a4c565b82525050565b6000604082019050612a92600083018561228d565b612a9f6020830184612a6e565b9392505050565b7f4552433732313a2063616c6c6572206973206e6f7420746f6b656e206f776e6560008201527f72206f7220617070726f76656400000000000000000000000000000000000000602082015250565b6000612b02602d83612148565b9150612b0d82612aa6565b604082019050919050565b60006020820190508181036000830152612b3181612af5565b9050919050565b7f77726f6e67206164647265737300000000000000000000000000000000000000600082015250565b6000612b6e600d83612148565b9150612b7982612b38565b602082019050919050565b60006020820190508181036000830152612b9d81612b61565b9050919050565b7f73656e646572206e6f7420696e2077686974656c697374000000000000000000600082015250565b6000612bda601783612148565b9150612be582612ba4565b602082019050919050565b60006020820190508181036000830152612c0981612bcd565b9050919050565b7f73656e64657220616c726561647920636c61696d656400000000000000000000600082015250565b6000612c46601683612148565b9150612c5182612c10565b602082019050919050565b60006020820190508181036000830152612c7581612c39565b9050919050565b7f726563656976657220616c726561647920696e2077686974656c697374000000600082015250565b6000612cb2601d83612148565b9150612cbd82612c7c565b602082019050919050565b60006020820190508181036000830152612ce181612ca5565b9050919050565b6000604082019050612cfd600083018561228d565b612d0a602083018461228d565b9392505050565b7f4552433732313a20696e76616c696420746f6b656e2049440000000000000000600082015250565b6000612d47601883612148565b9150612d5282612d11565b602082019050919050565b60006020820190508181036000830152612d7681612d3a565b9050919050565b7f4552433732313a2061646472657373207a65726f206973206e6f74206120766160008201527f6c6964206f776e65720000000000000000000000000000000000000000000000602082015250565b6000612dd9602983612148565b9150612de482612d7d565b604082019050919050565b60006020820190508181036000830152612e0881612dcc565b9050919050565b7f6e6f74206f776e65720000000000000000000000000000000000000000000000600082015250565b6000612e45600983612148565b9150612e5082612e0f565b602082019050919050565b60006020820190508181036000830152612e7481612e38565b9050919050565b7f4e487b7100000000000000000000000000000000000000000000000000000000600052603260045260246000fd5b7f4e487b7100000000000000000000000000000000000000000000000000000000600052601160045260246000fd5b6000612ee4826121f8565b91507fffffffffffffffffffffffffffffffffffffffffffffffffffffffffffffffff8203612f1657612f15612eaa565b5b600182019050919050565b600081905092915050565b6000612f378261213d565b612f418185612f21565b9350612f51818560208601612159565b80840191505092915050565b6000612f698285612f2c565b9150612f758284612f2c565b91508190509392505050565b7f4552433732313a207472616e736665722066726f6d20696e636f72726563742060008201527f6f776e6572000000000000000000000000000000000000000000000000000000602082015250565b6000612fdd602583612148565b9150612fe882612f81565b604082019050919050565b6000602082019050818103600083015261300c81612fd0565b9050919050565b7f4552433732313a207472616e7366657220746f20746865207a65726f2061646460008201527f7265737300000000000000000000000000000000000000000000000000000000602082015250565b600061306f602483612148565b915061307a82613013565b604082019050919050565b6000602082019050818103600083015261309e81613062565b9050919050565b7f4552433732313a20617070726f766520746f2063616c6c657200000000000000600082015250565b60006130db601983612148565b91506130e6826130a5565b602082019050919050565b6000602082019050818103600083015261310a816130ce565b9050919050565b7f4552433732313a207472616e7366657220746f206e6f6e20455243373231526560008201527f63656976657220696d706c656d656e7465720000000000000000000000000000602082015250565b600061316d603283612148565b915061317882613111565b604082019050919050565b6000602082019050818103600083015261319c81613160565b9050919050565b7f4e487b7100000000000000000000000000000000000000000000000000000000600052601260045260246000fd5b60006131dd826121f8565b91506131e8836121f8565b9250828210156131fb576131fa612eaa565b5b828203905092915050565b6000613211826121f8565b915061321c836121f8565b9250827fffffffffffffffffffffffffffffffffffffffffffffffffffffffffffffffff0382111561325157613250612eaa565b5b828201905092915050565b600081519050919050565b600082825260208201905092915050565b60006132838261325c565b61328d8185613267565b935061329d818560208601612159565b6132a68161218c565b840191505092915050565b60006080820190506132c6600083018761228d565b6132d3602083018661228d565b6132e060408301856123db565b81810360608301526132f28184613278565b905095945050505050565b60008151905061330c816120ae565b92915050565b60006020828403121561332857613327612078565b5b6000613336848285016132fd565b91505092915050565b7f4552433732313a206d696e7420746f20746865207a65726f2061646472657373600082015250565b6000613375602083612148565b91506133808261333f565b602082019050919050565b600060208201905081810360008301526133a481613368565b9050919050565b7f4552433732313a20746f6b656e20616c7265616479206d696e74656400000000600082015250565b60006133e1601c83612148565b91506133ec826133ab565b602082019050919050565b60006020820190508181036000830152613410816133d4565b905091905056fea2646970667358221220cc924d929b39519ff4834c855a16db0d03e87da5add365a6cd0bb861df0a2d4764736f6c634300080d0033",
  "linkReferences": {},
  "deployedLinkReferences": {}
}