{
  "_format": "hh-sol-artifact-1",
  "contractName": "SimpleToken",
  "sourceName": "contracts/arithmetic-overflows-2/SimpleToken.sol",
  "abi": [
    {
      "inputs": [],
      "stateMutability": "nonpayable",
      "type": "constructor"
    },
    {
      "inputs": [
        {
          "internalType": "address",
          "name": "",
          "type": "address"
        }
      ],
      "name": "getBalance",
      "outputs": [
        {
          "internalType": "uint256",
          "name": "",
          "type": "uint256"
        }
      ],
      "stateMutability": "view",
      "type": "function"
    },
    {
      "inputs": [
        {
          "internalType": "address",
          "name": "_to",
          "type": "address"
        },
        {
          "internalType": "uint256",
          "name": "_amount",
          "type": "uint256"
        }
      ],
      "name": "mint",
      "outputs": [],
      "stateMutability": "nonpayable",
      "type": "function"
    },
    {
      "inputs": [],
      "name": "minter",
      "outputs": [
        {
          "internalType": "address",
          "name": "",
          "type": "address"
        }
      ],
      "stateMutability": "view",
      "type": "function"
    },
    {
      "inputs": [],
      "name": "totalSupply",
      "outputs": [
        {
          "internalType": "uint256",
          "name": "",
          "type": "uint256"
        }
      ],
      "stateMutability": "view",
      "type": "function"
    },
    {
      "inputs": [
        {
          "internalType": "address",
          "name": "_to",
          "type": "address"
        },
        {
          "internalType": "uint256",
          "name": "_value",
          "type": "uint256"
        }
      ],
      "name": "transfer",
      "outputs": [
        {
          "internalType": "bool",
          "name": "",
          "type": "bool"
        }
      ],
      "stateMutability": "nonpayable",
      "type": "function"
    }
  ],
  "bytecode": "0x608060405234801561001057600080fd5b50336000806101000a81548173ffffffffffffffffffffffffffffffffffffffff021916908373ffffffffffffffffffffffffffffffffffffffff160217905550610436806100606000396000f3fe608060405234801561001057600080fd5b50600436106100575760003560e01c8063075461721461005c57806318160ddd1461009057806340c10f19146100ae578063a9059cbb146100fc578063f8b2cb4f14610160575b600080fd5b6100646101b8565b604051808273ffffffffffffffffffffffffffffffffffffffff16815260200191505060405180910390f35b6100986101dc565b6040518082815260200191505060405180910390f35b6100fa600480360360408110156100c457600080fd5b81019080803573ffffffffffffffffffffffffffffffffffffffff169060200190929190803590602001909291905050506101e2565b005b6101486004803603604081101561011257600080fd5b81019080803573ffffffffffffffffffffffffffffffffffffffff169060200190929190803590602001909291905050506102f4565b60405180821515815260200191505060405180910390f35b6101a26004803603602081101561017657600080fd5b81019080803573ffffffffffffffffffffffffffffffffffffffff1690602001909291905050506103e8565b6040518082815260200191505060405180910390f35b60008054906101000a900473ffffffffffffffffffffffffffffffffffffffff1681565b60025481565b60008054906101000a900473ffffffffffffffffffffffffffffffffffffffff1673ffffffffffffffffffffffffffffffffffffffff163373ffffffffffffffffffffffffffffffffffffffff16146102a3576040517f08c379a000000000000000000000000000000000000000000000000000000000815260040180806020018281038252600a8152602001807f6e6f74206d696e7465720000000000000000000000000000000000000000000081525060200191505060405180910390fd5b80600160008473ffffffffffffffffffffffffffffffffffffffff1673ffffffffffffffffffffffffffffffffffffffff168152602001908152602001600020600082825401925050819055505050565b60008082600160003373ffffffffffffffffffffffffffffffffffffffff1673ffffffffffffffffffffffffffffffffffffffff1681526020019081526020016000205403101561034457600080fd5b81600160003373ffffffffffffffffffffffffffffffffffffffff1673ffffffffffffffffffffffffffffffffffffffff1681526020019081526020016000206000828254039250508190555081600160008573ffffffffffffffffffffffffffffffffffffffff1673ffffffffffffffffffffffffffffffffffffffff168152602001908152602001600020600082825401925050819055506001905092915050565b6001602052806000526040600020600091509050548156fea26469706673582212208192aca52318d52b4b51e93150107ebc785706a464db84a14b6940c297e1520664736f6c63430007000033",
  "linkReferences": {},
  "deployedLinkReferences": {}
}