{
  "_format": "hh-sol-artifact-1",
  "contractName": "TokensDepository",
  "sourceName": "contracts/erc20-2/TokensDepository.sol",
  "abi": [
    {
      "inputs": [
        {
          "internalType": "address",
          "name": "_aave",
          "type": "address"
        },
        {
          "internalType": "address",
          "name": "_uni",
          "type": "address"
        },
        {
          "internalType": "address",
          "name": "_weth",
          "type": "address"
        }
      ],
      "stateMutability": "nonpayable",
      "type": "constructor"
    },
    {
      "inputs": [
        {
          "internalType": "address",
          "name": "_token",
          "type": "address"
        },
        {
          "internalType": "uint256",
          "name": "_amount",
          "type": "uint256"
        }
      ],
      "name": "deposit",
      "outputs": [],
      "stateMutability": "nonpayable",
      "type": "function"
    },
    {
      "inputs": [
        {
          "internalType": "address",
          "name": "",
          "type": "address"
        }
      ],
      "name": "receiptTokens",
      "outputs": [
        {
          "internalType": "contract rToken",
          "name": "",
          "type": "address"
        }
      ],
      "stateMutability": "view",
      "type": "function"
    },
    {
      "inputs": [
        {
          "internalType": "address",
          "name": "",
          "type": "address"
        }
      ],
      "name": "tokens",
      "outputs": [
        {
          "internalType": "contract IERC20",
          "name": "",
          "type": "address"
        }
      ],
      "stateMutability": "view",
      "type": "function"
    },
    {
      "inputs": [
        {
          "internalType": "address",
          "name": "_token",
          "type": "address"
        },
        {
          "internalType": "uint256",
          "name": "_amount",
          "type": "uint256"
        }
      ],
      "name": "withdraw",
      "outputs": [],
      "stateMutability": "nonpayable",
      "type": "function"
    }
  ],
  "bytecode": "0x60806040523480156200001157600080fd5b5060405162002f3638038062002f36833981810160405281019062000037919062000451565b826000808573ffffffffffffffffffffffffffffffffffffffff1673ffffffffffffffffffffffffffffffffffffffff16815260200190815260200160002060006101000a81548173ffffffffffffffffffffffffffffffffffffffff021916908373ffffffffffffffffffffffffffffffffffffffff160217905550816000808473ffffffffffffffffffffffffffffffffffffffff1673ffffffffffffffffffffffffffffffffffffffff16815260200190815260200160002060006101000a81548173ffffffffffffffffffffffffffffffffffffffff021916908373ffffffffffffffffffffffffffffffffffffffff160217905550806000808373ffffffffffffffffffffffffffffffffffffffff1673ffffffffffffffffffffffffffffffffffffffff16815260200190815260200160002060006101000a81548173ffffffffffffffffffffffffffffffffffffffff021916908373ffffffffffffffffffffffffffffffffffffffff16021790555082604051620001bd90620003d9565b620001c991906200056f565b604051809103906000f080158015620001e6573d6000803e3d6000fd5b50600160008573ffffffffffffffffffffffffffffffffffffffff1673ffffffffffffffffffffffffffffffffffffffff16815260200190815260200160002060006101000a81548173ffffffffffffffffffffffffffffffffffffffff021916908373ffffffffffffffffffffffffffffffffffffffff160217905550816040516200027390620003d9565b6200027f919062000656565b604051809103906000f0801580156200029c573d6000803e3d6000fd5b50600160008473ffffffffffffffffffffffffffffffffffffffff1673ffffffffffffffffffffffffffffffffffffffff16815260200190815260200160002060006101000a81548173ffffffffffffffffffffffffffffffffffffffff021916908373ffffffffffffffffffffffffffffffffffffffff160217905550806040516200032990620003d9565b6200033591906200073d565b604051809103906000f08015801562000352573d6000803e3d6000fd5b50600160008373ffffffffffffffffffffffffffffffffffffffff1673ffffffffffffffffffffffffffffffffffffffff16815260200190815260200160002060006101000a81548173ffffffffffffffffffffffffffffffffffffffff021916908373ffffffffffffffffffffffffffffffffffffffff16021790555050505062000784565b611ca7806200128f83390190565b600080fd5b600073ffffffffffffffffffffffffffffffffffffffff82169050919050565b60006200041982620003ec565b9050919050565b6200042b816200040c565b81146200043757600080fd5b50565b6000815190506200044b8162000420565b92915050565b6000806000606084860312156200046d576200046c620003e7565b5b60006200047d868287016200043a565b935050602062000490868287016200043a565b9250506040620004a3868287016200043a565b9150509250925092565b620004b8816200040c565b82525050565b600082825260208201905092915050565b7f5265636569707420414156450000000000000000000000000000000000000000600082015250565b600062000507600c83620004be565b91506200051482620004cf565b602082019050919050565b7f7241415645000000000000000000000000000000000000000000000000000000600082015250565b600062000557600583620004be565b915062000564826200051f565b602082019050919050565b6000606082019050620005866000830184620004ad565b81810360208301526200059981620004f8565b90508181036040830152620005ae8162000548565b905092915050565b7f5265636569707420554e49000000000000000000000000000000000000000000600082015250565b6000620005ee600b83620004be565b9150620005fb82620005b6565b602082019050919050565b7f72554e4900000000000000000000000000000000000000000000000000000000600082015250565b60006200063e600483620004be565b91506200064b8262000606565b602082019050919050565b60006060820190506200066d6000830184620004ad565b81810360208301526200068081620005df565b9050818103604083015262000695816200062f565b905092915050565b7f5265636569707420574554480000000000000000000000000000000000000000600082015250565b6000620006d5600c83620004be565b9150620006e2826200069d565b602082019050919050565b7f7257455448000000000000000000000000000000000000000000000000000000600082015250565b600062000725600583620004be565b91506200073282620006ed565b602082019050919050565b6000606082019050620007546000830184620004ad565b81810360208301526200076781620006c6565b905081810360408301526200077c8162000716565b905092915050565b610afb80620007946000396000f3fe608060405234801561001057600080fd5b506004361061004c5760003560e01c806347e7ef2414610051578063d6d4e9ed1461006d578063e48603391461009d578063f3fef3a3146100cd575b600080fd5b61006b6004803603810190610066919061076a565b6100e9565b005b610087600480360381019061008291906107aa565b6103ab565b6040516100949190610836565b60405180910390f35b6100b760048036038101906100b291906107aa565b6103de565b6040516100c49190610872565b60405180910390f35b6100e760048036038101906100e2919061076a565b610411565b005b81600073ffffffffffffffffffffffffffffffffffffffff166000808373ffffffffffffffffffffffffffffffffffffffff1673ffffffffffffffffffffffffffffffffffffffff16815260200190815260200160002060009054906101000a900473ffffffffffffffffffffffffffffffffffffffff1673ffffffffffffffffffffffffffffffffffffffff16036101b7576040517f08c379a00000000000000000000000000000000000000000000000000000000081526004016101ae906108ea565b60405180910390fd5b60008060008573ffffffffffffffffffffffffffffffffffffffff1673ffffffffffffffffffffffffffffffffffffffff16815260200190815260200160002060009054906101000a900473ffffffffffffffffffffffffffffffffffffffff1673ffffffffffffffffffffffffffffffffffffffff166323b872dd3330866040518463ffffffff1660e01b815260040161025493929190610928565b6020604051808303816000875af1158015610273573d6000803e3d6000fd5b505050506040513d601f19601f820116820180604052508101906102979190610997565b9050806102d9576040517f08c379a00000000000000000000000000000000000000000000000000000000081526004016102d090610a10565b60405180910390fd5b600160008573ffffffffffffffffffffffffffffffffffffffff1673ffffffffffffffffffffffffffffffffffffffff16815260200190815260200160002060009054906101000a900473ffffffffffffffffffffffffffffffffffffffff1673ffffffffffffffffffffffffffffffffffffffff166340c10f1933856040518363ffffffff1660e01b8152600401610373929190610a30565b600060405180830381600087803b15801561038d57600080fd5b505af11580156103a1573d6000803e3d6000fd5b5050505050505050565b60016020528060005260406000206000915054906101000a900473ffffffffffffffffffffffffffffffffffffffff1681565b60006020528060005260406000206000915054906101000a900473ffffffffffffffffffffffffffffffffffffffff1681565b81600073ffffffffffffffffffffffffffffffffffffffff166000808373ffffffffffffffffffffffffffffffffffffffff1673ffffffffffffffffffffffffffffffffffffffff16815260200190815260200160002060009054906101000a900473ffffffffffffffffffffffffffffffffffffffff1673ffffffffffffffffffffffffffffffffffffffff16036104df576040517f08c379a00000000000000000000000000000000000000000000000000000000081526004016104d6906108ea565b60405180910390fd5b600160008473ffffffffffffffffffffffffffffffffffffffff1673ffffffffffffffffffffffffffffffffffffffff16815260200190815260200160002060009054906101000a900473ffffffffffffffffffffffffffffffffffffffff1673ffffffffffffffffffffffffffffffffffffffff16639dc29fac33846040518363ffffffff1660e01b8152600401610579929190610a30565b600060405180830381600087803b15801561059357600080fd5b505af11580156105a7573d6000803e3d6000fd5b5050505060008060008573ffffffffffffffffffffffffffffffffffffffff1673ffffffffffffffffffffffffffffffffffffffff16815260200190815260200160002060009054906101000a900473ffffffffffffffffffffffffffffffffffffffff1673ffffffffffffffffffffffffffffffffffffffff1663a9059cbb33856040518363ffffffff1660e01b8152600401610646929190610a30565b6020604051808303816000875af1158015610665573d6000803e3d6000fd5b505050506040513d601f19601f820116820180604052508101906106899190610997565b9050806106cb576040517f08c379a00000000000000000000000000000000000000000000000000000000081526004016106c290610aa5565b60405180910390fd5b50505050565b600080fd5b600073ffffffffffffffffffffffffffffffffffffffff82169050919050565b6000610701826106d6565b9050919050565b610711816106f6565b811461071c57600080fd5b50565b60008135905061072e81610708565b92915050565b6000819050919050565b61074781610734565b811461075257600080fd5b50565b6000813590506107648161073e565b92915050565b60008060408385031215610781576107806106d1565b5b600061078f8582860161071f565b92505060206107a085828601610755565b9150509250929050565b6000602082840312156107c0576107bf6106d1565b5b60006107ce8482850161071f565b91505092915050565b6000819050919050565b60006107fc6107f76107f2846106d6565b6107d7565b6106d6565b9050919050565b600061080e826107e1565b9050919050565b600061082082610803565b9050919050565b61083081610815565b82525050565b600060208201905061084b6000830184610827565b92915050565b600061085c82610803565b9050919050565b61086c81610851565b82525050565b60006020820190506108876000830184610863565b92915050565b600082825260208201905092915050565b7f746f6b656e206973206e6f7420737570706f7274656400000000000000000000600082015250565b60006108d460168361088d565b91506108df8261089e565b602082019050919050565b60006020820190508181036000830152610903816108c7565b9050919050565b610913816106f6565b82525050565b61092281610734565b82525050565b600060608201905061093d600083018661090a565b61094a602083018561090a565b6109576040830184610919565b949350505050565b60008115159050919050565b6109748161095f565b811461097f57600080fd5b50565b6000815190506109918161096b565b92915050565b6000602082840312156109ad576109ac6106d1565b5b60006109bb84828501610982565b91505092915050565b7f7472616e7366657246726f6d206661696c656400000000000000000000000000600082015250565b60006109fa60138361088d565b9150610a05826109c4565b602082019050919050565b60006020820190508181036000830152610a29816109ed565b9050919050565b6000604082019050610a45600083018561090a565b610a526020830184610919565b9392505050565b7f7472616e73666572206661696c65640000000000000000000000000000000000600082015250565b6000610a8f600f8361088d565b9150610a9a82610a59565b602082019050919050565b60006020820190508181036000830152610abe81610a82565b905091905056fea264697066735822122029200fa853201c675606bcade7c61163ee30a0b350eb4f93917b956b2713da1a64736f6c634300080d003360806040523480156200001157600080fd5b5060405162001ca738038062001ca783398181016040528101906200003791906200041c565b81818160039080519060200190620000519291906200016a565b5080600490805190602001906200006a9291906200016a565b505050600073ffffffffffffffffffffffffffffffffffffffff168373ffffffffffffffffffffffffffffffffffffffff1603620000df576040517f08c379a0000000000000000000000000000000000000000000000000000000008152600401620000d69062000517565b60405180910390fd5b33600560006101000a81548173ffffffffffffffffffffffffffffffffffffffff021916908373ffffffffffffffffffffffffffffffffffffffff16021790555082600660006101000a81548173ffffffffffffffffffffffffffffffffffffffff021916908373ffffffffffffffffffffffffffffffffffffffff1602179055505050506200059d565b828054620001789062000568565b90600052602060002090601f0160209004810192826200019c5760008555620001e8565b82601f10620001b757805160ff1916838001178555620001e8565b82800160010185558215620001e8579182015b82811115620001e7578251825591602001919060010190620001ca565b5b509050620001f79190620001fb565b5090565b5b8082111562000216576000816000905550600101620001fc565b5090565b6000604051905090565b600080fd5b600080fd5b600073ffffffffffffffffffffffffffffffffffffffff82169050919050565b60006200025b826200022e565b9050919050565b6200026d816200024e565b81146200027957600080fd5b50565b6000815190506200028d8162000262565b92915050565b600080fd5b600080fd5b6000601f19601f8301169050919050565b7f4e487b7100000000000000000000000000000000000000000000000000000000600052604160045260246000fd5b620002e8826200029d565b810181811067ffffffffffffffff821117156200030a5762000309620002ae565b5b80604052505050565b60006200031f6200021a565b90506200032d8282620002dd565b919050565b600067ffffffffffffffff82111562000350576200034f620002ae565b5b6200035b826200029d565b9050602081019050919050565b60005b83811015620003885780820151818401526020810190506200036b565b8381111562000398576000848401525b50505050565b6000620003b5620003af8462000332565b62000313565b905082815260208101848484011115620003d457620003d362000298565b5b620003e184828562000368565b509392505050565b600082601f83011262000401576200040062000293565b5b8151620004138482602086016200039e565b91505092915050565b60008060006060848603121562000438576200043762000224565b5b600062000448868287016200027c565b935050602084015167ffffffffffffffff8111156200046c576200046b62000229565b5b6200047a86828701620003e9565b925050604084015167ffffffffffffffff8111156200049e576200049d62000229565b5b620004ac86828701620003e9565b9150509250925092565b600082825260208201905092915050565b7f77726f6e6720756e6465726c79696e6700000000000000000000000000000000600082015250565b6000620004ff601083620004b6565b91506200050c82620004c7565b602082019050919050565b600060208201905081810360008301526200053281620004f0565b9050919050565b7f4e487b7100000000000000000000000000000000000000000000000000000000600052602260045260246000fd5b600060028204905060018216806200058157607f821691505b60208210810362000597576200059662000539565b5b50919050565b6116fa80620005ad6000396000f3fe608060405234801561001057600080fd5b50600436106100f55760003560e01c806340c10f19116100975780639dc29fac116100665780639dc29fac1461028a578063a457c2d7146102a6578063a9059cbb146102d6578063dd62ed3e14610306576100f5565b806340c10f191461020257806370a082311461021e5780638da5cb5b1461024e57806395d89b411461026c576100f5565b806323b872dd116100d357806323b872dd146101665780632495a59914610196578063313ce567146101b457806339509351146101d2576100f5565b806306fdde03146100fa578063095ea7b31461011857806318160ddd14610148575b600080fd5b610102610336565b60405161010f9190610eb3565b60405180910390f35b610132600480360381019061012d9190610f6e565b6103c8565b60405161013f9190610fc9565b60405180910390f35b6101506103eb565b60405161015d9190610ff3565b60405180910390f35b610180600480360381019061017b919061100e565b6103f5565b60405161018d9190610fc9565b60405180910390f35b61019e610424565b6040516101ab9190611070565b60405180910390f35b6101bc61044a565b6040516101c991906110a7565b60405180910390f35b6101ec60048036038101906101e79190610f6e565b610453565b6040516101f99190610fc9565b60405180910390f35b61021c60048036038101906102179190610f6e565b61048a565b005b610238600480360381019061023391906110c2565b610528565b6040516102459190610ff3565b60405180910390f35b610256610570565b6040516102639190611070565b60405180910390f35b610274610596565b6040516102819190610eb3565b60405180910390f35b6102a4600480360381019061029f9190610f6e565b610628565b005b6102c060048036038101906102bb9190610f6e565b6106c6565b6040516102cd9190610fc9565b60405180910390f35b6102f060048036038101906102eb9190610f6e565b61073d565b6040516102fd9190610fc9565b60405180910390f35b610320600480360381019061031b91906110ef565b610760565b60405161032d9190610ff3565b60405180910390f35b6060600380546103459061115e565b80601f01602080910402602001604051908101604052809291908181526020018280546103719061115e565b80156103be5780601f10610393576101008083540402835291602001916103be565b820191906000526020600020905b8154815290600101906020018083116103a157829003601f168201915b5050505050905090565b6000806103d36107e7565b90506103e08185856107ef565b600191505092915050565b6000600254905090565b6000806104006107e7565b905061040d8582856109b8565b610418858585610a44565b60019150509392505050565b600660009054906101000a900473ffffffffffffffffffffffffffffffffffffffff1681565b60006012905090565b60008061045e6107e7565b905061047f8185856104708589610760565b61047a91906111be565b6107ef565b600191505092915050565b600560009054906101000a900473ffffffffffffffffffffffffffffffffffffffff1673ffffffffffffffffffffffffffffffffffffffff163373ffffffffffffffffffffffffffffffffffffffff161461051a576040517f08c379a000000000000000000000000000000000000000000000000000000000815260040161051190611260565b60405180910390fd5b6105248282610cba565b5050565b60008060008373ffffffffffffffffffffffffffffffffffffffff1673ffffffffffffffffffffffffffffffffffffffff168152602001908152602001600020549050919050565b600560009054906101000a900473ffffffffffffffffffffffffffffffffffffffff1681565b6060600480546105a59061115e565b80601f01602080910402602001604051908101604052809291908181526020018280546105d19061115e565b801561061e5780601f106105f35761010080835404028352916020019161061e565b820191906000526020600020905b81548152906001019060200180831161060157829003601f168201915b5050505050905090565b600560009054906101000a900473ffffffffffffffffffffffffffffffffffffffff1673ffffffffffffffffffffffffffffffffffffffff163373ffffffffffffffffffffffffffffffffffffffff16146106b8576040517f08c379a00000000000000000000000000000000000000000000000000000000081526004016106af90611260565b60405180910390fd5b6106c28282610cba565b5050565b6000806106d16107e7565b905060006106df8286610760565b905083811015610724576040517f08c379a000000000000000000000000000000000000000000000000000000000815260040161071b906112f2565b60405180910390fd5b61073182868684036107ef565b60019250505092915050565b6000806107486107e7565b9050610755818585610a44565b600191505092915050565b6000600160008473ffffffffffffffffffffffffffffffffffffffff1673ffffffffffffffffffffffffffffffffffffffff16815260200190815260200160002060008373ffffffffffffffffffffffffffffffffffffffff1673ffffffffffffffffffffffffffffffffffffffff16815260200190815260200160002054905092915050565b600033905090565b600073ffffffffffffffffffffffffffffffffffffffff168373ffffffffffffffffffffffffffffffffffffffff160361085e576040517f08c379a000000000000000000000000000000000000000000000000000000000815260040161085590611384565b60405180910390fd5b600073ffffffffffffffffffffffffffffffffffffffff168273ffffffffffffffffffffffffffffffffffffffff16036108cd576040517f08c379a00000000000000000000000000000000000000000000000000000000081526004016108c490611416565b60405180910390fd5b80600160008573ffffffffffffffffffffffffffffffffffffffff1673ffffffffffffffffffffffffffffffffffffffff16815260200190815260200160002060008473ffffffffffffffffffffffffffffffffffffffff1673ffffffffffffffffffffffffffffffffffffffff168152602001908152602001600020819055508173ffffffffffffffffffffffffffffffffffffffff168373ffffffffffffffffffffffffffffffffffffffff167f8c5be1e5ebec7d5bd14f71427d1e84f3dd0314c0f7b2291e5b200ac8c7c3b925836040516109ab9190610ff3565b60405180910390a3505050565b60006109c48484610760565b90507fffffffffffffffffffffffffffffffffffffffffffffffffffffffffffffffff8114610a3e5781811015610a30576040517f08c379a0000000000000000000000000000000000000000000000000000000008152600401610a2790611482565b60405180910390fd5b610a3d84848484036107ef565b5b50505050565b600073ffffffffffffffffffffffffffffffffffffffff168373ffffffffffffffffffffffffffffffffffffffff1603610ab3576040517f08c379a0000000000000000000000000000000000000000000000000000000008152600401610aaa90611514565b60405180910390fd5b600073ffffffffffffffffffffffffffffffffffffffff168273ffffffffffffffffffffffffffffffffffffffff1603610b22576040517f08c379a0000000000000000000000000000000000000000000000000000000008152600401610b19906115a6565b60405180910390fd5b610b2d838383610e10565b60008060008573ffffffffffffffffffffffffffffffffffffffff1673ffffffffffffffffffffffffffffffffffffffff16815260200190815260200160002054905081811015610bb3576040517f08c379a0000000000000000000000000000000000000000000000000000000008152600401610baa90611638565b60405180910390fd5b8181036000808673ffffffffffffffffffffffffffffffffffffffff1673ffffffffffffffffffffffffffffffffffffffff16815260200190815260200160002081905550816000808573ffffffffffffffffffffffffffffffffffffffff1673ffffffffffffffffffffffffffffffffffffffff168152602001908152602001600020600082825401925050819055508273ffffffffffffffffffffffffffffffffffffffff168473ffffffffffffffffffffffffffffffffffffffff167fddf252ad1be2c89b69c2b068fc378daa952ba7f163c4a11628f55a4df523b3ef84604051610ca19190610ff3565b60405180910390a3610cb4848484610e15565b50505050565b600073ffffffffffffffffffffffffffffffffffffffff168273ffffffffffffffffffffffffffffffffffffffff1603610d29576040517f08c379a0000000000000000000000000000000000000000000000000000000008152600401610d20906116a4565b60405180910390fd5b610d3560008383610e10565b8060026000828254610d4791906111be565b92505081905550806000808473ffffffffffffffffffffffffffffffffffffffff1673ffffffffffffffffffffffffffffffffffffffff168152602001908152602001600020600082825401925050819055508173ffffffffffffffffffffffffffffffffffffffff16600073ffffffffffffffffffffffffffffffffffffffff167fddf252ad1be2c89b69c2b068fc378daa952ba7f163c4a11628f55a4df523b3ef83604051610df89190610ff3565b60405180910390a3610e0c60008383610e15565b5050565b505050565b505050565b600081519050919050565b600082825260208201905092915050565b60005b83811015610e54578082015181840152602081019050610e39565b83811115610e63576000848401525b50505050565b6000601f19601f8301169050919050565b6000610e8582610e1a565b610e8f8185610e25565b9350610e9f818560208601610e36565b610ea881610e69565b840191505092915050565b60006020820190508181036000830152610ecd8184610e7a565b905092915050565b600080fd5b600073ffffffffffffffffffffffffffffffffffffffff82169050919050565b6000610f0582610eda565b9050919050565b610f1581610efa565b8114610f2057600080fd5b50565b600081359050610f3281610f0c565b92915050565b6000819050919050565b610f4b81610f38565b8114610f5657600080fd5b50565b600081359050610f6881610f42565b92915050565b60008060408385031215610f8557610f84610ed5565b5b6000610f9385828601610f23565b9250506020610fa485828601610f59565b9150509250929050565b60008115159050919050565b610fc381610fae565b82525050565b6000602082019050610fde6000830184610fba565b92915050565b610fed81610f38565b82525050565b60006020820190506110086000830184610fe4565b92915050565b60008060006060848603121561102757611026610ed5565b5b600061103586828701610f23565b935050602061104686828701610f23565b925050604061105786828701610f59565b9150509250925092565b61106a81610efa565b82525050565b60006020820190506110856000830184611061565b92915050565b600060ff82169050919050565b6110a18161108b565b82525050565b60006020820190506110bc6000830184611098565b92915050565b6000602082840312156110d8576110d7610ed5565b5b60006110e684828501610f23565b91505092915050565b6000806040838503121561110657611105610ed5565b5b600061111485828601610f23565b925050602061112585828601610f23565b9150509250929050565b7f4e487b7100000000000000000000000000000000000000000000000000000000600052602260045260246000fd5b6000600282049050600182168061117657607f821691505b6020821081036111895761118861112f565b5b50919050565b7f4e487b7100000000000000000000000000000000000000000000000000000000600052601160045260246000fd5b60006111c982610f38565b91506111d483610f38565b9250827fffffffffffffffffffffffffffffffffffffffffffffffffffffffffffffffff038211156112095761120861118f565b5b828201905092915050565b7f4e4f5420414e204f4e5745520000000000000000000000000000000000000000600082015250565b600061124a600c83610e25565b915061125582611214565b602082019050919050565b600060208201905081810360008301526112798161123d565b9050919050565b7f45524332303a2064656372656173656420616c6c6f77616e63652062656c6f7760008201527f207a65726f000000000000000000000000000000000000000000000000000000602082015250565b60006112dc602583610e25565b91506112e782611280565b604082019050919050565b6000602082019050818103600083015261130b816112cf565b9050919050565b7f45524332303a20617070726f76652066726f6d20746865207a65726f2061646460008201527f7265737300000000000000000000000000000000000000000000000000000000602082015250565b600061136e602483610e25565b915061137982611312565b604082019050919050565b6000602082019050818103600083015261139d81611361565b9050919050565b7f45524332303a20617070726f766520746f20746865207a65726f20616464726560008201527f7373000000000000000000000000000000000000000000000000000000000000602082015250565b6000611400602283610e25565b915061140b826113a4565b604082019050919050565b6000602082019050818103600083015261142f816113f3565b9050919050565b7f45524332303a20696e73756666696369656e7420616c6c6f77616e6365000000600082015250565b600061146c601d83610e25565b915061147782611436565b602082019050919050565b6000602082019050818103600083015261149b8161145f565b9050919050565b7f45524332303a207472616e736665722066726f6d20746865207a65726f20616460008201527f6472657373000000000000000000000000000000000000000000000000000000602082015250565b60006114fe602583610e25565b9150611509826114a2565b604082019050919050565b6000602082019050818103600083015261152d816114f1565b9050919050565b7f45524332303a207472616e7366657220746f20746865207a65726f206164647260008201527f6573730000000000000000000000000000000000000000000000000000000000602082015250565b6000611590602383610e25565b915061159b82611534565b604082019050919050565b600060208201905081810360008301526115bf81611583565b9050919050565b7f45524332303a207472616e7366657220616d6f756e742065786365656473206260008201527f616c616e63650000000000000000000000000000000000000000000000000000602082015250565b6000611622602683610e25565b915061162d826115c6565b604082019050919050565b6000602082019050818103600083015261165181611615565b9050919050565b7f45524332303a206d696e7420746f20746865207a65726f206164647265737300600082015250565b600061168e601f83610e25565b915061169982611658565b602082019050919050565b600060208201905081810360008301526116bd81611681565b905091905056fea2646970667358221220e2c767610cc9f6a6bac4c89cb725672142dd8957a21cf78e43e348ab2259b4ad64736f6c634300080d0033",
  "linkReferences": {},
  "deployedLinkReferences": {}
}