{
  "_format": "hh-sol-artifact-1",
  "contractName": "CryptoEmpireGame",
  "sourceName": "contracts/reentrancy-4/CryptoEmpireGame.sol",
  "abi": [
    {
      "inputs": [
        {
          "internalType": "address",
          "name": "_cryptoEmpireToken",
          "type": "address"
        }
      ],
      "stateMutability": "nonpayable",
      "type": "constructor"
    },
    {
      "inputs": [],
      "name": "AMOUNT",
      "outputs": [
        {
          "internalType": "uint256",
          "name": "",
          "type": "uint256"
        }
      ],
      "stateMutability": "view",
      "type": "function"
    },
    {
      "inputs": [
        {
          "internalType": "uint256",
          "name": "_listingId",
          "type": "uint256"
        }
      ],
      "name": "buy",
      "outputs": [],
      "stateMutability": "payable",
      "type": "function"
    },
    {
      "inputs": [],
      "name": "cryptoEmpireToken",
      "outputs": [
        {
          "internalType": "contract IERC1155",
          "name": "",
          "type": "address"
        }
      ],
      "stateMutability": "view",
      "type": "function"
    },
    {
      "inputs": [
        {
          "internalType": "uint256",
          "name": "_nftId",
          "type": "uint256"
        },
        {
          "internalType": "uint256",
          "name": "_price",
          "type": "uint256"
        }
      ],
      "name": "listForSale",
      "outputs": [],
      "stateMutability": "nonpayable",
      "type": "function"
    },
    {
      "inputs": [
        {
          "internalType": "uint256",
          "name": "",
          "type": "uint256"
        }
      ],
      "name": "listings",
      "outputs": [
        {
          "internalType": "address payable",
          "name": "seller",
          "type": "address"
        },
        {
          "internalType": "address",
          "name": "buyer",
          "type": "address"
        },
        {
          "internalType": "uint256",
          "name": "nftId",
          "type": "uint256"
        },
        {
          "internalType": "uint256",
          "name": "price",
          "type": "uint256"
        },
        {
          "internalType": "bool",
          "name": "isSold",
          "type": "bool"
        }
      ],
      "stateMutability": "view",
      "type": "function"
    },
    {
      "inputs": [],
      "name": "numberOfListings",
      "outputs": [
        {
          "internalType": "uint256",
          "name": "",
          "type": "uint256"
        }
      ],
      "stateMutability": "view",
      "type": "function"
    },
    {
      "inputs": [
        {
          "internalType": "address",
          "name": "",
          "type": "address"
        },
        {
          "internalType": "address",
          "name": "",
          "type": "address"
        },
        {
          "internalType": "uint256[]",
          "name": "",
          "type": "uint256[]"
        },
        {
          "internalType": "uint256[]",
          "name": "",
          "type": "uint256[]"
        },
        {
          "internalType": "bytes",
          "name": "",
          "type": "bytes"
        }
      ],
      "name": "onERC1155BatchReceived",
      "outputs": [
        {
          "internalType": "bytes4",
          "name": "",
          "type": "bytes4"
        }
      ],
      "stateMutability": "pure",
      "type": "function"
    },
    {
      "inputs": [
        {
          "internalType": "address",
          "name": "",
          "type": "address"
        },
        {
          "internalType": "address",
          "name": "",
          "type": "address"
        },
        {
          "internalType": "uint256",
          "name": "",
          "type": "uint256"
        },
        {
          "internalType": "uint256",
          "name": "",
          "type": "uint256"
        },
        {
          "internalType": "bytes",
          "name": "",
          "type": "bytes"
        }
      ],
      "name": "onERC1155Received",
      "outputs": [
        {
          "internalType": "bytes4",
          "name": "",
          "type": "bytes4"
        }
      ],
      "stateMutability": "pure",
      "type": "function"
    },
    {
      "inputs": [
        {
          "internalType": "uint256",
          "name": "_nftId",
          "type": "uint256"
        }
      ],
      "name": "stake",
      "outputs": [],
      "stateMutability": "nonpayable",
      "type": "function"
    },
    {
      "inputs": [
        {
          "internalType": "address",
          "name": "",
          "type": "address"
        },
        {
          "internalType": "uint256",
          "name": "",
          "type": "uint256"
        }
      ],
      "name": "stakedNfts",
      "outputs": [
        {
          "internalType": "bool",
          "name": "",
          "type": "bool"
        }
      ],
      "stateMutability": "view",
      "type": "function"
    },
    {
      "inputs": [
        {
          "internalType": "bytes4",
          "name": "",
          "type": "bytes4"
        }
      ],
      "name": "supportsInterface",
      "outputs": [
        {
          "internalType": "bool",
          "name": "",
          "type": "bool"
        }
      ],
      "stateMutability": "pure",
      "type": "function"
    },
    {
      "inputs": [
        {
          "internalType": "uint256",
          "name": "_nftId",
          "type": "uint256"
        }
      ],
      "name": "unstake",
      "outputs": [],
      "stateMutability": "nonpayable",
      "type": "function"
    }
  ],
  "bytecode": "0x60a06040523480156200001157600080fd5b50604051620019c8380380620019c88339818101604052810190620000379190620000dc565b8073ffffffffffffffffffffffffffffffffffffffff1660808173ffffffffffffffffffffffffffffffffffffffff1681525050506200010e565b600080fd5b600073ffffffffffffffffffffffffffffffffffffffff82169050919050565b6000620000a48262000077565b9050919050565b620000b68162000097565b8114620000c257600080fd5b50565b600081519050620000d681620000ab565b92915050565b600060208284031215620000f557620000f462000072565b5b60006200010584828501620000c5565b91505092915050565b60805161187462000154600039600081816103a2015281816104d0015281816106480152818161090401528181610afa01528181610c2e0152610d3301526118746000f3fe6080604052600436106100a75760003560e01c8063d96a094a11610064578063d96a094a146101e0578063de74e57b146101fc578063e0ba5b441461023d578063e80d7fec14610268578063e87712b214610291578063f23a6e61146102bc576100a7565b806301ffc9a7146100ac5780632e17de78146100e957806394b6e75114610112578063a694fc3a1461014f578063bc197c8114610178578063d1789176146101b5575b600080fd5b3480156100b857600080fd5b506100d360048036038101906100ce9190610dcd565b6102f9565b6040516100e09190610e15565b60405180910390f35b3480156100f557600080fd5b50610110600480360381019061010b9190610e66565b610304565b005b34801561011e57600080fd5b5061013960048036038101906101349190610ef1565b61049d565b6040516101469190610e15565b60405180910390f35b34801561015b57600080fd5b5061017660048036038101906101719190610e66565b6104cc565b005b34801561018457600080fd5b5061019f600480360381019061019a9190610fec565b610743565b6040516101ac91906110d7565b60405180910390f35b3480156101c157600080fd5b506101ca61075b565b6040516101d79190611101565b60405180910390f35b6101fa60048036038101906101f59190610e66565b610760565b005b34801561020857600080fd5b50610223600480360381019061021e9190610e66565b610a6d565b60405161023495949392919061114c565b60405180910390f35b34801561024957600080fd5b50610252610af0565b60405161025f9190611101565b60405180910390f35b34801561027457600080fd5b5061028f600480360381019061028a919061119f565b610af6565b005b34801561029d57600080fd5b506102a6610d31565b6040516102b3919061123e565b60405180910390f35b3480156102c857600080fd5b506102e360048036038101906102de9190611259565b610d55565b6040516102f091906110d7565b60405180910390f35b600060019050919050565b6000803373ffffffffffffffffffffffffffffffffffffffff1673ffffffffffffffffffffffffffffffffffffffff168152602001908152602001600020600082815260200190815260200160002060009054906101000a900460ff166103a0576040517f08c379a000000000000000000000000000000000000000000000000000000000815260040161039790611350565b60405180910390fd5b7f000000000000000000000000000000000000000000000000000000000000000073ffffffffffffffffffffffffffffffffffffffff1663f242432a30338460016040518563ffffffff1660e01b815260040161040094939291906113a7565b600060405180830381600087803b15801561041a57600080fd5b505af115801561042e573d6000803e3d6000fd5b5050505060008060003373ffffffffffffffffffffffffffffffffffffffff1673ffffffffffffffffffffffffffffffffffffffff168152602001908152602001600020600083815260200190815260200160002060006101000a81548160ff02191690831515021790555050565b60006020528160005260406000206020528060005260406000206000915091509054906101000a900460ff1681565b60007f000000000000000000000000000000000000000000000000000000000000000073ffffffffffffffffffffffffffffffffffffffff1662fdd58e33846040518363ffffffff1660e01b81526004016105289291906113ff565b602060405180830381865afa158015610545573d6000803e3d6000fd5b505050506040513d601f19601f82011682018060405250810190610569919061143d565b116105a9576040517f08c379a00000000000000000000000000000000000000000000000000000000081526004016105a0906114b6565b60405180910390fd5b6000803373ffffffffffffffffffffffffffffffffffffffff1673ffffffffffffffffffffffffffffffffffffffff168152602001908152602001600020600082815260200190815260200160002060009054906101000a900460ff1615610646576040517f08c379a000000000000000000000000000000000000000000000000000000000815260040161063d90611548565b60405180910390fd5b7f000000000000000000000000000000000000000000000000000000000000000073ffffffffffffffffffffffffffffffffffffffff1663f242432a33308460016040518563ffffffff1660e01b81526004016106a694939291906113a7565b600060405180830381600087803b1580156106c057600080fd5b505af11580156106d4573d6000803e3d6000fd5b5050505060016000803373ffffffffffffffffffffffffffffffffffffffff1673ffffffffffffffffffffffffffffffffffffffff168152602001908152602001600020600083815260200190815260200160002060006101000a81548160ff02191690831515021790555050565b600063bc197c8160e01b905098975050505050505050565b600181565b6000600160008381526020019081526020016000209050600073ffffffffffffffffffffffffffffffffffffffff168160000160009054906101000a900473ffffffffffffffffffffffffffffffffffffffff1673ffffffffffffffffffffffffffffffffffffffff160361080a576040517f08c379a0000000000000000000000000000000000000000000000000000000008152600401610801906115b4565b60405180910390fd5b8060040160009054906101000a900460ff161561085c576040517f08c379a000000000000000000000000000000000000000000000000000000000815260040161085390611620565b60405180910390fd5b806003015434146108a2576040517f08c379a00000000000000000000000000000000000000000000000000000000081526004016108999061168c565b60405180910390fd5b338160010160006101000a81548173ffffffffffffffffffffffffffffffffffffffff021916908373ffffffffffffffffffffffffffffffffffffffff16021790555060018160040160006101000a81548160ff0219169083151502179055507f000000000000000000000000000000000000000000000000000000000000000073ffffffffffffffffffffffffffffffffffffffff1663f242432a3033846002015460016040518563ffffffff1660e01b815260040161096694939291906113a7565b600060405180830381600087803b15801561098057600080fd5b505af1158015610994573d6000803e3d6000fd5b5050505060008160000160009054906101000a900473ffffffffffffffffffffffffffffffffffffffff1673ffffffffffffffffffffffffffffffffffffffff16346040516109e2906116da565b60006040518083038185875af1925050503d8060008114610a1f576040519150601f19603f3d011682016040523d82523d6000602084013e610a24565b606091505b5050905080610a68576040517f08c379a0000000000000000000000000000000000000000000000000000000008152600401610a5f9061173b565b60405180910390fd5b505050565b60016020528060005260406000206000915090508060000160009054906101000a900473ffffffffffffffffffffffffffffffffffffffff16908060010160009054906101000a900473ffffffffffffffffffffffffffffffffffffffff16908060020154908060030154908060040160009054906101000a900460ff16905085565b60025481565b60007f000000000000000000000000000000000000000000000000000000000000000073ffffffffffffffffffffffffffffffffffffffff1662fdd58e33856040518363ffffffff1660e01b8152600401610b529291906113ff565b602060405180830381865afa158015610b6f573d6000803e3d6000fd5b505050506040513d601f19601f82011682018060405250810190610b93919061143d565b11610bd3576040517f08c379a0000000000000000000000000000000000000000000000000000000008152600401610bca906114b6565b60405180910390fd5b60008111610c16576040517f08c379a0000000000000000000000000000000000000000000000000000000008152600401610c0d906117a7565b60405180910390fd5b600260008154610c25906117f6565b919050819055507f000000000000000000000000000000000000000000000000000000000000000073ffffffffffffffffffffffffffffffffffffffff1663f242432a33308560016040518563ffffffff1660e01b8152600401610c8c94939291906113a7565b600060405180830381600087803b158015610ca657600080fd5b505af1158015610cba573d6000803e3d6000fd5b5050505060006001600060025481526020019081526020016000209050338160000160006101000a81548173ffffffffffffffffffffffffffffffffffffffff021916908373ffffffffffffffffffffffffffffffffffffffff160217905550828160020181905550818160030181905550505050565b7f000000000000000000000000000000000000000000000000000000000000000081565b600063f23a6e6160e01b90509695505050505050565b600080fd5b600080fd5b60007fffffffff0000000000000000000000000000000000000000000000000000000082169050919050565b610daa81610d75565b8114610db557600080fd5b50565b600081359050610dc781610da1565b92915050565b600060208284031215610de357610de2610d6b565b5b6000610df184828501610db8565b91505092915050565b60008115159050919050565b610e0f81610dfa565b82525050565b6000602082019050610e2a6000830184610e06565b92915050565b6000819050919050565b610e4381610e30565b8114610e4e57600080fd5b50565b600081359050610e6081610e3a565b92915050565b600060208284031215610e7c57610e7b610d6b565b5b6000610e8a84828501610e51565b91505092915050565b600073ffffffffffffffffffffffffffffffffffffffff82169050919050565b6000610ebe82610e93565b9050919050565b610ece81610eb3565b8114610ed957600080fd5b50565b600081359050610eeb81610ec5565b92915050565b60008060408385031215610f0857610f07610d6b565b5b6000610f1685828601610edc565b9250506020610f2785828601610e51565b9150509250929050565b600080fd5b600080fd5b600080fd5b60008083601f840112610f5657610f55610f31565b5b8235905067ffffffffffffffff811115610f7357610f72610f36565b5b602083019150836020820283011115610f8f57610f8e610f3b565b5b9250929050565b60008083601f840112610fac57610fab610f31565b5b8235905067ffffffffffffffff811115610fc957610fc8610f36565b5b602083019150836001820283011115610fe557610fe4610f3b565b5b9250929050565b60008060008060008060008060a0898b03121561100c5761100b610d6b565b5b600061101a8b828c01610edc565b985050602061102b8b828c01610edc565b975050604089013567ffffffffffffffff81111561104c5761104b610d70565b5b6110588b828c01610f40565b9650965050606089013567ffffffffffffffff81111561107b5761107a610d70565b5b6110878b828c01610f40565b9450945050608089013567ffffffffffffffff8111156110aa576110a9610d70565b5b6110b68b828c01610f96565b92509250509295985092959890939650565b6110d181610d75565b82525050565b60006020820190506110ec60008301846110c8565b92915050565b6110fb81610e30565b82525050565b600060208201905061111660008301846110f2565b92915050565b600061112782610e93565b9050919050565b6111378161111c565b82525050565b61114681610eb3565b82525050565b600060a082019050611161600083018861112e565b61116e602083018761113d565b61117b60408301866110f2565b61118860608301856110f2565b6111956080830184610e06565b9695505050505050565b600080604083850312156111b6576111b5610d6b565b5b60006111c485828601610e51565b92505060206111d585828601610e51565b9150509250929050565b6000819050919050565b60006112046111ff6111fa84610e93565b6111df565b610e93565b9050919050565b6000611216826111e9565b9050919050565b60006112288261120b565b9050919050565b6112388161121d565b82525050565b6000602082019050611253600083018461122f565b92915050565b60008060008060008060a0878903121561127657611275610d6b565b5b600061128489828a01610edc565b965050602061129589828a01610edc565b95505060406112a689828a01610e51565b94505060606112b789828a01610e51565b935050608087013567ffffffffffffffff8111156112d8576112d7610d70565b5b6112e489828a01610f96565b92509250509295509295509295565b600082825260208201905092915050565b7f596f7520686176656e2774207374616b65642074686973204e46540000000000600082015250565b600061133a601b836112f3565b915061134582611304565b602082019050919050565b600060208201905081810360008301526113698161132d565b9050919050565b600082825260208201905092915050565b50565b6000611391600083611370565b915061139c82611381565b600082019050919050565b600060a0820190506113bc600083018761113d565b6113c9602083018661113d565b6113d660408301856110f2565b6113e360608301846110f2565b81810360808301526113f481611384565b905095945050505050565b6000604082019050611414600083018561113d565b61142160208301846110f2565b9392505050565b60008151905061143781610e3a565b92915050565b60006020828403121561145357611452610d6b565b5b600061146184828501611428565b91505092915050565b7f596f7520646f6e2774206f776e2074686973204e465400000000000000000000600082015250565b60006114a06016836112f3565b91506114ab8261146a565b602082019050919050565b600060208201905081810360008301526114cf81611493565b9050919050565b7f4e46542077697468207468652073616d6520746f6b656e49442063616e6e6f7460008201527f206265207374616b656420616761696e00000000000000000000000000000000602082015250565b60006115326030836112f3565b915061153d826114d6565b604082019050919050565b6000602082019050818103600083015261156181611525565b9050919050565b7f4c697374696e6720646f65736e27742065786973742077726f6e670000000000600082015250565b600061159e601b836112f3565b91506115a982611568565b602082019050919050565b600060208201905081810360008301526115cd81611591565b9050919050565b7f416c726561647920736f6c640000000000000000000000000000000000000000600082015250565b600061160a600c836112f3565b9150611615826115d4565b602082019050919050565b60006020820190508181036000830152611639816115fd565b9050919050565b7f57726f6e67207072696365000000000000000000000000000000000000000000600082015250565b6000611676600b836112f3565b915061168182611640565b602082019050919050565b600060208201905081810360008301526116a581611669565b9050919050565b600081905092915050565b60006116c46000836116ac565b91506116cf82611381565b600082019050919050565b60006116e5826116b7565b9150819050919050565b7f4661696c656420746f2073656e64204574686572000000000000000000000000600082015250565b60006117256014836112f3565b9150611730826116ef565b602082019050919050565b6000602082019050818103600083015261175481611718565b9050919050565b7f50726963652073686f756c642062652067726561746572207468616e20300000600082015250565b6000611791601e836112f3565b915061179c8261175b565b602082019050919050565b600060208201905081810360008301526117c081611784565b9050919050565b7f4e487b7100000000000000000000000000000000000000000000000000000000600052601160045260246000fd5b600061180182610e30565b91507fffffffffffffffffffffffffffffffffffffffffffffffffffffffffffffffff8203611833576118326117c7565b5b60018201905091905056fea2646970667358221220a776b027e2f50d6b7125175378c069679dbd27217423c071ea90cdf6f56603fc64736f6c634300080d0033",
  "linkReferences": {},
  "deployedLinkReferences": {}
}