{
  "_format": "hh-sol-artifact-1",
  "contractName": "DummyERC721",
  "sourceName": "contracts/utils/DummyERC721.sol",
  "abi": [
    {
      "inputs": [
        {
          "internalType": "string",
          "name": "_name",
          "type": "string"
        },
        {
          "internalType": "string",
          "name": "_symbol",
          "type": "string"
        },
        {
          "internalType": "uint256",
          "name": "_maxSupply",
          "type": "uint256"
        }
      ],
      "stateMutability": "nonpayable",
      "type": "constructor"
    },
    {
      "anonymous": false,
      "inputs": [
        {
          "indexed": true,
          "internalType": "address",
          "name": "owner",
          "type": "address"
        },
        {
          "indexed": true,
          "internalType": "address",
          "name": "approved",
          "type": "address"
        },
        {
          "indexed": true,
          "internalType": "uint256",
          "name": "tokenId",
          "type": "uint256"
        }
      ],
      "name": "Approval",
      "type": "event"
    },
    {
      "anonymous": false,
      "inputs": [
        {
          "indexed": true,
          "internalType": "address",
          "name": "owner",
          "type": "address"
        },
        {
          "indexed": true,
          "internalType": "address",
          "name": "operator",
          "type": "address"
        },
        {
          "indexed": false,
          "internalType": "bool",
          "name": "approved",
          "type": "bool"
        }
      ],
      "name": "ApprovalForAll",
      "type": "event"
    },
    {
      "anonymous": false,
      "inputs": [
        {
          "indexed": true,
          "internalType": "address",
          "name": "previousOwner",
          "type": "address"
        },
        {
          "indexed": true,
          "internalType": "address",
          "name": "newOwner",
          "type": "address"
        }
      ],
      "name": "OwnershipTransferred",
      "type": "event"
    },
    {
      "anonymous": false,
      "inputs": [
        {
          "indexed": true,
          "internalType": "address",
          "name": "from",
          "type": "address"
        },
        {
          "indexed": true,
          "internalType": "address",
          "name": "to",
          "type": "address"
        },
        {
          "indexed": true,
          "internalType": "uint256",
          "name": "tokenId",
          "type": "uint256"
        }
      ],
      "name": "Transfer",
      "type": "event"
    },
    {
      "inputs": [
        {
          "internalType": "address",
          "name": "to",
          "type": "address"
        },
        {
          "internalType": "uint256",
          "name": "tokenId",
          "type": "uint256"
        }
      ],
      "name": "approve",
      "outputs": [],
      "stateMutability": "nonpayable",
      "type": "function"
    },
    {
      "inputs": [
        {
          "internalType": "address",
          "name": "owner",
          "type": "address"
        }
      ],
      "name": "balanceOf",
      "outputs": [
        {
          "internalType": "uint256",
          "name": "",
          "type": "uint256"
        }
      ],
      "stateMutability": "view",
      "type": "function"
    },
    {
      "inputs": [],
      "name": "currentSupply",
      "outputs": [
        {
          "internalType": "uint256",
          "name": "",
          "type": "uint256"
        }
      ],
      "stateMutability": "view",
      "type": "function"
    },
    {
      "inputs": [
        {
          "internalType": "uint256",
          "name": "tokenId",
          "type": "uint256"
        }
      ],
      "name": "getApproved",
      "outputs": [
        {
          "internalType": "address",
          "name": "",
          "type": "address"
        }
      ],
      "stateMutability": "view",
      "type": "function"
    },
    {
      "inputs": [
        {
          "internalType": "address",
          "name": "owner",
          "type": "address"
        },
        {
          "internalType": "address",
          "name": "operator",
          "type": "address"
        }
      ],
      "name": "isApprovedForAll",
      "outputs": [
        {
          "internalType": "bool",
          "name": "",
          "type": "bool"
        }
      ],
      "stateMutability": "view",
      "type": "function"
    },
    {
      "inputs": [],
      "name": "mint",
      "outputs": [
        {
          "internalType": "uint256",
          "name": "",
          "type": "uint256"
        }
      ],
      "stateMutability": "nonpayable",
      "type": "function"
    },
    {
      "inputs": [
        {
          "internalType": "uint256",
          "name": "_amount",
          "type": "uint256"
        }
      ],
      "name": "mintBulk",
      "outputs": [],
      "stateMutability": "nonpayable",
      "type": "function"
    },
    {
      "inputs": [],
      "name": "name",
      "outputs": [
        {
          "internalType": "string",
          "name": "",
          "type": "string"
        }
      ],
      "stateMutability": "view",
      "type": "function"
    },
    {
      "inputs": [],
      "name": "owner",
      "outputs": [
        {
          "internalType": "address",
          "name": "",
          "type": "address"
        }
      ],
      "stateMutability": "view",
      "type": "function"
    },
    {
      "inputs": [
        {
          "internalType": "uint256",
          "name": "tokenId",
          "type": "uint256"
        }
      ],
      "name": "ownerOf",
      "outputs": [
        {
          "internalType": "address",
          "name": "",
          "type": "address"
        }
      ],
      "stateMutability": "view",
      "type": "function"
    },
    {
      "inputs": [],
      "name": "renounceOwnership",
      "outputs": [],
      "stateMutability": "nonpayable",
      "type": "function"
    },
    {
      "inputs": [],
      "name": "safeMint",
      "outputs": [
        {
          "internalType": "uint256",
          "name": "",
          "type": "uint256"
        }
      ],
      "stateMutability": "nonpayable",
      "type": "function"
    },
    {
      "inputs": [
        {
          "internalType": "address",
          "name": "from",
          "type": "address"
        },
        {
          "internalType": "address",
          "name": "to",
          "type": "address"
        },
        {
          "internalType": "uint256",
          "name": "tokenId",
          "type": "uint256"
        }
      ],
      "name": "safeTransferFrom",
      "outputs": [],
      "stateMutability": "nonpayable",
      "type": "function"
    },
    {
      "inputs": [
        {
          "internalType": "address",
          "name": "from",
          "type": "address"
        },
        {
          "internalType": "address",
          "name": "to",
          "type": "address"
        },
        {
          "internalType": "uint256",
          "name": "tokenId",
          "type": "uint256"
        },
        {
          "internalType": "bytes",
          "name": "data",
          "type": "bytes"
        }
      ],
      "name": "safeTransferFrom",
      "outputs": [],
      "stateMutability": "nonpayable",
      "type": "function"
    },
    {
      "inputs": [
        {
          "internalType": "address",
          "name": "operator",
          "type": "address"
        },
        {
          "internalType": "bool",
          "name": "approved",
          "type": "bool"
        }
      ],
      "name": "setApprovalForAll",
      "outputs": [],
      "stateMutability": "nonpayable",
      "type": "function"
    },
    {
      "inputs": [
        {
          "internalType": "bytes4",
          "name": "interfaceId",
          "type": "bytes4"
        }
      ],
      "name": "supportsInterface",
      "outputs": [
        {
          "internalType": "bool",
          "name": "",
          "type": "bool"
        }
      ],
      "stateMutability": "view",
      "type": "function"
    },
    {
      "inputs": [],
      "name": "symbol",
      "outputs": [
        {
          "internalType": "string",
          "name": "",
          "type": "string"
        }
      ],
      "stateMutability": "view",
      "type": "function"
    },
    {
      "inputs": [
        {
          "internalType": "uint256",
          "name": "tokenId",
          "type": "uint256"
        }
      ],
      "name": "tokenURI",
      "outputs": [
        {
          "internalType": "string",
          "name": "",
          "type": "string"
        }
      ],
      "stateMutability": "view",
      "type": "function"
    },
    {
      "inputs": [
        {
          "internalType": "address",
          "name": "from",
          "type": "address"
        },
        {
          "internalType": "address",
          "name": "to",
          "type": "address"
        },
        {
          "internalType": "uint256",
          "name": "tokenId",
          "type": "uint256"
        }
      ],
      "name": "transferFrom",
      "outputs": [],
      "stateMutability": "nonpayable",
      "type": "function"
    },
    {
      "inputs": [
        {
          "internalType": "address",
          "name": "newOwner",
          "type": "address"
        }
      ],
      "name": "transferOwnership",
      "outputs": [],
      "stateMutability": "nonpayable",
      "type": "function"
    }
  ],
  "bytecode": "0x608060405260006008553480156200001657600080fd5b50604051620031233803806200312383398181016040528101906200003c9190620003f8565b828281600090805190602001906200005692919062000170565b5080600190805190602001906200006f92919062000170565b5050506200009262000086620000a260201b60201c565b620000aa60201b60201c565b80600781905550505050620004f6565b600033905090565b6000600660009054906101000a900473ffffffffffffffffffffffffffffffffffffffff16905081600660006101000a81548173ffffffffffffffffffffffffffffffffffffffff021916908373ffffffffffffffffffffffffffffffffffffffff1602179055508173ffffffffffffffffffffffffffffffffffffffff168173ffffffffffffffffffffffffffffffffffffffff167f8be0079c531659141344cd1fd0a4f28419497f9722a3daafe3b4186f6b6457e060405160405180910390a35050565b8280546200017e90620004c1565b90600052602060002090601f016020900481019282620001a25760008555620001ee565b82601f10620001bd57805160ff1916838001178555620001ee565b82800160010185558215620001ee579182015b82811115620001ed578251825591602001919060010190620001d0565b5b509050620001fd919062000201565b5090565b5b808211156200021c57600081600090555060010162000202565b5090565b6000604051905090565b600080fd5b600080fd5b600080fd5b600080fd5b6000601f19601f8301169050919050565b7f4e487b7100000000000000000000000000000000000000000000000000000000600052604160045260246000fd5b62000289826200023e565b810181811067ffffffffffffffff82111715620002ab57620002aa6200024f565b5b80604052505050565b6000620002c062000220565b9050620002ce82826200027e565b919050565b600067ffffffffffffffff821115620002f157620002f06200024f565b5b620002fc826200023e565b9050602081019050919050565b60005b83811015620003295780820151818401526020810190506200030c565b8381111562000339576000848401525b50505050565b6000620003566200035084620002d3565b620002b4565b90508281526020810184848401111562000375576200037462000239565b5b6200038284828562000309565b509392505050565b600082601f830112620003a257620003a162000234565b5b8151620003b48482602086016200033f565b91505092915050565b6000819050919050565b620003d281620003bd565b8114620003de57600080fd5b50565b600081519050620003f281620003c7565b92915050565b6000806000606084860312156200041457620004136200022a565b5b600084015167ffffffffffffffff8111156200043557620004346200022f565b5b62000443868287016200038a565b935050602084015167ffffffffffffffff8111156200046757620004666200022f565b5b62000475868287016200038a565b92505060406200048886828701620003e1565b9150509250925092565b7f4e487b7100000000000000000000000000000000000000000000000000000000600052602260045260246000fd5b60006002820490506001821680620004da57607f821691505b602082108103620004f057620004ef62000492565b5b50919050565b612c1d80620005066000396000f3fe608060405234801561001057600080fd5b506004361061012c5760003560e01c806370a08231116100ad578063a22cb46511610071578063a22cb4651461031f578063b88d4fde1461033b578063c87b56dd14610357578063e985e9c514610387578063f2fde38b146103b75761012c565b806370a082311461028b578063715018a6146102bb578063771282f6146102c55780638da5cb5b146102e357806395d89b41146103015761012c565b806323b872dd116100f457806323b872dd146101e957806342842e0e146102055780635e297233146102215780636352211e1461023d5780636871ee401461026d5761012c565b806301ffc9a71461013157806306fdde0314610161578063081812fc1461017f578063095ea7b3146101af5780631249c58b146101cb575b600080fd5b61014b60048036038101906101469190611ca5565b6103d3565b6040516101589190611ced565b60405180910390f35b6101696104b5565b6040516101769190611da1565b60405180910390f35b61019960048036038101906101949190611df9565b610547565b6040516101a69190611e67565b60405180910390f35b6101c960048036038101906101c49190611eae565b61058d565b005b6101d36106a4565b6040516101e09190611efd565b60405180910390f35b61020360048036038101906101fe9190611f18565b6106c2565b005b61021f600480360381019061021a9190611f18565b610722565b005b61023b60048036038101906102369190611df9565b610742565b005b61025760048036038101906102529190611df9565b610775565b6040516102649190611e67565b60405180910390f35b6102756107fb565b6040516102829190611efd565b60405180910390f35b6102a560048036038101906102a09190611f6b565b610819565b6040516102b29190611efd565b60405180910390f35b6102c36108d0565b005b6102cd6108e4565b6040516102da9190611efd565b60405180910390f35b6102eb6108ea565b6040516102f89190611e67565b60405180910390f35b610309610914565b6040516103169190611da1565b60405180910390f35b61033960048036038101906103349190611fc4565b6109a6565b005b61035560048036038101906103509190612139565b6109bc565b005b610371600480360381019061036c9190611df9565b610a1e565b60405161037e9190611da1565b60405180910390f35b6103a1600480360381019061039c91906121bc565b610a86565b6040516103ae9190611ced565b60405180910390f35b6103d160048036038101906103cc9190611f6b565b610b1a565b005b60007f80ac58cd000000000000000000000000000000000000000000000000000000007bffffffffffffffffffffffffffffffffffffffffffffffffffffffff1916827bffffffffffffffffffffffffffffffffffffffffffffffffffffffff1916148061049e57507f5b5e139f000000000000000000000000000000000000000000000000000000007bffffffffffffffffffffffffffffffffffffffffffffffffffffffff1916827bffffffffffffffffffffffffffffffffffffffffffffffffffffffff1916145b806104ae57506104ad82610b9d565b5b9050919050565b6060600080546104c49061222b565b80601f01602080910402602001604051908101604052809291908181526020018280546104f09061222b565b801561053d5780601f106105125761010080835404028352916020019161053d565b820191906000526020600020905b81548152906001019060200180831161052057829003601f168201915b5050505050905090565b600061055282610c07565b6004600083815260200190815260200160002060009054906101000a900473ffffffffffffffffffffffffffffffffffffffff169050919050565b600061059882610775565b90508073ffffffffffffffffffffffffffffffffffffffff168373ffffffffffffffffffffffffffffffffffffffff1603610608576040517f08c379a00000000000000000000000000000000000000000000000000000000081526004016105ff906122ce565b60405180910390fd5b8073ffffffffffffffffffffffffffffffffffffffff16610627610c52565b73ffffffffffffffffffffffffffffffffffffffff161480610656575061065581610650610c52565b610a86565b5b610695576040517f08c379a000000000000000000000000000000000000000000000000000000000815260040161068c90612360565b60405180910390fd5b61069f8383610c5a565b505050565b6000806106af610d13565b90506106bb3382610d7d565b8091505090565b6106d36106cd610c52565b82610f9a565b610712576040517f08c379a0000000000000000000000000000000000000000000000000000000008152600401610709906123f2565b60405180910390fd5b61071d83838361102f565b505050565b61073d838383604051806020016040528060008152506109bc565b505050565b61074a611328565b60005b818110156107715761075d6106a4565b50808061076990612441565b91505061074d565b5050565b600080610781836113a6565b9050600073ffffffffffffffffffffffffffffffffffffffff168173ffffffffffffffffffffffffffffffffffffffff16036107f2576040517f08c379a00000000000000000000000000000000000000000000000000000000081526004016107e9906124d5565b60405180910390fd5b80915050919050565b600080610806610d13565b905061081233826113e3565b8091505090565b60008073ffffffffffffffffffffffffffffffffffffffff168273ffffffffffffffffffffffffffffffffffffffff1603610889576040517f08c379a000000000000000000000000000000000000000000000000000000000815260040161088090612567565b60405180910390fd5b600360008373ffffffffffffffffffffffffffffffffffffffff1673ffffffffffffffffffffffffffffffffffffffff168152602001908152602001600020549050919050565b6108d8611328565b6108e26000611401565b565b60085481565b6000600660009054906101000a900473ffffffffffffffffffffffffffffffffffffffff16905090565b6060600180546109239061222b565b80601f016020809104026020016040519081016040528092919081815260200182805461094f9061222b565b801561099c5780601f106109715761010080835404028352916020019161099c565b820191906000526020600020905b81548152906001019060200180831161097f57829003601f168201915b5050505050905090565b6109b86109b1610c52565b83836114c7565b5050565b6109cd6109c7610c52565b83610f9a565b610a0c576040517f08c379a0000000000000000000000000000000000000000000000000000000008152600401610a03906123f2565b60405180910390fd5b610a1884848484611633565b50505050565b6060610a2982610c07565b6000610a3361168f565b90506000815111610a535760405180602001604052806000815250610a7e565b80610a5d846116a6565b604051602001610a6e9291906125c3565b6040516020818303038152906040525b915050919050565b6000600560008473ffffffffffffffffffffffffffffffffffffffff1673ffffffffffffffffffffffffffffffffffffffff16815260200190815260200160002060008373ffffffffffffffffffffffffffffffffffffffff1673ffffffffffffffffffffffffffffffffffffffff16815260200190815260200160002060009054906101000a900460ff16905092915050565b610b22611328565b600073ffffffffffffffffffffffffffffffffffffffff168173ffffffffffffffffffffffffffffffffffffffff1603610b91576040517f08c379a0000000000000000000000000000000000000000000000000000000008152600401610b8890612659565b60405180910390fd5b610b9a81611401565b50565b60007f01ffc9a7000000000000000000000000000000000000000000000000000000007bffffffffffffffffffffffffffffffffffffffffffffffffffffffff1916827bffffffffffffffffffffffffffffffffffffffffffffffffffffffff1916149050919050565b610c1081611774565b610c4f576040517f08c379a0000000000000000000000000000000000000000000000000000000008152600401610c46906124d5565b60405180910390fd5b50565b600033905090565b816004600083815260200190815260200160002060006101000a81548173ffffffffffffffffffffffffffffffffffffffff021916908373ffffffffffffffffffffffffffffffffffffffff160217905550808273ffffffffffffffffffffffffffffffffffffffff16610ccd83610775565b73ffffffffffffffffffffffffffffffffffffffff167f8c5be1e5ebec7d5bd14f71427d1e84f3dd0314c0f7b2291e5b200ac8c7c3b92560405160405180910390a45050565b600060075460085410610d5b576040517f08c379a0000000000000000000000000000000000000000000000000000000008152600401610d52906126c5565b60405180910390fd5b600160086000828254610d6e91906126e5565b92505081905550600854905090565b600073ffffffffffffffffffffffffffffffffffffffff168273ffffffffffffffffffffffffffffffffffffffff1603610dec576040517f08c379a0000000000000000000000000000000000000000000000000000000008152600401610de390612787565b60405180910390fd5b610df581611774565b15610e35576040517f08c379a0000000000000000000000000000000000000000000000000000000008152600401610e2c906127f3565b60405180910390fd5b610e436000838360016117b5565b610e4c81611774565b15610e8c576040517f08c379a0000000000000000000000000000000000000000000000000000000008152600401610e83906127f3565b60405180910390fd5b6001600360008473ffffffffffffffffffffffffffffffffffffffff1673ffffffffffffffffffffffffffffffffffffffff16815260200190815260200160002060008282540192505081905550816002600083815260200190815260200160002060006101000a81548173ffffffffffffffffffffffffffffffffffffffff021916908373ffffffffffffffffffffffffffffffffffffffff160217905550808273ffffffffffffffffffffffffffffffffffffffff16600073ffffffffffffffffffffffffffffffffffffffff167fddf252ad1be2c89b69c2b068fc378daa952ba7f163c4a11628f55a4df523b3ef60405160405180910390a4610f966000838360016118db565b5050565b600080610fa683610775565b90508073ffffffffffffffffffffffffffffffffffffffff168473ffffffffffffffffffffffffffffffffffffffff161480610fe85750610fe78185610a86565b5b8061102657508373ffffffffffffffffffffffffffffffffffffffff1661100e84610547565b73ffffffffffffffffffffffffffffffffffffffff16145b91505092915050565b8273ffffffffffffffffffffffffffffffffffffffff1661104f82610775565b73ffffffffffffffffffffffffffffffffffffffff16146110a5576040517f08c379a000000000000000000000000000000000000000000000000000000000815260040161109c90612885565b60405180910390fd5b600073ffffffffffffffffffffffffffffffffffffffff168273ffffffffffffffffffffffffffffffffffffffff1603611114576040517f08c379a000000000000000000000000000000000000000000000000000000000815260040161110b90612917565b60405180910390fd5b61112183838360016117b5565b8273ffffffffffffffffffffffffffffffffffffffff1661114182610775565b73ffffffffffffffffffffffffffffffffffffffff1614611197576040517f08c379a000000000000000000000000000000000000000000000000000000000815260040161118e90612885565b60405180910390fd5b6004600082815260200190815260200160002060006101000a81549073ffffffffffffffffffffffffffffffffffffffff02191690556001600360008573ffffffffffffffffffffffffffffffffffffffff1673ffffffffffffffffffffffffffffffffffffffff168152602001908152602001600020600082825403925050819055506001600360008473ffffffffffffffffffffffffffffffffffffffff1673ffffffffffffffffffffffffffffffffffffffff16815260200190815260200160002060008282540192505081905550816002600083815260200190815260200160002060006101000a81548173ffffffffffffffffffffffffffffffffffffffff021916908373ffffffffffffffffffffffffffffffffffffffff160217905550808273ffffffffffffffffffffffffffffffffffffffff168473ffffffffffffffffffffffffffffffffffffffff167fddf252ad1be2c89b69c2b068fc378daa952ba7f163c4a11628f55a4df523b3ef60405160405180910390a461132383838360016118db565b505050565b611330610c52565b73ffffffffffffffffffffffffffffffffffffffff1661134e6108ea565b73ffffffffffffffffffffffffffffffffffffffff16146113a4576040517f08c379a000000000000000000000000000000000000000000000000000000000815260040161139b90612983565b60405180910390fd5b565b60006002600083815260200190815260200160002060009054906101000a900473ffffffffffffffffffffffffffffffffffffffff169050919050565b6113fd8282604051806020016040528060008152506118e1565b5050565b6000600660009054906101000a900473ffffffffffffffffffffffffffffffffffffffff16905081600660006101000a81548173ffffffffffffffffffffffffffffffffffffffff021916908373ffffffffffffffffffffffffffffffffffffffff1602179055508173ffffffffffffffffffffffffffffffffffffffff168173ffffffffffffffffffffffffffffffffffffffff167f8be0079c531659141344cd1fd0a4f28419497f9722a3daafe3b4186f6b6457e060405160405180910390a35050565b8173ffffffffffffffffffffffffffffffffffffffff168373ffffffffffffffffffffffffffffffffffffffff1603611535576040517f08c379a000000000000000000000000000000000000000000000000000000000815260040161152c906129ef565b60405180910390fd5b80600560008573ffffffffffffffffffffffffffffffffffffffff1673ffffffffffffffffffffffffffffffffffffffff16815260200190815260200160002060008473ffffffffffffffffffffffffffffffffffffffff1673ffffffffffffffffffffffffffffffffffffffff16815260200190815260200160002060006101000a81548160ff0219169083151502179055508173ffffffffffffffffffffffffffffffffffffffff168373ffffffffffffffffffffffffffffffffffffffff167f17307eab39ab6107e8899845ad3d59bd9653f200f220920489ca2b5937696c31836040516116269190611ced565b60405180910390a3505050565b61163e84848461102f565b61164a8484848461193c565b611689576040517f08c379a000000000000000000000000000000000000000000000000000000000815260040161168090612a81565b60405180910390fd5b50505050565b606060405180602001604052806000815250905090565b6060600060016116b584611ac3565b01905060008167ffffffffffffffff8111156116d4576116d361200e565b5b6040519080825280601f01601f1916602001820160405280156117065781602001600182028036833780820191505090505b509050600082602001820190505b600115611769578080600190039150507f3031323334353637383961626364656600000000000000000000000000000000600a86061a8153600a858161175d5761175c612aa1565b5b04945060008503611714575b819350505050919050565b60008073ffffffffffffffffffffffffffffffffffffffff16611796836113a6565b73ffffffffffffffffffffffffffffffffffffffff1614159050919050565b60018111156118d557600073ffffffffffffffffffffffffffffffffffffffff168473ffffffffffffffffffffffffffffffffffffffff16146118495780600360008673ffffffffffffffffffffffffffffffffffffffff1673ffffffffffffffffffffffffffffffffffffffff16815260200190815260200160002060008282546118419190612ad0565b925050819055505b600073ffffffffffffffffffffffffffffffffffffffff168373ffffffffffffffffffffffffffffffffffffffff16146118d45780600360008573ffffffffffffffffffffffffffffffffffffffff1673ffffffffffffffffffffffffffffffffffffffff16815260200190815260200160002060008282546118cc91906126e5565b925050819055505b5b50505050565b50505050565b6118eb8383610d7d565b6118f8600084848461193c565b611937576040517f08c379a000000000000000000000000000000000000000000000000000000000815260040161192e90612a81565b60405180910390fd5b505050565b600061195d8473ffffffffffffffffffffffffffffffffffffffff16611c16565b15611ab6578373ffffffffffffffffffffffffffffffffffffffff1663150b7a02611986610c52565b8786866040518563ffffffff1660e01b81526004016119a89493929190612b59565b6020604051808303816000875af19250505080156119e457506040513d601f19601f820116820180604052508101906119e19190612bba565b60015b611a66573d8060008114611a14576040519150601f19603f3d011682016040523d82523d6000602084013e611a19565b606091505b506000815103611a5e576040517f08c379a0000000000000000000000000000000000000000000000000000000008152600401611a5590612a81565b60405180910390fd5b805181602001fd5b63150b7a0260e01b7bffffffffffffffffffffffffffffffffffffffffffffffffffffffff1916817bffffffffffffffffffffffffffffffffffffffffffffffffffffffff191614915050611abb565b600190505b949350505050565b600080600090507a184f03e93ff9f4daa797ed6e38ed64bf6a1f0100000000000000008310611b21577a184f03e93ff9f4daa797ed6e38ed64bf6a1f0100000000000000008381611b1757611b16612aa1565b5b0492506040810190505b6d04ee2d6d415b85acef81000000008310611b5e576d04ee2d6d415b85acef81000000008381611b5457611b53612aa1565b5b0492506020810190505b662386f26fc100008310611b8d57662386f26fc100008381611b8357611b82612aa1565b5b0492506010810190505b6305f5e1008310611bb6576305f5e1008381611bac57611bab612aa1565b5b0492506008810190505b6127108310611bdb576127108381611bd157611bd0612aa1565b5b0492506004810190505b60648310611bfe5760648381611bf457611bf3612aa1565b5b0492506002810190505b600a8310611c0d576001810190505b80915050919050565b6000808273ffffffffffffffffffffffffffffffffffffffff163b119050919050565b6000604051905090565b600080fd5b600080fd5b60007fffffffff0000000000000000000000000000000000000000000000000000000082169050919050565b611c8281611c4d565b8114611c8d57600080fd5b50565b600081359050611c9f81611c79565b92915050565b600060208284031215611cbb57611cba611c43565b5b6000611cc984828501611c90565b91505092915050565b60008115159050919050565b611ce781611cd2565b82525050565b6000602082019050611d026000830184611cde565b92915050565b600081519050919050565b600082825260208201905092915050565b60005b83811015611d42578082015181840152602081019050611d27565b83811115611d51576000848401525b50505050565b6000601f19601f8301169050919050565b6000611d7382611d08565b611d7d8185611d13565b9350611d8d818560208601611d24565b611d9681611d57565b840191505092915050565b60006020820190508181036000830152611dbb8184611d68565b905092915050565b6000819050919050565b611dd681611dc3565b8114611de157600080fd5b50565b600081359050611df381611dcd565b92915050565b600060208284031215611e0f57611e0e611c43565b5b6000611e1d84828501611de4565b91505092915050565b600073ffffffffffffffffffffffffffffffffffffffff82169050919050565b6000611e5182611e26565b9050919050565b611e6181611e46565b82525050565b6000602082019050611e7c6000830184611e58565b92915050565b611e8b81611e46565b8114611e9657600080fd5b50565b600081359050611ea881611e82565b92915050565b60008060408385031215611ec557611ec4611c43565b5b6000611ed385828601611e99565b9250506020611ee485828601611de4565b9150509250929050565b611ef781611dc3565b82525050565b6000602082019050611f126000830184611eee565b92915050565b600080600060608486031215611f3157611f30611c43565b5b6000611f3f86828701611e99565b9350506020611f5086828701611e99565b9250506040611f6186828701611de4565b9150509250925092565b600060208284031215611f8157611f80611c43565b5b6000611f8f84828501611e99565b91505092915050565b611fa181611cd2565b8114611fac57600080fd5b50565b600081359050611fbe81611f98565b92915050565b60008060408385031215611fdb57611fda611c43565b5b6000611fe985828601611e99565b9250506020611ffa85828601611faf565b9150509250929050565b600080fd5b600080fd5b7f4e487b7100000000000000000000000000000000000000000000000000000000600052604160045260246000fd5b61204682611d57565b810181811067ffffffffffffffff821117156120655761206461200e565b5b80604052505050565b6000612078611c39565b9050612084828261203d565b919050565b600067ffffffffffffffff8211156120a4576120a361200e565b5b6120ad82611d57565b9050602081019050919050565b82818337600083830152505050565b60006120dc6120d784612089565b61206e565b9050828152602081018484840111156120f8576120f7612009565b5b6121038482856120ba565b509392505050565b600082601f8301126121205761211f612004565b5b81356121308482602086016120c9565b91505092915050565b6000806000806080858703121561215357612152611c43565b5b600061216187828801611e99565b945050602061217287828801611e99565b935050604061218387828801611de4565b925050606085013567ffffffffffffffff8111156121a4576121a3611c48565b5b6121b08782880161210b565b91505092959194509250565b600080604083850312156121d3576121d2611c43565b5b60006121e185828601611e99565b92505060206121f285828601611e99565b9150509250929050565b7f4e487b7100000000000000000000000000000000000000000000000000000000600052602260045260246000fd5b6000600282049050600182168061224357607f821691505b602082108103612256576122556121fc565b5b50919050565b7f4552433732313a20617070726f76616c20746f2063757272656e74206f776e6560008201527f7200000000000000000000000000000000000000000000000000000000000000602082015250565b60006122b8602183611d13565b91506122c38261225c565b604082019050919050565b600060208201905081810360008301526122e7816122ab565b9050919050565b7f4552433732313a20617070726f76652063616c6c6572206973206e6f7420746f60008201527f6b656e206f776e6572206f7220617070726f76656420666f7220616c6c000000602082015250565b600061234a603d83611d13565b9150612355826122ee565b604082019050919050565b600060208201905081810360008301526123798161233d565b9050919050565b7f4552433732313a2063616c6c6572206973206e6f7420746f6b656e206f776e6560008201527f72206f7220617070726f76656400000000000000000000000000000000000000602082015250565b60006123dc602d83611d13565b91506123e782612380565b604082019050919050565b6000602082019050818103600083015261240b816123cf565b9050919050565b7f4e487b7100000000000000000000000000000000000000000000000000000000600052601160045260246000fd5b600061244c82611dc3565b91507fffffffffffffffffffffffffffffffffffffffffffffffffffffffffffffffff820361247e5761247d612412565b5b600182019050919050565b7f4552433732313a20696e76616c696420746f6b656e2049440000000000000000600082015250565b60006124bf601883611d13565b91506124ca82612489565b602082019050919050565b600060208201905081810360008301526124ee816124b2565b9050919050565b7f4552433732313a2061646472657373207a65726f206973206e6f74206120766160008201527f6c6964206f776e65720000000000000000000000000000000000000000000000602082015250565b6000612551602983611d13565b915061255c826124f5565b604082019050919050565b6000602082019050818103600083015261258081612544565b9050919050565b600081905092915050565b600061259d82611d08565b6125a78185612587565b93506125b7818560208601611d24565b80840191505092915050565b60006125cf8285612592565b91506125db8284612592565b91508190509392505050565b7f4f776e61626c653a206e6577206f776e657220697320746865207a65726f206160008201527f6464726573730000000000000000000000000000000000000000000000000000602082015250565b6000612643602683611d13565b915061264e826125e7565b604082019050919050565b6000602082019050818103600083015261267281612636565b9050919050565b7f6d617820737570706c7920726561636865640000000000000000000000000000600082015250565b60006126af601283611d13565b91506126ba82612679565b602082019050919050565b600060208201905081810360008301526126de816126a2565b9050919050565b60006126f082611dc3565b91506126fb83611dc3565b9250827fffffffffffffffffffffffffffffffffffffffffffffffffffffffffffffffff038211156127305761272f612412565b5b828201905092915050565b7f4552433732313a206d696e7420746f20746865207a65726f2061646472657373600082015250565b6000612771602083611d13565b915061277c8261273b565b602082019050919050565b600060208201905081810360008301526127a081612764565b9050919050565b7f4552433732313a20746f6b656e20616c7265616479206d696e74656400000000600082015250565b60006127dd601c83611d13565b91506127e8826127a7565b602082019050919050565b6000602082019050818103600083015261280c816127d0565b9050919050565b7f4552433732313a207472616e736665722066726f6d20696e636f72726563742060008201527f6f776e6572000000000000000000000000000000000000000000000000000000602082015250565b600061286f602583611d13565b915061287a82612813565b604082019050919050565b6000602082019050818103600083015261289e81612862565b9050919050565b7f4552433732313a207472616e7366657220746f20746865207a65726f2061646460008201527f7265737300000000000000000000000000000000000000000000000000000000602082015250565b6000612901602483611d13565b915061290c826128a5565b604082019050919050565b60006020820190508181036000830152612930816128f4565b9050919050565b7f4f776e61626c653a2063616c6c6572206973206e6f7420746865206f776e6572600082015250565b600061296d602083611d13565b915061297882612937565b602082019050919050565b6000602082019050818103600083015261299c81612960565b9050919050565b7f4552433732313a20617070726f766520746f2063616c6c657200000000000000600082015250565b60006129d9601983611d13565b91506129e4826129a3565b602082019050919050565b60006020820190508181036000830152612a08816129cc565b9050919050565b7f4552433732313a207472616e7366657220746f206e6f6e20455243373231526560008201527f63656976657220696d706c656d656e7465720000000000000000000000000000602082015250565b6000612a6b603283611d13565b9150612a7682612a0f565b604082019050919050565b60006020820190508181036000830152612a9a81612a5e565b9050919050565b7f4e487b7100000000000000000000000000000000000000000000000000000000600052601260045260246000fd5b6000612adb82611dc3565b9150612ae683611dc3565b925082821015612af957612af8612412565b5b828203905092915050565b600081519050919050565b600082825260208201905092915050565b6000612b2b82612b04565b612b358185612b0f565b9350612b45818560208601611d24565b612b4e81611d57565b840191505092915050565b6000608082019050612b6e6000830187611e58565b612b7b6020830186611e58565b612b886040830185611eee565b8181036060830152612b9a8184612b20565b905095945050505050565b600081519050612bb481611c79565b92915050565b600060208284031215612bd057612bcf611c43565b5b6000612bde84828501612ba5565b9150509291505056fea26469706673582212205179ee689c04b97859010826e97c99ce244f1f189c72da1738f2566284b5ac2764736f6c634300080d0033",
  "linkReferences": {},
  "deployedLinkReferences": {}
}