{
  "_format": "hh-sol-artifact-1",
  "contractName": "Game",
  "sourceName": "contracts/randomness-vulnerabilities-1/Game.sol",
  "abi": [
    {
      "inputs": [],
      "stateMutability": "payable",
      "type": "constructor"
    },
    {
      "inputs": [
        {
          "internalType": "uint256",
          "name": "guess",
          "type": "uint256"
        }
      ],
      "name": "play",
      "outputs": [],
      "stateMutability": "nonpayable",
      "type": "function"
    }
  ],
  "bytecode": "0x60806040526102f6806100136000396000f3fe608060405234801561001057600080fd5b506004361061002b5760003560e01c80636898f82b14610030575b600080fd5b61004a60048036038101906100459190610172565b61004c565b005b6000424344604051602001610063939291906101c0565b6040516020818303038152906040528051906020012060001c90508082036101335760003373ffffffffffffffffffffffffffffffffffffffff16476040516100ab9061022e565b60006040518083038185875af1925050503d80600081146100e8576040519150601f19603f3d011682016040523d82523d6000602084013e6100ed565b606091505b5050905080610131576040517f08c379a0000000000000000000000000000000000000000000000000000000008152600401610128906102a0565b60405180910390fd5b505b5050565b600080fd5b6000819050919050565b61014f8161013c565b811461015a57600080fd5b50565b60008135905061016c81610146565b92915050565b60006020828403121561018857610187610137565b5b60006101968482850161015d565b91505092915050565b6000819050919050565b6101ba6101b58261013c565b61019f565b82525050565b60006101cc82866101a9565b6020820191506101dc82856101a9565b6020820191506101ec82846101a9565b602082019150819050949350505050565b600081905092915050565b50565b60006102186000836101fd565b915061022382610208565b600082019050919050565b60006102398261020b565b9150819050919050565b600082825260208201905092915050565b7f4661696c656420746f2073656e64204554480000000000000000000000000000600082015250565b600061028a601283610243565b915061029582610254565b602082019050919050565b600060208201905081810360008301526102b98161027d565b905091905056fea264697066735822122093558a9bf612a065e074cfc67cef8df7f7de4927e1634f1958d152adac58f6d864736f6c634300080d0033",
  "linkReferences": {},
  "deployedLinkReferences": {}
}