{
  "_format": "hh-sol-artifact-1",
  "contractName": "KilianExclusive",
  "sourceName": "contracts/access-control-3/KilianExclusive.sol",
  "abi": [
    {
      "inputs": [],
      "stateMutability": "nonpayable",
      "type": "constructor"
    },
    {
      "anonymous": false,
      "inputs": [
        {
          "indexed": true,
          "internalType": "address",
          "name": "owner",
          "type": "address"
        },
        {
          "indexed": true,
          "internalType": "address",
          "name": "approved",
          "type": "address"
        },
        {
          "indexed": true,
          "internalType": "uint256",
          "name": "tokenId",
          "type": "uint256"
        }
      ],
      "name": "Approval",
      "type": "event"
    },
    {
      "anonymous": false,
      "inputs": [
        {
          "indexed": true,
          "internalType": "address",
          "name": "owner",
          "type": "address"
        },
        {
          "indexed": true,
          "internalType": "address",
          "name": "operator",
          "type": "address"
        },
        {
          "indexed": false,
          "internalType": "bool",
          "name": "approved",
          "type": "bool"
        }
      ],
      "name": "ApprovalForAll",
      "type": "event"
    },
    {
      "anonymous": false,
      "inputs": [
        {
          "indexed": true,
          "internalType": "address",
          "name": "previousOwner",
          "type": "address"
        },
        {
          "indexed": true,
          "internalType": "address",
          "name": "newOwner",
          "type": "address"
        }
      ],
      "name": "OwnershipTransferred",
      "type": "event"
    },
    {
      "anonymous": false,
      "inputs": [
        {
          "indexed": true,
          "internalType": "address",
          "name": "from",
          "type": "address"
        },
        {
          "indexed": true,
          "internalType": "address",
          "name": "to",
          "type": "address"
        },
        {
          "indexed": true,
          "internalType": "uint256",
          "name": "tokenId",
          "type": "uint256"
        }
      ],
      "name": "Transfer",
      "type": "event"
    },
    {
      "inputs": [
        {
          "internalType": "string",
          "name": "_name",
          "type": "string"
        }
      ],
      "name": "addFragrance",
      "outputs": [],
      "stateMutability": "nonpayable",
      "type": "function"
    },
    {
      "inputs": [
        {
          "internalType": "address",
          "name": "to",
          "type": "address"
        },
        {
          "internalType": "uint256",
          "name": "tokenId",
          "type": "uint256"
        }
      ],
      "name": "approve",
      "outputs": [],
      "stateMutability": "nonpayable",
      "type": "function"
    },
    {
      "inputs": [
        {
          "internalType": "address",
          "name": "owner",
          "type": "address"
        }
      ],
      "name": "balanceOf",
      "outputs": [
        {
          "internalType": "uint256",
          "name": "",
          "type": "uint256"
        }
      ],
      "stateMutability": "view",
      "type": "function"
    },
    {
      "inputs": [],
      "name": "baseURI",
      "outputs": [
        {
          "internalType": "string",
          "name": "",
          "type": "string"
        }
      ],
      "stateMutability": "view",
      "type": "function"
    },
    {
      "inputs": [],
      "name": "flipSaleState",
      "outputs": [],
      "stateMutability": "nonpayable",
      "type": "function"
    },
    {
      "inputs": [],
      "name": "fragrancePrice",
      "outputs": [
        {
          "internalType": "uint256",
          "name": "",
          "type": "uint256"
        }
      ],
      "stateMutability": "view",
      "type": "function"
    },
    {
      "inputs": [
        {
          "internalType": "uint16",
          "name": "",
          "type": "uint16"
        }
      ],
      "name": "fragrances",
      "outputs": [
        {
          "internalType": "uint16",
          "name": "id",
          "type": "uint16"
        },
        {
          "internalType": "string",
          "name": "name",
          "type": "string"
        },
        {
          "internalType": "uint256",
          "name": "mintedAt",
          "type": "uint256"
        },
        {
          "internalType": "uint256",
          "name": "lastRefill",
          "type": "uint256"
        }
      ],
      "stateMutability": "view",
      "type": "function"
    },
    {
      "inputs": [
        {
          "internalType": "uint256",
          "name": "tokenId",
          "type": "uint256"
        }
      ],
      "name": "getApproved",
      "outputs": [
        {
          "internalType": "address",
          "name": "",
          "type": "address"
        }
      ],
      "stateMutability": "view",
      "type": "function"
    },
    {
      "inputs": [
        {
          "internalType": "string",
          "name": "_fragranceId",
          "type": "string"
        }
      ],
      "name": "getFragrenceData",
      "outputs": [
        {
          "internalType": "string",
          "name": "",
          "type": "string"
        }
      ],
      "stateMutability": "view",
      "type": "function"
    },
    {
      "inputs": [
        {
          "internalType": "address",
          "name": "owner",
          "type": "address"
        },
        {
          "internalType": "address",
          "name": "operator",
          "type": "address"
        }
      ],
      "name": "isApprovedForAll",
      "outputs": [
        {
          "internalType": "bool",
          "name": "",
          "type": "bool"
        }
      ],
      "stateMutability": "view",
      "type": "function"
    },
    {
      "inputs": [],
      "name": "name",
      "outputs": [
        {
          "internalType": "string",
          "name": "",
          "type": "string"
        }
      ],
      "stateMutability": "view",
      "type": "function"
    },
    {
      "inputs": [],
      "name": "owner",
      "outputs": [
        {
          "internalType": "address",
          "name": "",
          "type": "address"
        }
      ],
      "stateMutability": "view",
      "type": "function"
    },
    {
      "inputs": [
        {
          "internalType": "uint256",
          "name": "tokenId",
          "type": "uint256"
        }
      ],
      "name": "ownerOf",
      "outputs": [
        {
          "internalType": "address",
          "name": "",
          "type": "address"
        }
      ],
      "stateMutability": "view",
      "type": "function"
    },
    {
      "inputs": [
        {
          "internalType": "uint16",
          "name": "_fragranceId",
          "type": "uint16"
        }
      ],
      "name": "purchaseFragrance",
      "outputs": [],
      "stateMutability": "payable",
      "type": "function"
    },
    {
      "inputs": [
        {
          "internalType": "uint16",
          "name": "_fragranceId",
          "type": "uint16"
        }
      ],
      "name": "refillPerfume",
      "outputs": [],
      "stateMutability": "nonpayable",
      "type": "function"
    },
    {
      "inputs": [],
      "name": "renounceOwnership",
      "outputs": [],
      "stateMutability": "nonpayable",
      "type": "function"
    },
    {
      "inputs": [
        {
          "internalType": "address",
          "name": "from",
          "type": "address"
        },
        {
          "internalType": "address",
          "name": "to",
          "type": "address"
        },
        {
          "internalType": "uint256",
          "name": "tokenId",
          "type": "uint256"
        }
      ],
      "name": "safeTransferFrom",
      "outputs": [],
      "stateMutability": "nonpayable",
      "type": "function"
    },
    {
      "inputs": [
        {
          "internalType": "address",
          "name": "from",
          "type": "address"
        },
        {
          "internalType": "address",
          "name": "to",
          "type": "address"
        },
        {
          "internalType": "uint256",
          "name": "tokenId",
          "type": "uint256"
        },
        {
          "internalType": "bytes",
          "name": "data",
          "type": "bytes"
        }
      ],
      "name": "safeTransferFrom",
      "outputs": [],
      "stateMutability": "nonpayable",
      "type": "function"
    },
    {
      "inputs": [],
      "name": "saleIsActive",
      "outputs": [
        {
          "internalType": "bool",
          "name": "",
          "type": "bool"
        }
      ],
      "stateMutability": "view",
      "type": "function"
    },
    {
      "inputs": [
        {
          "internalType": "address",
          "name": "operator",
          "type": "address"
        },
        {
          "internalType": "bool",
          "name": "approved",
          "type": "bool"
        }
      ],
      "name": "setApprovalForAll",
      "outputs": [],
      "stateMutability": "nonpayable",
      "type": "function"
    },
    {
      "inputs": [
        {
          "internalType": "string",
          "name": "_newURI",
          "type": "string"
        }
      ],
      "name": "setBaseURI",
      "outputs": [],
      "stateMutability": "nonpayable",
      "type": "function"
    },
    {
      "inputs": [
        {
          "internalType": "bytes4",
          "name": "interfaceId",
          "type": "bytes4"
        }
      ],
      "name": "supportsInterface",
      "outputs": [
        {
          "internalType": "bool",
          "name": "",
          "type": "bool"
        }
      ],
      "stateMutability": "view",
      "type": "function"
    },
    {
      "inputs": [],
      "name": "symbol",
      "outputs": [
        {
          "internalType": "string",
          "name": "",
          "type": "string"
        }
      ],
      "stateMutability": "view",
      "type": "function"
    },
    {
      "inputs": [
        {
          "internalType": "uint256",
          "name": "tokenId",
          "type": "uint256"
        }
      ],
      "name": "tokenURI",
      "outputs": [
        {
          "internalType": "string",
          "name": "",
          "type": "string"
        }
      ],
      "stateMutability": "view",
      "type": "function"
    },
    {
      "inputs": [],
      "name": "totalFragrances",
      "outputs": [
        {
          "internalType": "uint16",
          "name": "",
          "type": "uint16"
        }
      ],
      "stateMutability": "view",
      "type": "function"
    },
    {
      "inputs": [
        {
          "internalType": "address",
          "name": "from",
          "type": "address"
        },
        {
          "internalType": "address",
          "name": "to",
          "type": "address"
        },
        {
          "internalType": "uint256",
          "name": "tokenId",
          "type": "uint256"
        }
      ],
      "name": "transferFrom",
      "outputs": [],
      "stateMutability": "nonpayable",
      "type": "function"
    },
    {
      "inputs": [
        {
          "internalType": "address",
          "name": "newOwner",
          "type": "address"
        }
      ],
      "name": "transferOwnership",
      "outputs": [],
      "stateMutability": "nonpayable",
      "type": "function"
    },
    {
      "inputs": [
        {
          "internalType": "address",
          "name": "_to",
          "type": "address"
        }
      ],
      "name": "withdraw",
      "outputs": [],
      "stateMutability": "nonpayable",
      "type": "function"
    }
  ],
  "bytecode": "0x60806040526000600660146101000a81548161ffff021916908361ffff1602179055506040518060400160405280601f81526020017f68747470733a2f2f6d65746176657273652e62796b696c69616e2e636f6d2f00815250600890805190602001906200006f9291906200022d565b506000600960006101000a81548160ff0219169083151502179055503480156200009857600080fd5b506040518060400160405280601081526020017f4b696c69616e204578636c7573697665000000000000000000000000000000008152506040518060400160405280600681526020017f4b696c69616e000000000000000000000000000000000000000000000000000081525081600090805190602001906200011d9291906200022d565b508060019080519060200190620001369291906200022d565b505050620001596200014d6200015f60201b60201c565b6200016760201b60201c565b62000341565b600033905090565b6000600660009054906101000a900473ffffffffffffffffffffffffffffffffffffffff16905081600660006101000a81548173ffffffffffffffffffffffffffffffffffffffff021916908373ffffffffffffffffffffffffffffffffffffffff1602179055508173ffffffffffffffffffffffffffffffffffffffff168173ffffffffffffffffffffffffffffffffffffffff167f8be0079c531659141344cd1fd0a4f28419497f9722a3daafe3b4186f6b6457e060405160405180910390a35050565b8280546200023b906200030c565b90600052602060002090601f0160209004810192826200025f5760008555620002ab565b82601f106200027a57805160ff1916838001178555620002ab565b82800160010185558215620002ab579182015b82811115620002aa5782518255916020019190600101906200028d565b5b509050620002ba9190620002be565b5090565b5b80821115620002d9576000816000905550600101620002bf565b5090565b7f4e487b7100000000000000000000000000000000000000000000000000000000600052602260045260246000fd5b600060028204905060018216806200032557607f821691505b6020821081036200033b576200033a620002dd565b5b50919050565b61398780620003516000396000f3fe6080604052600436106101b75760003560e01c80638819871b116100ec578063c304f4da1161008a578063e1ccf6af11610064578063e1ccf6af146105fe578063e985e9c514610627578063eb8d244414610664578063f2fde38b1461068f576101b7565b8063c304f4da1461057a578063c87b56dd14610596578063d034b16c146105d3576101b7565b80639ffa86ab116100c65780639ffa86ab146104c2578063a22cb465146104eb578063b5eadd8614610514578063b88d4fde14610551576101b7565b80638819871b146104415780638da5cb5b1461046c57806395d89b4114610497576101b7565b806342842e0e116101595780636352211e116101335780636352211e146103855780636c0360eb146103c257806370a08231146103ed578063715018a61461042a576101b7565b806342842e0e1461030a57806351cff8d91461033357806355f804b31461035c576101b7565b8063095ea7b311610195578063095ea7b31461026157806323b872dd1461028a57806334918dfd146102b3578063372ca701146102ca576101b7565b806301ffc9a7146101bc57806306fdde03146101f9578063081812fc14610224575b600080fd5b3480156101c857600080fd5b506101e360048036038101906101de919061255e565b6106b8565b6040516101f091906125a6565b60405180910390f35b34801561020557600080fd5b5061020e61079a565b60405161021b919061265a565b60405180910390f35b34801561023057600080fd5b5061024b600480360381019061024691906126b2565b61082c565b6040516102589190612720565b60405180910390f35b34801561026d57600080fd5b5061028860048036038101906102839190612767565b610872565b005b34801561029657600080fd5b506102b160048036038101906102ac91906127a7565b610989565b005b3480156102bf57600080fd5b506102c86109e9565b005b3480156102d657600080fd5b506102f160048036038101906102ec9190612834565b610a1d565b604051610301949392919061287f565b60405180910390f35b34801561031657600080fd5b50610331600480360381019061032c91906127a7565b610ae3565b005b34801561033f57600080fd5b5061035a600480360381019061035591906128cb565b610b03565b005b34801561036857600080fd5b50610383600480360381019061037e9190612a2d565b610b85565b005b34801561039157600080fd5b506103ac60048036038101906103a791906126b2565b610ba7565b6040516103b99190612720565b60405180910390f35b3480156103ce57600080fd5b506103d7610c2d565b6040516103e4919061265a565b60405180910390f35b3480156103f957600080fd5b50610414600480360381019061040f91906128cb565b610cbb565b6040516104219190612a76565b60405180910390f35b34801561043657600080fd5b5061043f610d72565b005b34801561044d57600080fd5b50610456610d86565b6040516104639190612a76565b60405180910390f35b34801561047857600080fd5b50610481610d92565b60405161048e9190612720565b60405180910390f35b3480156104a357600080fd5b506104ac610dbc565b6040516104b9919061265a565b60405180910390f35b3480156104ce57600080fd5b506104e960048036038101906104e49190612a2d565b610e4e565b005b3480156104f757600080fd5b50610512600480360381019061050d9190612abd565b610f1f565b005b34801561052057600080fd5b5061053b60048036038101906105369190612a2d565b610f35565b604051610548919061265a565b60405180910390f35b34801561055d57600080fd5b5061057860048036038101906105739190612b9e565b610f61565b005b610594600480360381019061058f9190612834565b610fc3565b005b3480156105a257600080fd5b506105bd60048036038101906105b891906126b2565b611148565b6040516105ca919061265a565b60405180910390f35b3480156105df57600080fd5b506105e86111b0565b6040516105f59190612c21565b60405180910390f35b34801561060a57600080fd5b5061062560048036038101906106209190612834565b6111c4565b005b34801561063357600080fd5b5061064e60048036038101906106499190612c3c565b6112f3565b60405161065b91906125a6565b60405180910390f35b34801561067057600080fd5b50610679611387565b60405161068691906125a6565b60405180910390f35b34801561069b57600080fd5b506106b660048036038101906106b191906128cb565b61139a565b005b60007f80ac58cd000000000000000000000000000000000000000000000000000000007bffffffffffffffffffffffffffffffffffffffffffffffffffffffff1916827bffffffffffffffffffffffffffffffffffffffffffffffffffffffff1916148061078357507f5b5e139f000000000000000000000000000000000000000000000000000000007bffffffffffffffffffffffffffffffffffffffffffffffffffffffff1916827bffffffffffffffffffffffffffffffffffffffffffffffffffffffff1916145b8061079357506107928261141d565b5b9050919050565b6060600080546107a990612cab565b80601f01602080910402602001604051908101604052809291908181526020018280546107d590612cab565b80156108225780601f106107f757610100808354040283529160200191610822565b820191906000526020600020905b81548152906001019060200180831161080557829003601f168201915b5050505050905090565b600061083782611487565b6004600083815260200190815260200160002060009054906101000a900473ffffffffffffffffffffffffffffffffffffffff169050919050565b600061087d82610ba7565b90508073ffffffffffffffffffffffffffffffffffffffff168373ffffffffffffffffffffffffffffffffffffffff16036108ed576040517f08c379a00000000000000000000000000000000000000000000000000000000081526004016108e490612d4e565b60405180910390fd5b8073ffffffffffffffffffffffffffffffffffffffff1661090c6114d2565b73ffffffffffffffffffffffffffffffffffffffff16148061093b575061093a816109356114d2565b6112f3565b5b61097a576040517f08c379a000000000000000000000000000000000000000000000000000000000815260040161097190612de0565b60405180910390fd5b61098483836114da565b505050565b61099a6109946114d2565b82611593565b6109d9576040517f08c379a00000000000000000000000000000000000000000000000000000000081526004016109d090612e72565b60405180910390fd5b6109e4838383611628565b505050565b6109f1611921565b600960009054906101000a900460ff1615600960006101000a81548160ff021916908315150217905550565b60076020528060005260406000206000915090508060000160009054906101000a900461ffff1690806001018054610a5490612cab565b80601f0160208091040260200160405190810160405280929190818152602001828054610a8090612cab565b8015610acd5780601f10610aa257610100808354040283529160200191610acd565b820191906000526020600020905b815481529060010190602001808311610ab057829003601f168201915b5050505050908060020154908060030154905084565b610afe83838360405180602001604052806000815250610f61565b505050565b8073ffffffffffffffffffffffffffffffffffffffff163373ffffffffffffffffffffffffffffffffffffffff1614610b3b57600080fd5b8073ffffffffffffffffffffffffffffffffffffffff166108fc479081150290604051600060405180830381858888f19350505050158015610b81573d6000803e3d6000fd5b5050565b610b8d611921565b8060089080519060200190610ba392919061244f565b5050565b600080610bb38361199f565b9050600073ffffffffffffffffffffffffffffffffffffffff168173ffffffffffffffffffffffffffffffffffffffff1603610c24576040517f08c379a0000000000000000000000000000000000000000000000000000000008152600401610c1b90612ede565b60405180910390fd5b80915050919050565b60088054610c3a90612cab565b80601f0160208091040260200160405190810160405280929190818152602001828054610c6690612cab565b8015610cb35780601f10610c8857610100808354040283529160200191610cb3565b820191906000526020600020905b815481529060010190602001808311610c9657829003601f168201915b505050505081565b60008073ffffffffffffffffffffffffffffffffffffffff168273ffffffffffffffffffffffffffffffffffffffff1603610d2b576040517f08c379a0000000000000000000000000000000000000000000000000000000008152600401610d2290612f70565b60405180910390fd5b600360008373ffffffffffffffffffffffffffffffffffffffff1673ffffffffffffffffffffffffffffffffffffffff168152602001908152602001600020549050919050565b610d7a611921565b610d8460006119dc565b565b678ac7230489e8000081565b6000600660009054906101000a900473ffffffffffffffffffffffffffffffffffffffff16905090565b606060018054610dcb90612cab565b80601f0160208091040260200160405190810160405280929190818152602001828054610df790612cab565b8015610e445780601f10610e1957610100808354040283529160200191610e44565b820191906000526020600020905b815481529060010190602001808311610e2757829003601f168201915b5050505050905090565b610e56611921565b6001600660148282829054906101000a900461ffff16610e769190612fbf565b92506101000a81548161ffff021916908361ffff160217905550600060076000600660149054906101000a900461ffff1661ffff1661ffff1681526020019081526020016000209050600660149054906101000a900461ffff168160000160006101000a81548161ffff021916908361ffff16021790555081816001019080519060200190610f0692919061244f565b5060008160020181905550600081600301819055505050565b610f31610f2a6114d2565b8383611aa2565b5050565b6060600882604051602001610f4b9291906130c7565b6040516020818303038152906040529050919050565b610f72610f6c6114d2565b83611593565b610fb1576040517f08c379a0000000000000000000000000000000000000000000000000000000008152600401610fa890612e72565b60405180910390fd5b610fbd84848484611c0e565b50505050565b600960009054906101000a900460ff16611012576040517f08c379a00000000000000000000000000000000000000000000000000000000081526004016110099061315d565b60405180910390fd5b34678ac7230489e800001461105c576040517f08c379a0000000000000000000000000000000000000000000000000000000008152600401611053906131c9565b60405180910390fd5b60008161ffff161180156110885750600660149054906101000a900461ffff1661ffff168161ffff1611155b6110c7576040517f08c379a00000000000000000000000000000000000000000000000000000000081526004016110be90613235565b60405180910390fd5b6000600760008361ffff1661ffff1681526020019081526020016000209050600081600201541461112d576040517f08c379a0000000000000000000000000000000000000000000000000000000008152600401611124906132a1565b60405180910390fd5b428160020181905550611144338361ffff16611c6a565b5050565b606061115382611487565b600061115d611c88565b9050600081511161117d57604051806020016040528060008152506111a8565b8061118784611c9f565b6040516020016111989291906132c1565b6040516020818303038152906040525b915050919050565b600660149054906101000a900461ffff1681565b6000600760008361ffff1661ffff168152602001908152602001600020905060008160000160009054906101000a900461ffff1661ffff160361123c576040517f08c379a000000000000000000000000000000000000000000000000000000000815260040161123390613331565b60405180910390fd5b6000816002015403611283576040517f08c379a000000000000000000000000000000000000000000000000000000000815260040161127a9061339d565b60405180910390fd5b3373ffffffffffffffffffffffffffffffffffffffff166112a78361ffff16610ba7565b73ffffffffffffffffffffffffffffffffffffffff16146112c757600080fd5b6301e133808160030154426112dc91906133bd565b116112e657600080fd5b4281600301819055505050565b6000600560008473ffffffffffffffffffffffffffffffffffffffff1673ffffffffffffffffffffffffffffffffffffffff16815260200190815260200160002060008373ffffffffffffffffffffffffffffffffffffffff1673ffffffffffffffffffffffffffffffffffffffff16815260200190815260200160002060009054906101000a900460ff16905092915050565b600960009054906101000a900460ff1681565b6113a2611921565b600073ffffffffffffffffffffffffffffffffffffffff168173ffffffffffffffffffffffffffffffffffffffff1603611411576040517f08c379a000000000000000000000000000000000000000000000000000000000815260040161140890613463565b60405180910390fd5b61141a816119dc565b50565b60007f01ffc9a7000000000000000000000000000000000000000000000000000000007bffffffffffffffffffffffffffffffffffffffffffffffffffffffff1916827bffffffffffffffffffffffffffffffffffffffffffffffffffffffff1916149050919050565b61149081611d6d565b6114cf576040517f08c379a00000000000000000000000000000000000000000000000000000000081526004016114c690612ede565b60405180910390fd5b50565b600033905090565b816004600083815260200190815260200160002060006101000a81548173ffffffffffffffffffffffffffffffffffffffff021916908373ffffffffffffffffffffffffffffffffffffffff160217905550808273ffffffffffffffffffffffffffffffffffffffff1661154d83610ba7565b73ffffffffffffffffffffffffffffffffffffffff167f8c5be1e5ebec7d5bd14f71427d1e84f3dd0314c0f7b2291e5b200ac8c7c3b92560405160405180910390a45050565b60008061159f83610ba7565b90508073ffffffffffffffffffffffffffffffffffffffff168473ffffffffffffffffffffffffffffffffffffffff1614806115e157506115e081856112f3565b5b8061161f57508373ffffffffffffffffffffffffffffffffffffffff166116078461082c565b73ffffffffffffffffffffffffffffffffffffffff16145b91505092915050565b8273ffffffffffffffffffffffffffffffffffffffff1661164882610ba7565b73ffffffffffffffffffffffffffffffffffffffff161461169e576040517f08c379a0000000000000000000000000000000000000000000000000000000008152600401611695906134f5565b60405180910390fd5b600073ffffffffffffffffffffffffffffffffffffffff168273ffffffffffffffffffffffffffffffffffffffff160361170d576040517f08c379a000000000000000000000000000000000000000000000000000000000815260040161170490613587565b60405180910390fd5b61171a8383836001611dae565b8273ffffffffffffffffffffffffffffffffffffffff1661173a82610ba7565b73ffffffffffffffffffffffffffffffffffffffff1614611790576040517f08c379a0000000000000000000000000000000000000000000000000000000008152600401611787906134f5565b60405180910390fd5b6004600082815260200190815260200160002060006101000a81549073ffffffffffffffffffffffffffffffffffffffff02191690556001600360008573ffffffffffffffffffffffffffffffffffffffff1673ffffffffffffffffffffffffffffffffffffffff168152602001908152602001600020600082825403925050819055506001600360008473ffffffffffffffffffffffffffffffffffffffff1673ffffffffffffffffffffffffffffffffffffffff16815260200190815260200160002060008282540192505081905550816002600083815260200190815260200160002060006101000a81548173ffffffffffffffffffffffffffffffffffffffff021916908373ffffffffffffffffffffffffffffffffffffffff160217905550808273ffffffffffffffffffffffffffffffffffffffff168473ffffffffffffffffffffffffffffffffffffffff167fddf252ad1be2c89b69c2b068fc378daa952ba7f163c4a11628f55a4df523b3ef60405160405180910390a461191c8383836001611ed4565b505050565b6119296114d2565b73ffffffffffffffffffffffffffffffffffffffff16611947610d92565b73ffffffffffffffffffffffffffffffffffffffff161461199d576040517f08c379a0000000000000000000000000000000000000000000000000000000008152600401611994906135f3565b60405180910390fd5b565b60006002600083815260200190815260200160002060009054906101000a900473ffffffffffffffffffffffffffffffffffffffff169050919050565b6000600660009054906101000a900473ffffffffffffffffffffffffffffffffffffffff16905081600660006101000a81548173ffffffffffffffffffffffffffffffffffffffff021916908373ffffffffffffffffffffffffffffffffffffffff1602179055508173ffffffffffffffffffffffffffffffffffffffff168173ffffffffffffffffffffffffffffffffffffffff167f8be0079c531659141344cd1fd0a4f28419497f9722a3daafe3b4186f6b6457e060405160405180910390a35050565b8173ffffffffffffffffffffffffffffffffffffffff168373ffffffffffffffffffffffffffffffffffffffff1603611b10576040517f08c379a0000000000000000000000000000000000000000000000000000000008152600401611b079061365f565b60405180910390fd5b80600560008573ffffffffffffffffffffffffffffffffffffffff1673ffffffffffffffffffffffffffffffffffffffff16815260200190815260200160002060008473ffffffffffffffffffffffffffffffffffffffff1673ffffffffffffffffffffffffffffffffffffffff16815260200190815260200160002060006101000a81548160ff0219169083151502179055508173ffffffffffffffffffffffffffffffffffffffff168373ffffffffffffffffffffffffffffffffffffffff167f17307eab39ab6107e8899845ad3d59bd9653f200f220920489ca2b5937696c3183604051611c0191906125a6565b60405180910390a3505050565b611c19848484611628565b611c2584848484611eda565b611c64576040517f08c379a0000000000000000000000000000000000000000000000000000000008152600401611c5b906136f1565b60405180910390fd5b50505050565b611c84828260405180602001604052806000815250612061565b5050565b606060405180602001604052806000815250905090565b606060006001611cae846120bc565b01905060008167ffffffffffffffff811115611ccd57611ccc612902565b5b6040519080825280601f01601f191660200182016040528015611cff5781602001600182028036833780820191505090505b509050600082602001820190505b600115611d62578080600190039150507f3031323334353637383961626364656600000000000000000000000000000000600a86061a8153600a8581611d5657611d55613711565b5b04945060008503611d0d575b819350505050919050565b60008073ffffffffffffffffffffffffffffffffffffffff16611d8f8361199f565b73ffffffffffffffffffffffffffffffffffffffff1614159050919050565b6001811115611ece57600073ffffffffffffffffffffffffffffffffffffffff168473ffffffffffffffffffffffffffffffffffffffff1614611e425780600360008673ffffffffffffffffffffffffffffffffffffffff1673ffffffffffffffffffffffffffffffffffffffff1681526020019081526020016000206000828254611e3a91906133bd565b925050819055505b600073ffffffffffffffffffffffffffffffffffffffff168373ffffffffffffffffffffffffffffffffffffffff1614611ecd5780600360008573ffffffffffffffffffffffffffffffffffffffff1673ffffffffffffffffffffffffffffffffffffffff1681526020019081526020016000206000828254611ec59190613740565b925050819055505b5b50505050565b50505050565b6000611efb8473ffffffffffffffffffffffffffffffffffffffff1661220f565b15612054578373ffffffffffffffffffffffffffffffffffffffff1663150b7a02611f246114d2565b8786866040518563ffffffff1660e01b8152600401611f4694939291906137eb565b6020604051808303816000875af1925050508015611f8257506040513d601f19601f82011682018060405250810190611f7f919061384c565b60015b612004573d8060008114611fb2576040519150601f19603f3d011682016040523d82523d6000602084013e611fb7565b606091505b506000815103611ffc576040517f08c379a0000000000000000000000000000000000000000000000000000000008152600401611ff3906136f1565b60405180910390fd5b805181602001fd5b63150b7a0260e01b7bffffffffffffffffffffffffffffffffffffffffffffffffffffffff1916817bffffffffffffffffffffffffffffffffffffffffffffffffffffffff191614915050612059565b600190505b949350505050565b61206b8383612232565b6120786000848484611eda565b6120b7576040517f08c379a00000000000000000000000000000000000000000000000000000000081526004016120ae906136f1565b60405180910390fd5b505050565b600080600090507a184f03e93ff9f4daa797ed6e38ed64bf6a1f010000000000000000831061211a577a184f03e93ff9f4daa797ed6e38ed64bf6a1f01000000000000000083816121105761210f613711565b5b0492506040810190505b6d04ee2d6d415b85acef81000000008310612157576d04ee2d6d415b85acef8100000000838161214d5761214c613711565b5b0492506020810190505b662386f26fc10000831061218657662386f26fc10000838161217c5761217b613711565b5b0492506010810190505b6305f5e10083106121af576305f5e10083816121a5576121a4613711565b5b0492506008810190505b61271083106121d45761271083816121ca576121c9613711565b5b0492506004810190505b606483106121f757606483816121ed576121ec613711565b5b0492506002810190505b600a8310612206576001810190505b80915050919050565b6000808273ffffffffffffffffffffffffffffffffffffffff163b119050919050565b600073ffffffffffffffffffffffffffffffffffffffff168273ffffffffffffffffffffffffffffffffffffffff16036122a1576040517f08c379a0000000000000000000000000000000000000000000000000000000008152600401612298906138c5565b60405180910390fd5b6122aa81611d6d565b156122ea576040517f08c379a00000000000000000000000000000000000000000000000000000000081526004016122e190613931565b60405180910390fd5b6122f8600083836001611dae565b61230181611d6d565b15612341576040517f08c379a000000000000000000000000000000000000000000000000000000000815260040161233890613931565b60405180910390fd5b6001600360008473ffffffffffffffffffffffffffffffffffffffff1673ffffffffffffffffffffffffffffffffffffffff16815260200190815260200160002060008282540192505081905550816002600083815260200190815260200160002060006101000a81548173ffffffffffffffffffffffffffffffffffffffff021916908373ffffffffffffffffffffffffffffffffffffffff160217905550808273ffffffffffffffffffffffffffffffffffffffff16600073ffffffffffffffffffffffffffffffffffffffff167fddf252ad1be2c89b69c2b068fc378daa952ba7f163c4a11628f55a4df523b3ef60405160405180910390a461244b600083836001611ed4565b5050565b82805461245b90612cab565b90600052602060002090601f01602090048101928261247d57600085556124c4565b82601f1061249657805160ff19168380011785556124c4565b828001600101855582156124c4579182015b828111156124c35782518255916020019190600101906124a8565b5b5090506124d191906124d5565b5090565b5b808211156124ee5760008160009055506001016124d6565b5090565b6000604051905090565b600080fd5b600080fd5b60007fffffffff0000000000000000000000000000000000000000000000000000000082169050919050565b61253b81612506565b811461254657600080fd5b50565b60008135905061255881612532565b92915050565b600060208284031215612574576125736124fc565b5b600061258284828501612549565b91505092915050565b60008115159050919050565b6125a08161258b565b82525050565b60006020820190506125bb6000830184612597565b92915050565b600081519050919050565b600082825260208201905092915050565b60005b838110156125fb5780820151818401526020810190506125e0565b8381111561260a576000848401525b50505050565b6000601f19601f8301169050919050565b600061262c826125c1565b61263681856125cc565b93506126468185602086016125dd565b61264f81612610565b840191505092915050565b600060208201905081810360008301526126748184612621565b905092915050565b6000819050919050565b61268f8161267c565b811461269a57600080fd5b50565b6000813590506126ac81612686565b92915050565b6000602082840312156126c8576126c76124fc565b5b60006126d68482850161269d565b91505092915050565b600073ffffffffffffffffffffffffffffffffffffffff82169050919050565b600061270a826126df565b9050919050565b61271a816126ff565b82525050565b60006020820190506127356000830184612711565b92915050565b612744816126ff565b811461274f57600080fd5b50565b6000813590506127618161273b565b92915050565b6000806040838503121561277e5761277d6124fc565b5b600061278c85828601612752565b925050602061279d8582860161269d565b9150509250929050565b6000806000606084860312156127c0576127bf6124fc565b5b60006127ce86828701612752565b93505060206127df86828701612752565b92505060406127f08682870161269d565b9150509250925092565b600061ffff82169050919050565b612811816127fa565b811461281c57600080fd5b50565b60008135905061282e81612808565b92915050565b60006020828403121561284a576128496124fc565b5b60006128588482850161281f565b91505092915050565b61286a816127fa565b82525050565b6128798161267c565b82525050565b60006080820190506128946000830187612861565b81810360208301526128a68186612621565b90506128b56040830185612870565b6128c26060830184612870565b95945050505050565b6000602082840312156128e1576128e06124fc565b5b60006128ef84828501612752565b91505092915050565b600080fd5b600080fd5b7f4e487b7100000000000000000000000000000000000000000000000000000000600052604160045260246000fd5b61293a82612610565b810181811067ffffffffffffffff8211171561295957612958612902565b5b80604052505050565b600061296c6124f2565b90506129788282612931565b919050565b600067ffffffffffffffff82111561299857612997612902565b5b6129a182612610565b9050602081019050919050565b82818337600083830152505050565b60006129d06129cb8461297d565b612962565b9050828152602081018484840111156129ec576129eb6128fd565b5b6129f78482856129ae565b509392505050565b600082601f830112612a1457612a136128f8565b5b8135612a248482602086016129bd565b91505092915050565b600060208284031215612a4357612a426124fc565b5b600082013567ffffffffffffffff811115612a6157612a60612501565b5b612a6d848285016129ff565b91505092915050565b6000602082019050612a8b6000830184612870565b92915050565b612a9a8161258b565b8114612aa557600080fd5b50565b600081359050612ab781612a91565b92915050565b60008060408385031215612ad457612ad36124fc565b5b6000612ae285828601612752565b9250506020612af385828601612aa8565b9150509250929050565b600067ffffffffffffffff821115612b1857612b17612902565b5b612b2182612610565b9050602081019050919050565b6000612b41612b3c84612afd565b612962565b905082815260208101848484011115612b5d57612b5c6128fd565b5b612b688482856129ae565b509392505050565b600082601f830112612b8557612b846128f8565b5b8135612b95848260208601612b2e565b91505092915050565b60008060008060808587031215612bb857612bb76124fc565b5b6000612bc687828801612752565b9450506020612bd787828801612752565b9350506040612be88782880161269d565b925050606085013567ffffffffffffffff811115612c0957612c08612501565b5b612c1587828801612b70565b91505092959194509250565b6000602082019050612c366000830184612861565b92915050565b60008060408385031215612c5357612c526124fc565b5b6000612c6185828601612752565b9250506020612c7285828601612752565b9150509250929050565b7f4e487b7100000000000000000000000000000000000000000000000000000000600052602260045260246000fd5b60006002820490506001821680612cc357607f821691505b602082108103612cd657612cd5612c7c565b5b50919050565b7f4552433732313a20617070726f76616c20746f2063757272656e74206f776e6560008201527f7200000000000000000000000000000000000000000000000000000000000000602082015250565b6000612d386021836125cc565b9150612d4382612cdc565b604082019050919050565b60006020820190508181036000830152612d6781612d2b565b9050919050565b7f4552433732313a20617070726f76652063616c6c6572206973206e6f7420746f60008201527f6b656e206f776e6572206f7220617070726f76656420666f7220616c6c000000602082015250565b6000612dca603d836125cc565b9150612dd582612d6e565b604082019050919050565b60006020820190508181036000830152612df981612dbd565b9050919050565b7f4552433732313a2063616c6c6572206973206e6f7420746f6b656e206f776e6560008201527f72206f7220617070726f76656400000000000000000000000000000000000000602082015250565b6000612e5c602d836125cc565b9150612e6782612e00565b604082019050919050565b60006020820190508181036000830152612e8b81612e4f565b9050919050565b7f4552433732313a20696e76616c696420746f6b656e2049440000000000000000600082015250565b6000612ec86018836125cc565b9150612ed382612e92565b602082019050919050565b60006020820190508181036000830152612ef781612ebb565b9050919050565b7f4552433732313a2061646472657373207a65726f206973206e6f74206120766160008201527f6c6964206f776e65720000000000000000000000000000000000000000000000602082015250565b6000612f5a6029836125cc565b9150612f6582612efe565b604082019050919050565b60006020820190508181036000830152612f8981612f4d565b9050919050565b7f4e487b7100000000000000000000000000000000000000000000000000000000600052601160045260246000fd5b6000612fca826127fa565b9150612fd5836127fa565b92508261ffff03821115612fec57612feb612f90565b5b828201905092915050565b600081905092915050565b60008190508160005260206000209050919050565b6000815461302481612cab565b61302e8186612ff7565b94506001821660008114613049576001811461305a5761308d565b60ff1983168652818601935061308d565b61306385613002565b60005b8381101561308557815481890152600182019150602081019050613066565b838801955050505b50505092915050565b60006130a1826125c1565b6130ab8185612ff7565b93506130bb8185602086016125dd565b80840191505092915050565b60006130d38285613017565b91506130df8284613096565b91508190509392505050565b7f53616c65206d7573742062652061637469766520746f206d696e74206120667260008201527f61676572656e6365000000000000000000000000000000000000000000000000602082015250565b60006131476028836125cc565b9150613152826130eb565b604082019050919050565b600060208201905081810360008301526131768161313a565b9050919050565b7f45746865722076616c75652073656e74206973206e6f7420636f727265637400600082015250565b60006131b3601f836125cc565b91506131be8261317d565b602082019050919050565b600060208201905081810360008301526131e2816131a6565b9050919050565b7f696e76616c6964205f6672616772616e63654964000000000000000000000000600082015250565b600061321f6014836125cc565b915061322a826131e9565b602082019050919050565b6000602082019050818103600083015261324e81613212565b9050919050565b7f6672616772656e636520616c7265616479207075726368617365640000000000600082015250565b600061328b601b836125cc565b915061329682613255565b602082019050919050565b600060208201905081810360008301526132ba8161327e565b9050919050565b60006132cd8285613096565b91506132d98284613096565b91508190509392505050565b7f6672616772616e636520646f65736e2774206578697374000000000000000000600082015250565b600061331b6017836125cc565b9150613326826132e5565b602082019050919050565b6000602082019050818103600083015261334a8161330e565b9050919050565b7f6672616772616e6365206e6f7420736f6c640000000000000000000000000000600082015250565b60006133876012836125cc565b915061339282613351565b602082019050919050565b600060208201905081810360008301526133b68161337a565b9050919050565b60006133c88261267c565b91506133d38361267c565b9250828210156133e6576133e5612f90565b5b828203905092915050565b7f4f776e61626c653a206e6577206f776e657220697320746865207a65726f206160008201527f6464726573730000000000000000000000000000000000000000000000000000602082015250565b600061344d6026836125cc565b9150613458826133f1565b604082019050919050565b6000602082019050818103600083015261347c81613440565b9050919050565b7f4552433732313a207472616e736665722066726f6d20696e636f72726563742060008201527f6f776e6572000000000000000000000000000000000000000000000000000000602082015250565b60006134df6025836125cc565b91506134ea82613483565b604082019050919050565b6000602082019050818103600083015261350e816134d2565b9050919050565b7f4552433732313a207472616e7366657220746f20746865207a65726f2061646460008201527f7265737300000000000000000000000000000000000000000000000000000000602082015250565b60006135716024836125cc565b915061357c82613515565b604082019050919050565b600060208201905081810360008301526135a081613564565b9050919050565b7f4f776e61626c653a2063616c6c6572206973206e6f7420746865206f776e6572600082015250565b60006135dd6020836125cc565b91506135e8826135a7565b602082019050919050565b6000602082019050818103600083015261360c816135d0565b9050919050565b7f4552433732313a20617070726f766520746f2063616c6c657200000000000000600082015250565b60006136496019836125cc565b915061365482613613565b602082019050919050565b600060208201905081810360008301526136788161363c565b9050919050565b7f4552433732313a207472616e7366657220746f206e6f6e20455243373231526560008201527f63656976657220696d706c656d656e7465720000000000000000000000000000602082015250565b60006136db6032836125cc565b91506136e68261367f565b604082019050919050565b6000602082019050818103600083015261370a816136ce565b9050919050565b7f4e487b7100000000000000000000000000000000000000000000000000000000600052601260045260246000fd5b600061374b8261267c565b91506137568361267c565b9250827fffffffffffffffffffffffffffffffffffffffffffffffffffffffffffffffff0382111561378b5761378a612f90565b5b828201905092915050565b600081519050919050565b600082825260208201905092915050565b60006137bd82613796565b6137c781856137a1565b93506137d78185602086016125dd565b6137e081612610565b840191505092915050565b60006080820190506138006000830187612711565b61380d6020830186612711565b61381a6040830185612870565b818103606083015261382c81846137b2565b905095945050505050565b60008151905061384681612532565b92915050565b600060208284031215613862576138616124fc565b5b600061387084828501613837565b91505092915050565b7f4552433732313a206d696e7420746f20746865207a65726f2061646472657373600082015250565b60006138af6020836125cc565b91506138ba82613879565b602082019050919050565b600060208201905081810360008301526138de816138a2565b9050919050565b7f4552433732313a20746f6b656e20616c7265616479206d696e74656400000000600082015250565b600061391b601c836125cc565b9150613926826138e5565b602082019050919050565b6000602082019050818103600083015261394a8161390e565b905091905056fea26469706673582212209107ecc3499e1a8413f2db85e37e70acfe959e111199201b07e26e8dd8d3370f64736f6c634300080d0033",
  "linkReferences": {},
  "deployedLinkReferences": {}
}