{
  "_format": "hh-sol-artifact-1",
  "contractName": "Game2",
  "sourceName": "contracts/randomness-vulnerabilities-2/Game2.sol",
  "abi": [
    {
      "inputs": [],
      "stateMutability": "payable",
      "type": "constructor"
    },
    {
      "inputs": [
        {
          "internalType": "bool",
          "name": "_guess",
          "type": "bool"
        }
      ],
      "name": "play",
      "outputs": [],
      "stateMutability": "payable",
      "type": "function"
    },
    {
      "inputs": [
        {
          "internalType": "address",
          "name": "",
          "type": "address"
        }
      ],
      "name": "players",
      "outputs": [
        {
          "internalType": "uint256",
          "name": "",
          "type": "uint256"
        }
      ],
      "stateMutability": "view",
      "type": "function"
    }
  ],
  "bytecode": "0x608060405261075f806100136000396000f3fe6080604052600436106100295760003560e01c8063c23c87d51461002e578063e2eb41ff1461004a575b600080fd5b61004860048036038101906100439190610397565b610087565b005b34801561005657600080fd5b50610071600480360381019061006c9190610422565b610342565b60405161007e9190610468565b60405180910390f35b670de0b6b3a764000034146100d1576040517f08c379a00000000000000000000000000000000000000000000000000000000081526004016100c8906104e0565b60405180910390fd5b60006001436100e0919061052f565b4060001c9050806001540361012a576040517f08c379a0000000000000000000000000000000000000000000000000000000008152600401610121906105af565b60405180910390fd5b80600181905550600060028261014091906105fe565b9050600060018214610153576000610156565b60015b9050831515811515036102f7576000803373ffffffffffffffffffffffffffffffffffffffff1673ffffffffffffffffffffffffffffffffffffffff16815260200190815260200160002060008154809291906101b29061062f565b9190505550600560ff166000803373ffffffffffffffffffffffffffffffffffffffff1673ffffffffffffffffffffffffffffffffffffffff16815260200190815260200160002054036102f25760003373ffffffffffffffffffffffffffffffffffffffff1647604051610226906106a8565b60006040518083038185875af1925050503d8060008114610263576040519150601f19603f3d011682016040523d82523d6000602084013e610268565b606091505b50509050806102ac576040517f08c379a00000000000000000000000000000000000000000000000000000000081526004016102a390610709565b60405180910390fd5b60008060003373ffffffffffffffffffffffffffffffffffffffff1673ffffffffffffffffffffffffffffffffffffffff16815260200190815260200160002081905550505b61033c565b60008060003373ffffffffffffffffffffffffffffffffffffffff1673ffffffffffffffffffffffffffffffffffffffff168152602001908152602001600020819055505b50505050565b60006020528060005260406000206000915090505481565b600080fd5b60008115159050919050565b6103748161035f565b811461037f57600080fd5b50565b6000813590506103918161036b565b92915050565b6000602082840312156103ad576103ac61035a565b5b60006103bb84828501610382565b91505092915050565b600073ffffffffffffffffffffffffffffffffffffffff82169050919050565b60006103ef826103c4565b9050919050565b6103ff816103e4565b811461040a57600080fd5b50565b60008135905061041c816103f6565b92915050565b6000602082840312156104385761043761035a565b5b60006104468482850161040d565b91505092915050565b6000819050919050565b6104628161044f565b82525050565b600060208201905061047d6000830184610459565b92915050565b600082825260208201905092915050565b7f506c6179696e6720636f73747320312045544800000000000000000000000000600082015250565b60006104ca601383610483565b91506104d582610494565b602082019050919050565b600060208201905081810360008301526104f9816104bd565b9050919050565b7f4e487b7100000000000000000000000000000000000000000000000000000000600052601160045260246000fd5b600061053a8261044f565b91506105458361044f565b92508282101561055857610557610500565b5b828203905092915050565b7f4f6e6520726f756e64206174206120626c6f636b210000000000000000000000600082015250565b6000610599601583610483565b91506105a482610563565b602082019050919050565b600060208201905081810360008301526105c88161058c565b9050919050565b7f4e487b7100000000000000000000000000000000000000000000000000000000600052601260045260246000fd5b60006106098261044f565b91506106148361044f565b925082610624576106236105cf565b5b828206905092915050565b600061063a8261044f565b91507fffffffffffffffffffffffffffffffffffffffffffffffffffffffffffffffff820361066c5761066b610500565b5b600182019050919050565b600081905092915050565b50565b6000610692600083610677565b915061069d82610682565b600082019050919050565b60006106b382610685565b9150819050919050565b7f4661696c656420746f2073656e64204554480000000000000000000000000000600082015250565b60006106f3601283610483565b91506106fe826106bd565b602082019050919050565b60006020820190508181036000830152610722816106e6565b905091905056fea264697066735822122008bf11a87ae122d4e34e3c53f4a08aedadb20c4ee1d72bf6d5509ae6fd7b1d5564736f6c634300080d0033",
  "linkReferences": {},
  "deployedLinkReferences": {}
}